:020000040800F2
:10000000002000209D220008310C0008330C00085D
:1000100000000000000000000000000000000000E0
:10002000000000000000000000000000350C000887
:100030000000000000000000370C0008390C000828
:10004000ED22000800000000ED220008ED2200086B
:10005000ED220008ED220008ED220008ED22000844
:1000600000000000ED220008ED220008ED2200084B
:10007000ED220008ED220008ED220008000000003B
:10008000ED220008ED22000800000000ED2200082B
:10009000ED220008ED220008ED220008ED22000804
:1000A000ED220008ED220008ED220008450C0008B2
:1000B000ED22000800000000000000000000000029
:1000C00010B5064C2378002B07D1054B002B02D02E
:1000D000044800E000BF0123237010BD5C0E002027
:1000E000000000004C240008044B10B5002B03D086
:1000F0000349044800E000BF10BDC04600000000F6
:10010000600E00204C240008002243088B4274D368
:1001100003098B425FD3030A8B4244D3030B8B4208
:1001200028D3030C8B420DD3FF22090212BA030C11
:100130008B4202D31212090265D0030B8B4219D3F2
:1001400000E0090AC30B8B4201D3CB03C01A524112
:10015000830B8B4201D38B03C01A5241430B8B425A
:1001600001D34B03C01A5241030B8B4201D30B0343
:10017000C01A5241C30A8B4201D3CB02C01A52416A
:10018000830A8B4201D38B02C01A5241430A8B422D
:1001900001D34B02C01A5241030A8B4201D30B0216
:1001A000C01A5241CDD2C3098B4201D3CB01C01A30
:1001B000524183098B4201D38B01C01A524143093A
:1001C0008B4201D34B01C01A524103098B4201D328
:1001D0000B01C01A5241C3088B4201D3CB00C01A95
:1001E000524183088B4201D38B00C01A524143080D
:1001F0008B4201D34B00C01A5241411A00D2014632
:10020000524110467047FFE701B5002000F006F8A4
:1002100002BDC0460029F7D076E770477047C04658
:1002200070B50500224C237808229343237023786D
:10023000043A93432370C7239B00E0187C32D2001A
:10024000002102F089F88C235B000022E252002496
:1002500006E0291964230122164801F0B9FE013491
:100260002B5D002BF5D129006731124C643301223C
:10027000200001F0ADFE2900683164230122200036
:1002800001F0A6FE6A23E95A00220B4800F054FD53
:10029000074B1B881B0705D4074B186800F086FD29
:1002A0000028F5D0044B186800F06CFD012070BDEB
:1002B000980E0020B4150020780E002010B50B0019
:1002C000010028310022034800F0C4FC002800D0BF
:1002D000012010BDB411002010B5FFF7A1FF10BD23
:1002E0000300581C1A7803008A42FAD170470000B4
:1002F00010B50A48FFF794FF3A210948FFF7F0FFCD
:100300000130002105E0074B5B1872331A70013091
:10031000013102780D2AF6D110BDC0460000002040
:10032000B4110020980E002010B50A486C30FFF779
:1003300077FF0A210848FFF7D3FF002105E0074BAC
:100340005B1862331A700130013102780D2AF6D140
:1003500010BDC04600000020B4110020980E0020FF
:1003600010B50A485830FFF75BFF0A210848FFF72D
:10037000B7FF002105E0074B5B1825331A700130E9
:10038000013102780D2AF6D110BDC0468000002050
:10039000B4110020980E002010B50D484430FFF72E
:1003A0003FFF3A210B48FFF79BFF01300021027805
:1003B0000D2A08D0064B5B186C331B78934204D18E
:1003C00001310130F3E7012010BD0020FCE7C046F9
:1003D00000010020B411002010B507483030FFF7AD
:1003E0001FFF2C210548FFF77BFF0378312B01D03D
:1003F000002010BD0120FCE780010020B411002086
:1004000010B50A481C30FFF70BFF3A210848FFF7E8
:1004100067FF0130002105E0064B5B1886331A7038
:100420000130013102780D2AF6D110BD0002002002
:10043000B4110020980E002030B58DB0CE4B1A7943
:10044000052A00D93DE19300CC4AD3589F46CC4BB6
:100450001B88DB070CD4CA4B1B889B0700D430E1F8
:10046000FFF79AFF00280AD1C34B00221A7128E136
:10047000C34B1B889B07EED400F068FBEBE7FFF74C
:1004800037FFFFF751FFFFF76BFFBB4B01221A71DC
:1004900017E1BC480830FFF7C3FEFFF79DFF0028B7
:1004A00008D1B74A137820218B431370B24B012235
:1004B0001A7106E1FFF7A4FFB14A137820210B431C
:1004C0001370AD4B02221A71FBE0AD4B1B889B06EB
:1004D00000D4F6E0A84B5A79042A00D9F1E0930041
:1004E000A94AD3589F46A7487430FFF7F5FEA74C9A
:1004F00060342000FFF7F0FE00212000FFF7DEFE51
:10050000002808D09E4A137840210B4313709A4B61
:1005100001225A71D5E09A4A137840218B43137017
:10052000CFE09B484C30FFF7D7FE9A4C3834200080
:10053000FFF7D2FE00212000FFF7C0FE002811D0F7
:100540008F4A531C517801215170927800225A70C1
:100550009A7800229A70DA780022DA70864B02329A
:100560005A71AEE08C482430FFF7B6FE844A531C23
:10057000517800215170927800225A709A780022A6
:100580009A70DA780022DA709BE0844C20001030F8
:10059000FFF7A2FE7C342000FFF79EFE0021200022
:1005A000FFF78CFE002811D0754A531D51790121A7
:1005B0005171927900225A709A7800229A70DA78F2
:1005C0000022DA706C4B03325A717AE06C4A531D88
:1005D000517900215171927900225A709A78002243
:1005E0009A70DA780022DA706BE06D486830FFF7B5
:1005F00073FE6C4C54342000FFF76EFE0021200087
:10060000FFF75CFE002811D05D4A1300517A0121EA
:1006100051729A7A00229A72DA7A0022DA721A7B7E
:1006200000221A73544B04325A714AE05E4840303B
:10063000FFF752FE524A1300517A002151729A7A02
:1006400000229A72DA7A0022DA721A7B00221A7376
:1006500037E056482C30FFF7E3FD554C18342000A6
:10066000FFF7DEFD00212000FFF728FE002813D051
:10067000434A1300517B012151739A7B00229A73E4
:10068000DA7B0022DA731A7C00221A743A4B0132A8
:100690005A7102321A7114E0394A1300517B002159
:1006A00051739A7B00229A73DA7B0022DA731A7CE8
:1006B00000221A74304B04325A7102E02E4B04228D
:1006C0001A710DB030BD2C4B9B79012B00D1ADE0E0
:1006D000002B77D0022B00D1D4E0032BF1D16B4655
:1006E0001A22DA7001A933480B00020013CA13C39F
:1006F00013CA13C313CA13C303CA03C32E4C200067
:100700002030FFF7E9FD21005C31002300222B4857
:1007100000F0A0FA0028D4D0FA24A400284D230029
:100720002C2201A9280001F053FC64230122694610
:100730000331280001F04CFC200000F051FB1E4862
:1007400000212030FFF7BAFD002800D1C6E00C4A96
:100750001300517F012151779A7F00229A77DA7F27
:100760000022DA771D33DA780022DA70024B9A71B0
:1007700005321A71A5E7C046780E002064240008EF
:10078000980E0020800200207C2400080003002036
:1007900080030020000400208004002000050020C9
:1007A00080050020000600208006002000070020B1
:1007B00080070020EC240008000A0020B41100206B
:1007C000B4150020774C04342000FFF785FD00218C
:1007D0002000FFF773FD002811D0734A1300517CED
:1007E000012151749A7C00229A74DA7C0022DA7416
:1007F0001A7D00221A7501326C4B9A7161E76948C3
:100800007030FFF769FD6A485C30FFF765FD664AA6
:100810001300517C002151749A7C00229A74DA7C76
:100820000022DA741A7D00221A754AE7614C4834B6
:100830002000FFF751FD00212000FFF73FFD0028B9
:1008400011D0594A1300517D012151759A7D002222
:100850009A75DA7D0022DA751A7E00221A76534BD9
:1008600002329A712DE7504A1300517D00215175D3
:100870009A7D00229A75DA7D0022DA751A7E0022AE
:100880001A761EE74C4C34342000FFF725FD00217A
:100890002000FFF713FD002811D0434A1300517EBA
:1008A000012151769A7E00229A76DA7E0022DA764B
:1008B0001A7F00221A773D4B03329A7101E73A4AB8
:1008C0001300517E002151769A7E00229A76DA7EBC
:1008D0000022DA761A7F00221A77F2E6324A1300F3
:1008E000517F002151779A7F00229A77DA7F002288
:1008F000DA771D33DA780022DA70E2E62A4A1378D2
:1009000008218B43137000222C49284800F014FA68
:10091000254B1B881B0705D4244B186800F046FAAA
:100920000028F5D0214B186800F02CFA1E4B1B88CC
:100930001B0700D4C5E6002300222149214800F00E
:1009400089F9002813D1194B02229A7102321A71C7
:10095000154B21331A7800221A705A7800225A70E7
:100960009A7800229A70DA780022DA70A9E60E4BA3
:1009700021331A7801221A705A7800225A709A7814
:1009800000229A70DA780022DA7006487030FFF799
:10099000A3FC07485C30FFF79FFC044B06221A714A
:1009A0008FE6C04600080020980E0020780E002038
:1009B0008008002000090020800900203075000018
:1009C000C8240008B411002010B502680C4B9A42EC
:1009D00005D001220B490C4801F02EFC10BD0B4A3A
:1009E0008C204000135AD118C724A400A4466144A7
:1009F000044C24780C7001339B059B0D1352E8E7DF
:100A000000380140940E0020B4150020980E0020FC
:100A100030B595B02C22002109A801F09DFC1022D0
:100A2000002104A801F098FC10220021684601F082
:100A300093FC0224089401250B9510230C93109429
:100A4000A0239B03129308A800F0B2FB0723049392
:100A50000594002406940794012104A800F02CFEBC
:100A600000950294684600F0D5FE15B030BD10B573
:100A700000F00AFAFFF7CCFF00F05CF8FFF7DCFCAF
:100A8000FCE7000010B50A480A4B0360E1235B0253
:100A900043600023836080229201C26003610C22C4
:100AA00042618361C3610362436201F041FB10BD97
:100AB000B415002000380140F0B589B0142200219F
:100AC00003A801F049FC184B5969802080020143BA
:100AD00059615A6902400192019A5A6980210903B9
:100AE0000A435A615B690B400293029BC027BF0017
:100AF0000E4D00223900280000F054FB0126039619
:100B00000B4B049300240594902003A9C00500F02A
:100B100083FA039704960594069403A9280000F02D
:100B20007BFA09B0F0BDC046001002400008004842
:100B30000000121010B5FFF7BFFF034A1378012120
:100B40000B43137010BDC046980E002010B5FFF780
:100B500099FF01220849094801F06EFB084A137801
:100B600002210B431370074C2000FFF759FB2000B4
:100B70006C30FFF755FB10BD940E0020B41500201B
:100B8000980E0020140D002082B00A4B99690122B2
:100B90001143996199690A400092009ADA698021AB
:100BA00049050A43DA61DB690B400193019B02B0FE
:100BB0007047C0460010024010B588B004001422EF
:100BC000002103A801F0C8FB2268174B9A4201D00C
:100BD00008B010BD154B99698020C001014399618F
:100BE0009A6902400192019A5A69802189020A4356
:100BF0005A615B690B400293029BC023DB000393A5
:100C00000223049301330693023B0793902003A928
:100C1000C00500F001FA002200211B2000F056F967
:100C20001B2000F085F9D3E7003801400010024096
:100C30007047FEE77047704710B500F035F900F0D7
:100C40009FF910BD10B5024800F0A6FE10BDC046C9
:100C5000B415002070B5002A08D114000D5D9D4226
:100C60000FD0065DAE4210D10134F7E70023934266
:100C700005DACD5CC45CA54205D10133F7E701205C
:100C800070BD0120FCE70020FAE71000F8E7000043
:100C900010B503000B4A1268002A08D0094A1068F0
:100CA000C3186A46934206D8064A136010BD054A27
:100CB00005491160F2E701F01BFB0C2303600120E2
:100CC0004042F3E7800E00204816002070470000E5
:100CD000064B1B68002B07D0012000E001301B6988
:100CE000002BFBD1013070470120FCE738160020B3
:100CF000F8B507000F4B1C68142001F023FB051EFC
:100D000015D000264672FFF7E3FF286038602E6199
:100D1000084B1B68002B04D1064B1D60012007E027
:100D20001C002369002BFBD12561012000E000207D
:100D3000F8BDC0463816002070B504000E0015003E
:100D40000368002B0CD00E4B1B68002B16D01A68C2
:100D500021688A4209D01B69002BF8D100200CE0E1
:100D6000FFF7C6FF0028EED107E001225A720022E9
:100D7000DA609A725E601D72012070BD0020FCE78F
:100D800038160020084B1B68002B0BD01A688242D3
:100D900004D01B69002BF9D1002002E000225A7216
:100DA000012070470020FCE7381600200B4B1B6821
:100DB000002B10D01A68824204D01B69002BF9D195
:100DC000002070479A7A012A01D00020F9E700221A
:100DD0009A720120F5E70020F3E7C046381600209C
:100DE00010B5010000220548FFF7A6FF034B186865
:100DF000FFF7DCFF0028F9D010BDC046880E0020A8
:100E00000D4B1B68002B07D17047DA680132DA609E
:100E100005E01B69002BF7D05A7A012AF5D0DA6871
:100E200059688A42F5D301229A720022DA601A7A4E
:100E3000002AEED15A72ECE73816002010B50400F3
:100E40000F4B1978FA208000FFF75EF901000D4B77
:100E50001868FFF759F900F077F800280DD1032C36
:100E600001D901200AE0013000222100404200F0B7
:100E70002DF8034B5C60002000E0012010BDC0464F
:100E8000F00D0020EC0D002010B5064A136810216B
:100E90000B4313600020FFF7D1FFFFF775FE002022
:100EA00010BDC04600200240034A1168034B1B7866
:100EB0005B1813607047C0463C160020F00D002000
:100EC000014B18687047C0463C16002070B50028DA
:100ED00011DB8308144DC0339B005C590322104082
:100EE000C000FC3216008640B44389010A408240AB
:100EF00022435A5170BDC0B20F230340083B9B08E8
:100F000006339B00094A944663445D6803242040ED
:100F1000C000FF2214008440A54389011140814094
:100F200029435960E6E7C04600E100E000ED00E03B
:100F3000002805DB1F2318401E3B8340014A136035
:100F40007047C04600E100E001380A4B98420FD8D4
:100F5000094A50600948036A1B021B0AC02109069E
:100F60000B43036200239360073313600020704734
:100F70000120FCE7FFFFFF0010E000E000ED00E0D3
:100F800010B5FFF73DFF10BD10B52123C35C022B48
:100F900006D0042383631C330022C254012010BDF9
:100FA000026813680E218B43136001680A680123ED
:100FB0009A430A60C26B1900046CA140516021225F
:100FC00083541F330022C2540020E8E710B52123C8
:100FD000C35C022B03D004238363012010BD02688D
:100FE00013680E218B43136001680A6801239A433A
:100FF0000A60C26B1900046CA14051602122835425
:101000001F330022C254436B002B02D098470020AC
:10101000E4E70020E2E70000F0B5CE46474680B5A1
:1010200083B0002333E0032600E00026AE40350005
:101030003D430234A400554EA551554C2568D44378
:101040002E0026404F68FF0301D515432E00504D5A
:101050002E606D682E0026404F68BF0301D51543F2
:101060002E004B4D6E60AD682E0026404F68FF028B
:1010700001D515432E00464DAE60ED682C404E68FC
:10108000B60201D52A431400414AD46001330A68EC
:101090001400DC4074D001249C402240F6D04D68FE
:1010A0006E1E012E03D9112D01D0122D12D185688B
:1010B0005F000326BE40B5432E00CD68BD403543DA
:1010C00085604568A5434C682609012434409C404E
:1010D0002C434460C7685E000324B440E443A44644
:1010E00027408D68B5403D43C5604C68022C01D057
:1010F000122C10D1DC080834A400A146275807257B
:101100001D40AD000F24AC40A7430C69AC40250046
:101110003D434C46255005686446254003244F68EE
:101120003C40B4402C4304604C68E400AED5194DFB
:10113000AE6901242643AE61AD692C400194019C47
:101140009C08A51CAD00114EAF5903251D40AD00F4
:101150000F26AE40B7439026F605B04200D164E7B3
:101160000D4EB04208D00D4EB04207D00C4EB042EA
:1011700000D158E7052659E7012657E7022655E72B
:1011800003B00CBC90469946F0BDC046000001403B
:10119000000401400010024000040048000800481C
:1011A000000C0048002A01D1816270478161FCE790
:1011B00070B582B0041E00D132E20368DB0726D589
:1011C000AE4B5A680C231340042B18D0AB4B5A6813
:1011D0000C231340082B0ED06368012B3CD0002B4E
:1011E00051D1A64B1A68A6490A401A601A68A54947
:1011F0000A401A6036E0A14B5B68DB03ECD59F4BDD
:101200001B689B0303D56368002B00D10BE22368A6
:101210009B0773D5994B5B680C221A425DD0974BA4
:101220005A680C231340082B53D0E368002B00D1DD
:1012300086E0924A136801210B431360FFF740FEDA
:1012400005008E4B1B689B0771D4FFF739FE401BCE
:101250000228F6D90320E4E1884A116880235B0262
:101260000B4313606368002B25D0FFF729FE0500B0
:10127000824B1B689B03CAD4FFF722FE401B6428E5
:10128000F6D90320CDE1052B09D07C4B1A687C49A7
:101290000A401A601A687B490A401A60E2E7774BF5
:1012A00019688022D2020A431A6019688022520209
:1012B0000A431A60D6E7FFF703FE05006F4B1B6871
:1012C0009B03A4D5FFF7FCFD401B6428F6D903203F
:1012D000A7E16A4B5B68DB03A7D4684B1B689B07DD
:1012E00004D5E368012B01D001209AE163490B6822
:1012F000F82293432269D20013430B6023681B0733
:1013000044D5E369002B2ED05C4A536A01210B437C
:101310005362FFF7D5FD0500584B5B6A9B0735D438
:10132000FFF7CEFD401B0228F6D9032079E153498F
:101330000B68F82293432269D20013430B60DDE768
:101340004E4A136801218B431360FFF7B9FD050076
:101350004A4B1B689B07D1D5FFF7B2FD401B022803
:10136000F6D903205DE1454A536A01218B4353625C
:10137000FFF7A6FD0500414B5B6A9B0706D5FFF70B
:101380009FFD401B0228F6D903204AE123685B0732
:1013900000D47FE0394BDB69DB001DD4374AD169CB
:1013A000802040050143D161D36903400193019B33
:1013B0000125354B1B68DB0510D5A368012B21D017
:1013C000002B36D12D4B1A6A01218A431A621A6A00
:1013D00003318A431A621AE00025EAE72A4A1168B3
:1013E00080235B000B431360FFF76AFD0600264B6A
:1013F0001B68DB05E1D4FFF763FD801B6428F6D989
:1014000003200EE11D4A136A01210B431362A368F6
:10141000002B24D0FFF754FD0600184B1B6A9B07D6
:1014200036D4FFF74DFD801B184B9842F5D90320A9
:10143000F7E0052B09D0114B1A6A01218A431A6281
:101440001A6A03318A431A62E1E70C4B1A6A0421D3
:101450000A431A621A6A03390A431A62D7E7FFF786
:101460002FFD0600054B1B6A9B0711D5FFF728FDD2
:10147000801B064B9842F5D90320D2E000100240B1
:10148000FFFFFEFFFFFFFBFF00700040881300001E
:10149000012D33D02368DB0610D56369012B33D0CF
:1014A000053351D1644A536B04218B435363536B0F
:1014B000F4318B43A169C9000B435363236A002BAA
:1014C00000D1B2E05C4A51680C220A40082A00D1DF
:1014D0008AE0022B4FD0584A136858490B401360DA
:1014E000FFF7EEFC0400544B1B689B017AD5FFF715
:1014F000E7FC001B0228F6D9032092E04E4AD3698C
:101500004F490B40D361C5E74B4B5A6B04210A434B
:101510005A635A6B03390A435A63FFF7D1FC05003B
:10152000454B5B6B9B0706D4FFF7CAFC401B0228A8
:10153000F6D9032075E040494B6BF8229343A2692A
:10154000D20013434B63B9E73B4B5A6B04210A4368
:101550005A635A6B03398A435A63FFF7B1FC05009B
:10156000354B5B6B9B07A9D5FFF7AAFC401B0228F4
:10157000F6D9032055E0304A136830490B40136018
:10158000FFF79EFC05002C4B1B689B0106D5FFF75F
:1015900097FC401B0228F6D9032042E0264BDA6A6A
:1015A0000F218A43E16A0A43DA625A6825490A40F0
:1015B000A16A606A01430A435A6019688022520492
:1015C0000A431A60FFF77CFC04001B4B1B689B015D
:1015D00006D4FFF775FC001B0228F6D9032020E093
:1015E00000201EE000201CE0012B20D0124B5A6886
:1015F000D96A80235B021340606A834201D00120D4
:101600000FE00F230B40E16A8B4201D0012008E07C
:10161000F0239B031A40A36A9A420AD0012000E0FB
:10162000012002B070BD0120FBE70020F9E7012096
:10163000F7E70020F5E7C04600100240FFFFFFFE7D
:10164000FFFFFFEFFFFFC2FF30B589B004AA174BC1
:10165000180032C832C2110002680A606A461033AC
:1016600013CB13C21B681360114B5A680C23134031
:10167000082B19D1910C0733194004A8445C0C497C
:10168000C96A0B406946C95CD30308D463011B1BBC
:101690009801C01AC0000419200209B030BD0548E5
:1016A000FEF732FD6043F8E70248F6E7A824000899
:1016B0000010024000127A0070B504000D000028EE
:1016C00000D181E0424B1A68012313408B420BD2B8
:1016D0003F490B68012293432B430B600B681A4070
:1016E000AA4201D0012070E023689A070ED55B075B
:1016F00005D5384A5168E023DB000B435360354A77
:101700005368F0218B43A1680B4353602368DB07C8
:101710002DD56368012B1ED0022B22D02D4A1268D2
:10172000920753D52B494A680320824313434B60E9
:10173000FFF7C6FB0600274B5B680C221A40636864
:101740009B009A4213D0FFF7BBFB801B224B9842B1
:10175000F1D9032039E01F4A12689203E2D4012034
:1017600033E01C4A12689201DCD401202DE0184BB2
:101770001A6801231340AB420BD915490B680122AB
:1017800093432B430B600B681A40AA4201D00120FF
:101790001BE023685B0706D50E4A53680F490B40D0
:1017A000E1680B435360FFF74FFF0A4B5A68120979
:1017B0000F2313400A4AD35CD8400A4B186000201C
:1017C000FFF73CFB002000E0012070BD0120FCE79A
:1017D000002002400010024088130000FFF8FFFFC5
:1017E00090240008EC0D0020014B18687047C0469B
:1017F000EC0D002010B5FFF7F7FF044B5A68120AF2
:1018000007231340024AD35CD84010BD00100240A9
:10181000A024000870B582B004000368DB0335D54E
:101820003C4BDB69DB0048D43A4AD1698020400553
:101830000143D161D36903400193019B0125364BDC
:101840001B68DB053BD5334B1B6AC022920013405B
:1018500013D061680A409A420FD02E4B186A2F4A63
:1018600002401E6A8021490231431962196A2C4ED6
:10187000314019621A62C30735D4264A136A2749D0
:101880000B4061680B431362012D3BD02368DB07DB
:1018900006D5204A136B03218B43A1680B431363C6
:1018A00023689B0633D51B4A136B10218B43E168D9
:1018B0000B431363002002B070BD0025BFE7164A3A
:1018C000116880235B000B431360FFF7F9FA0600F1
:1018D000114B1B68DB05B6D4FFF7F2FA801B6428B6
:1018E000F6D90320E7E7FFF7EBFA0600094B1B6A7E
:1018F0009B07C2D4FFF7E4FA801B0A4B9842F5D944
:101900000320D8E7D36908490B40D361BEE7002024
:10191000D1E7C0460010024000700040FFFCFFFF0E
:10192000FFFFFEFF88130000FFFFFFEF0268136850
:101930000B490B401360026893682331FF318B43DE
:101940009360036E012B05D02023C3670023036639
:1019500043667047026813680F318B431360F3E7E7
:10196000DFFEFFFF704710B50268136840218B430C
:1019700013602023836700238366FFF7F3FF10BD06
:10198000704710B5406A00235A228352083A8352A6
:10199000FFF7F6FF10BD704770B504000168CB6912
:1019A00008688D68854A1A400AD19E0608D58606C1
:1019B00006D5636E002B00D1FAE020009847F7E0CF
:1019C000002A00D181E001222A4002D17C4D284228
:1019D0007BD0DD0707D5C50505D501260E6280251C
:1019E000615931436151990709D5002A07D021680F
:1019F00002250D627E356159042631436151590734
:101A000009D5002A07D0216804250D627C3561596B
:101A100002263143615119070AD5810601D4002AF3
:101A200006D0226808251562802162582A43625038
:101A30001A050AD5420108D52268802109011162E0
:101A40008021625820252A4362508022A258002A11
:101A500000D1ADE09B0606D5830604D5636E002B4E
:101A600001D0200098478023E25823689B685B06DA
:101A700002D42823134221D02000FFF757FF236808
:101A80009A68520616D59A6840218A439A60236F55
:101A9000002B0BD04B4A5A63206FFFF797FA0028B0
:101AA00000D185E0206F436B984781E02000FFF76D
:101AB00067FF7DE02000FFF763FF79E02000FFF77C
:101AC0005FFF80230022E25072E0226E012A09D0DB
:101AD0001A0669D5020667D5A36E002B68D02000D0
:101AE000984765E0DA06F3D5C206F1D510230B62FC
:101AF000226893685B0633D5216F0B685B689BB2E5
:101B0000002B55D05820205A984251D95A202352A0
:101B10008B69202B1AD013682B490B401360226865
:101B200093680331FF318B439360226893683F31A0
:101B30008B4393602023E3670023236622681368A6
:101B400030398B431360206FFFF71EFA5823E15A98
:101B50000233E35AC91A89B22000FFF71CFF27E0BD
:101B60005823E15A0233E05A091A89B2E35A9BB268
:101B7000002B1DD000291BD01368144803401360AC
:101B8000226893682330FF30834393602023E36708
:101B9000002323666366226813680F308343136053
:101BA0002000FFF7F8FE03E05B0601D5430600D4F2
:101BB00070BD2000FFF7D7FEFAE7C0460F0800000F
:101BC0002001000483190008FFFEFFFFDFFEFFFF76
:101BD00010B504005C23C35AC26F222A05D00268E4
:101BE000936908210B43936110BD0268928CDBB2AC
:101BF0001340426D1370436D013343655A22835A7B
:101C0000013B9BB28352835A9BB2002BECD10268FA
:101C100013680F490B401360026893682331FF314A
:101C20008B4393602023C36700234366036E012B1D
:101C300004D0FEF7C9FE00232366D5E702681368C7
:101C40000F318B4313605823C15AFFF7A4FEF2E70C
:101C5000DFFEFFFF10B504005C23C25AC36F222BC6
:101C600005D00268936908210B43936110BD036896
:101C70009B8C1340426D1380436D023343655A229F
:101C8000835A013B9BB28352835A9BB2002BEDD106
:101C9000026813680F490B40136002689368233190
:101CA000FF318B4393602023C36700234366036E99
:101CB000012B04D0FEF788FE00232366D6E70268D6
:101CC00013680F318B4313605823C15AFFF763FE2B
:101CD000F2E7C046DFFEFFFF10B50400836802692B
:101CE000134342691343C269134301680A684F48AA
:101CF000024013430B60226853684D490B40E16872
:101D00000B435360226AA3691A4321688B684948D0
:101D1000034013438B602368474A934214D0474AD9
:101D2000934225D0102380221202E169914223D0F0
:101D3000022B00D169E04ED9042B68D0082B00D0CB
:101D40006EE0802000024CE03D4B1A6B03231340F1
:101D5000012B09D0002B05D0022B07D0032B09D073
:101D60001023E0E70023DEE70423DCE70823DAE7BB
:101D70000023D8E70223D6E7022B2AD006D9042B6A
:101D800024D0082B46D18020000205E0002B41D151
:101D9000FFF730FD00283FD0400063685B08C018A3
:101DA0006168FEF7B1F983B20004000C010010393C
:101DB000244A914232D80F2293431A004008072345
:101DC000184010432368D86000201AE0FFF73CFC5D
:101DD000E0E71D48E0E7002B22D1FFF70BFD0028CC
:101DE00020D063685B0818186168FEF78DF900045D
:101DF000000C0200103A134B9A4215D82368D860A1
:101E0000002000236366A36610BD0F48E9E7FFF7D3
:101E10001BFCE4E70120F4E70020F2E70120F0E7F3
:101E20000120EEE70020ECE70120EAE7F369FFFF7D
:101E3000FFCFFFFFFFF4FFFF0038014000440040E8
:101E400000100240EFFF000000127A00436ADB0737
:101E500006D5026853682C490B40816A0B435360D6
:101E6000436A9B0706D50268536828490B40C16A3C
:101E70000B435360436A5B0706D5026853682449E5
:101E80000B40016B0B435360436A1B0706D5026886
:101E9000536820490B40416B0B435360436ADB0698
:101EA00006D5026893681C490B40816B0B43936015
:101EB000436A9B0606D50268936818490B40C16BBC
:101EC0000B439360436A5B060BD502685368144961
:101ED0000B40016C0B43536080235B03026C9A42FE
:101EE0000AD0436A1B0606D5026853680D490B40A9
:101EF000816C0B4353607047026853680A490B407A
:101F0000416C0B435360ECE7FFFFFDFFFFFFFEFF5B
:101F1000FFFFFBFFFF7FFFFFFFEFFFFFFFDFFFFF85
:101F2000FFFFEFFFFFFFF7FFFFFF9FFFF0B5C64684
:101F300000B505000C0017009846069E2B68DB696B
:101F400023401B1B5A425341BB423BD1731CF5D06B
:101F5000FEF7B6FF4346C01AB04220D8002E1ED06E
:101F60002B681A685207E9D5DA691205E6D580228E
:101F700012011A622A68136814490B4013602A6818
:101F80009368A331FF318B4393602023AB67EB67EA
:101F90008022AB5054330022EA54032013E02A6815
:101FA00013680A490B4013602A689368A331FF3114
:101FB0008B4393602023AB67EB6754330022EA54D2
:101FC000032000E0002004BC9046F0BD5FFEFFFF50
:101FD000F0B585B004000E0017001D00836F202BA4
:101FE00060D1002961D0002A61D080235B01826822
:101FF0009A421CD07423E35C012B5AD07423012233
:10200000E2540C330022E2505F3BA367FEF758FF17
:1020100003905023E7520233E75280235B01A2680A
:102020009A420BD0002774230022E25419E003697E
:10203000002BDFD1CB07DDD5012034E02369002B55
:1020400001D00027EFE737000026ECE73B88DB05EF
:10205000DB0D2268138502375222A35A013B9BB243
:10206000A3525223E35A9BB2002B0FD00095039B3F
:10207000002280212000FFF759FF00281BD1002EED
:10208000E4D03378226813850136E5E70095039B99
:10209000002240212000FFF749FF00280DD1202316
:1020A000A36700E0022005B0F0BD0120FBE701209E
:1020B000F9E70220F7E70320F5E70320F3E7000044
:1020C00030B583B0040080230022C250FEF7F8FE32
:1020D000050023681B681B070DD423681B685B077A
:1020E00016D42023A367E367002323667422A35436
:1020F000002003B030BD80210C4B00930300002270
:1021000089032000FFF712FF0028E6D00320F0E744
:102110008021064B00932B000022C9032000FFF70B
:1021200005FF0028DDD00320E3E7C046FFFFFF01E5
:1021300010B5041E2ED0836F002B21D02423A3675B
:102140002268136801218B4313602000FFF7C4FD50
:10215000012814D0636A002B18D1226853680E49F5
:102160000B4053602268936808218B439360226878
:10217000136807390B4313602000FFF7A1FF10BD60
:1021800074330022C254FEF717FDD7E72000FFF793
:102190005DFEE2E70120F2E7FFF7FFFF416558230C
:1021A000C2520233C2520023436683688022520126
:1021B000934208D0002B15D10369002B0ED15C335C
:1021C000FF22C25211E00369002B03D15C33174A8E
:1021D000C2520AE05C23FF22C25206E05C237F2247
:1021E000C25202E05C230022C25280230022C2506D
:1021F0005E3BC3670268936801210B4393608023B1
:102200005B0182689A420BD0094B4366742300221B
:10221000C25402681168AC330B431360002070474E
:102220000369002BF0D1034B4366EFE7FF01000089
:10223000D11B0008551C000870B5C36F202B24D19A
:10224000002924D0002A24D080235B0184689C428A
:1022500014D07423C35C012B1DD074230124C454F7
:102260000023036603685C68240204D51D6880248B
:10227000E4042C431C60FFF791FF07E00369002B87
:10228000E7D1CB07E5D5012000E0022070BD012099
:10229000FCE70120FAE70220F8E700000D48854638
:1022A0000D480E490E4A002302E0D458C4500433AE
:1022B000C4188C42F9D30B4A0B4C002301E0136085
:1022C0000432A242FBD3FEF701FD00F017F8FEF73F
:1022D000CEFBFEE700200020000000205C0E002066
:1022E000202500085C0E002044160020FEE70000B8
:1022F000014B18687047C046F80D002070B50026E5
:102300000C4D0D4C641BA410A64209D1002600F010
:102310009DF80A4D0A4C641BA410A64205D170BD5D
:10232000B300EB5898470136EEE7B300EB589847F7
:102330000136F2E7182500081825000818250008BE
:102340001C25000810B5034B0100186800F00CF8BC
:1023500010BDC046F80D002003001218934200D1B2
:10236000704719700133F9E7032370B5CD1C9D4305
:10237000083506000C2D1ED20C25A9421DD83000B0
:1023800000F062F8254A14682100002919D1244C74
:102390002368002B03D1300000F044F820602900AE
:1023A000300000F03FF8431C2BD10C233000336089
:1023B00000F04BF803E0002DDFDA0C23336000203F
:1023C00070BD0B685B1B19D40B2B03D90B60CC18A9
:1023D000256003E04B688C420DD11360300000F0A3
:1023E00034F8200007220B30231D9043C31AE7D096
:1023F0005A42E250E4E763600C00EFE70C004968E2
:10240000C3E70323C41C9C43A042E1D0211A30003F
:1024100000F008F8431CDBD1C7E7C0468C0E002053
:10242000900E0020002370B5064C050008002360C4
:10243000FEF72EFC431C03D12368002B00D02B6039
:1024400070BDC0464016002070477047F8B5C046C2
:10245000F8BC08BC9E467047F8B5C046F8BC08BC3E
:042460009E467047DD
:102464004E04000892040008CA040008BC060008D0
:10247400C6060008FC080008E60400082205000857
:102484008A050008EA05000852060008000000005A
:102494000000000001020304060708090000000010
:1024A4000102030402030405060708090A0B0C0DC4
:1024B4000E0F10100102030405060708090A0B0C8D
:1024C4000D0E0F100D0A5245435646524F4D3A31E8
:1024D400332E3132362E3136352E343A34303030D4
:1024E4000D0A2B49504400005354582C48454C4C79
:1024F4004F2044532047524F55502053454E4420BB
:10250400444154412046524F4D2053544D33322CB4
:0425140045545800D2
:04251800E9000008CE
:04251C00C1000008F2
:1025200041542B434943434944000000000000004C
:10253000000000000000000000000000000000009B
:1025400000000000000000000D0A2B434349443AFC
:10255000200000000000000000000000000000005B
:10256000000000000000000000000000000000006B
:102570000D0A2B434D45204552524F52000000009A
:10258000000000000000000D0A00F40141542B433C
:10259000494D49000000000000000000000000005C
:1025A000000000000000000000000000000000002B
:1025B000000000000D0A4F4B0D0A00000000000053
:1025C000000000000000000000000000000000000B
:1025D0000000000000000000000000000D0A2B4376
:1025E0004D45204552524F520000000000000000AF
:1025F0000000000D0A00F40141542B4347534E00E4
:1026000000000000000000000000000000000000CA
:1026100000000000000000000000000000000000BA
:102620000D0A4F4B0D0A00000000000000000000E2
:10263000000000000000000000000000000000009A
:1026400000000000000000000D0A2B434D4520450E
:1026500052524F5200000000000000000000000D28
:102660000A00F40141542B4350494E3F0000000042
:10267000000000000000000000000000000000005A
:10268000000000000000000000000000524541442E
:1026900059000000000000000000000000000000E1
:1026A000000000000000000000000000000000002A
:1026B000000000000D0A2B434D45204552524F5259
:1026C00000000000000000000000000D0A00F401FE
:1026D00041542B435245473F0000000000000000DA
:1026E00000000000000000000000000000000000EA
:1026F00000000000000000000D0A2B435245473A3D
:1027000020312C310000000000000000000000001B
:1027100000000000000000000000000000000000B9
:102720000D0A2B434D45204552524F5200000000E8
:10273000000000000000000D0A00F40141542B438A
:1027400053510000000000000000000000000000E5
:102750000000000000000000000000000000000079
:10276000000000000D0A2B4353513A2000000000E6
:102770000000000000000000000000000000000059
:102780000000000000000000000000000D0A2B43C4
:102790004D45204552524F520000000000000000FD
:1027A0000000000D0A00F40141542B435245473DFF
:1027B00031000000000000000000000000000000E8
:1027C0000000000000000000000000000000000009
:1027D0000D0A4F4B0D0A0000000000000000000031
:1027E00000000000000000000000000000000000E9
:1027F00000000000000000000D0A2B434D4520455D
:1028000052524F5200000000000000000000000D76
:102810000A00F40141542B43475245473D31000023
:1028200000000000000000000000000000000000A8
:102830000000000000000000000000000D0A4F4BE7
:102840000D0A000000000000000000000000000071
:102850000000000000000000000000000000000078
:10286000000000000D0A2B434D45204552524F52A7
:1028700000000000000000000000000D0A00F4014C
:1028800041542B43475245473F00000000000000E1
:102890000000000000000000000000000000000038
:1028A00000000000000000000D0A2B43475245477E
:1028B0003A20312C31000000000000000000000030
:1028C0000000000000000000000000000000000008
:1028D0000D0A2B434D45204552524F520000000037
:1028E000000000000000000D0A00F40141542B43D9
:1028F000474154543D31000000000000000000003A
:1029000000000000000000000000000000000000C7
:10291000000000000D0A4F4B0D0A000000000000EF
:1029200000000000000000000000000000000000A7
:102930000000000000000000000000000D0A2B4312
:102940004D45204552524F5200000000000000004B
:102950000000000D0A00F40141542B434741545438
:102960003F00000000000000000000000000000028
:102970000000000000000000000000000000000057
:102980000D0A2B43474154543A0000000000000058
:102990000000000000000000000000000000000037
:1029A00000000000000000000D0A2B434D452045AB
:1029B00052524F5200000000000000000000000DC5
:1029C0000A00F40141542B43474154543D30000068
:1029D00000000000000000000000000000000000F7
:1029E0000000000000000000000000000D0A4F4B36
:1029F0000D0A0000000000000000000000000000C0
:102A000000000000000000000000000000000000C6
:102A1000000000000D0A2B434D45204552524F52F5
:102A200000000000000000000000000D0A00F4019A
:102A300041542B434744434F4E543D312C2249507F
:102A4000222C2261697274656C677072732E636FD9
:102A50006D220000000000000D0A4F4B0D0A00001F
:102A60000000000000000000000000000000000066
:102A70000000000000000000000000000000000056
:102A80000D0A2B434D45204552524F520000000085
:102A9000000000000000000D0A00F40141542B4327
:102AA0004744434F4E543F00000000000000000028
:102AB0000000000000000000000000000000000016
:102AC000000000000D0A2B434744434F4E543A2068
:102AD000312C2249502200000000000000000000BC
:102AE0000000000000000000000000000D0A2B4361
:102AF0004D45204552524F5200000000000000009A
:102B00000000000D0A00F40141542B434741435497
:102B10003D312C31000000000000000000000000EA
:102B200000000000000000000000000000000000A5
:102B30000D0A4F4B0D0A00000000000000000000CD
:102B40000000000000000000000000000000000085
:102B500000000000000000000D0A2B434D452045F9
:102B600052524F5200000000000000000000000D13
:102B70000A00F40141542B43474143543F000000F5
:102B80000000000000000000000000000000000045
:102B90000000000000000000000000000D0A2B43B0
:102BA000474143543A20312C31000000000000001E
:102BB0000000000000000000000000000000000015
:102BC000000000000D0A2B434D45204552524F5244
:102BD00000000000000000000000000D0A00F401E9
:102BE00041542B43474143543D302C3100000000F9
:102BF00000000000000000000000000000000000D5
:102C000000000000000000000D0A4F4B0D0A0000FC
:102C100000000000000000000000000000000000B4
:102C200000000000000000000000000000000000A4
:102C30000D0A2B434D45204552524F5200000000D3
:102C4000000000000000000D0A00F40141542B4375
:102C500049504D4F44453D30000000000000000049
:102C60000000000000000000000000000000000064
:102C7000000000000D0A4F4B0D0A0000000000008C
:102C80000000000000000000000000000000000044
:102C90000000000000000000000000000D0A2B43AF
:102CA0004D45204552524F520000000000000000E8
:102CB0000000000D0A00F40141542B4349504D4FD0
:102CC00044453F000000000000000000000000003C
:102CD00000000000000000000000000000000000F4
:102CE0000D0A2B4349504D4F44453A203000000017
:102CF00000000000000000000000000000000000D4
:102D000000000000000000000D0A2B434D45204547
:102D100052524F5200000000000000000000000D61
:102D20000A00F40141542B4E45544F50454E0000CB
:102D30000000000000000000000000000000000093
:102D40000000000000000000000000000D0A4F4BD2
:102D50000D0A00000000000000000000000000005C
:102D60000000000000000000000000000000000063
:102D7000000000000D0A2B434D45204552524F5292
:102D800000000000000000000000000D0A00881391
:102D900041542B434950434C4F53453D30000000B4
:102DA0000000000000000000000000000000000023
:102DB00000000000000000000D0A4F4B0D0A0D0A34
:102DC0002B434950434C4F53453A203000000000FC
:102DD00000000000000000000000000000000000F3
:102DE0000D0A2B434D45204552524F520000000022
:102DF000000000000000000D0A00F40141542B4EB9
:102E00004554434C4F5345000000000000000000B3
:102E100000000000000000000000000000000000B2
:102E2000000000000D0A4F4B0D0A0D0A2B4E4554B1
:102E3000434C4F53453A300D0000000000000000A5
:102E40000000000000000000000000000D0A2B43FD
:102E50004D45204552524F52000000000000000036
:102E60000000000D0A00F40141542B434950525810
:102E70004745543D30000000000000000000000005
:102E80000000000000000000000000000000000042
:102E90000D0A4F4B0D0A000000000000000000006A
:102EA0000000000000000000000000000000000022
:102EB00000000000000000000D0A2B434D45204596
:102EC00052524F5200000000000000000000000DB0
:102ED0000A00F40141542B4349504F50454E3D30B8
:102EE0002C22544350222C2231332E3132362E31B3
:102EF00036352E34222C3430303000000D0A4F4B42
:102F00000D0A0D0A2B4349504F50454E3A00000020
:102F100000000000000000000000000000000000B1
:102F2000000000000D0A2B434D45204552524F52E0
:102F300000000000000000000000000D0A008813DF
:102F400041542B43495053454E443D302C00000022
:102F50000000000000000000000000000000000071
:102F600000000000000000000D0A4F4B0D0A2B432B
:102F7000495053454E443A00000000000D0A3E00FF
:102F80000000000000000000000000000000000041
:102F90000D0A2B434D45204552524F520000000070
:102FA000000000000000000D0A00881341542B436C
:102FB0004F50533F000000000000000000000000E0
:102FC0000000000000000000000000000000000001
:102FD000000000000D0A2B434F50533A0000000040
:102FE00000000000000000000000000000000000E1
:102FF0000000000000000000000000000D0A2B434C
:103000004D45204552524F52000000000000000084
:103010000000000D0A00F40141542B43434C4B3F88
:1030200000000000000000000000000000000000A0
:103030000000000000000000000000000000000090
:103040000D0A2B43434C4B3A2000000000000000C7
:103050000000000000000000000000000000000070
:1030600000000000000000000D0A2B434D452045E4
:1030700052524F5200000000000000000000000DFE
:103080000A00F40141542B435245534554000000BB
:103090000000000000000000000000000000000030
:1030A0000000000000000000000000000D0A4F4B6F
:1030B0000D0A0000000000000000000000000000F9
:1030C0000000000000000000000000000000000000
:1030D000000000000D0A2B434D45204552524F522F
:1030E00000000000000000000000000D0A00F401D4
:1030F00041545630000000000000000000000000B5
:1031000000000000000000000000000000000000BF
:103110000000000000000000300D00000000000072
:10312000000000000000000000000000000000009F
:10313000000000000000000000000000000000008F
:103140000D0A2B434D45204552524F5200000000BE
:10315000000000000000000D0A00F4014154563147
:10316000000000000000000000000000000000005F
:10317000000000000000000000000000000000004F
:10318000000000000D0A4F4B0D0A00000000000077
:10319000000000000000000000000000000000002F
:1031A0000000000000000000000000000D0A2B439A
:1031B0004D45204552524F520000000000000000D3
:1031C0000000000D0A00F4014154453000000000E9
:1031D00000000000000000000000000000000000EF
:1031E00000000000000000000000000000000000DF
:1031F0000D0A4F4B0D0A0000000000000000000007
:1032000000000000000000000000000000000000BE
:1032100000000000000000000D0A2B434D45204532
:1032200052524F5200000000000000000000000D4C
:103230000A00F40141545631000000000000000073
:10324000000000000000000000000000000000007E
:103250000000000000000000000000000D0A4F4BBD
:103260000D0A000000000000000000000000000047
:10327000000000000000000000000000000000004E
:10328000000000000D0A2B434D45204552524F527D
:1032900000000000000000000000000D0A00F40122
:1032A0004154453000000000000000000000000014
:1032B000000000000000000000000000000000000E
:1032C00000000000000000000D0A4F4B0D0A000036
:1032D00000000000000000000000000000000000EE
:1032E00000000000000000000000000000000000DE
:1032F0000D0A2B434D45204552524F52000000000D
:10330000000000000000000D0A00F40100127A0025
:103310000100000004000000FC0D0020000000007F
:10332000000000000000000000000000000000009D
:10333000000000000000000000000000000000008D
:10334000000000000000000000000000000000007D
:10335000000000000000000000000000000000006D
:10336000000000000000000000000000000000005D
:0C33700000000000000000000000000051
:040000050800229D30
:00000001FF
