:020000040800F2
:10000000002000206D320008091800080B180008B5
:1000100000000000000000000000000000000000E0
:100020000000000000000000000000000D180008A3
:1000300000000000000000000F1800081118000860
:10004000BD32000800000000BD320008BD320008CB
:10005000BD320008BD320008BD320008BD320008C4
:1000600000000000BD320008BD320008BD320008AB
:10007000BD320008BD320008BD320008000000009B
:10008000BD320008BD32000800000000BD3200088B
:10009000BD320008BD320008BD320008BD32000884
:1000A000BD320008BD320008BD3200081D1800082E
:1000B000BD32000800000000000000000000000049
:1000C00010B5064C2378002B07D1054B002B02D02E
:1000D000044800E000BF0123237010BD5C0E002027
:1000E0000000000030340008044B10B5002B03D092
:1000F0000349044800E000BF10BDC04600000000F6
:10010000600E002030340008002243088B4274D374
:1001100003098B425FD3030A8B4244D3030B8B4208
:1001200028D3030C8B420DD3FF22090212BA030C11
:100130008B4202D31212090265D0030B8B4219D3F2
:1001400000E0090AC30B8B4201D3CB03C01A524112
:10015000830B8B4201D38B03C01A5241430B8B425A
:1001600001D34B03C01A5241030B8B4201D30B0343
:10017000C01A5241C30A8B4201D3CB02C01A52416A
:10018000830A8B4201D38B02C01A5241430A8B422D
:1001900001D34B02C01A5241030A8B4201D30B0216
:1001A000C01A5241CDD2C3098B4201D3CB01C01A30
:1001B000524183098B4201D38B01C01A524143093A
:1001C0008B4201D34B01C01A524103098B4201D328
:1001D0000B01C01A5241C3088B4201D3CB00C01A95
:1001E000524183088B4201D38B00C01A524143080D
:1001F0008B4201D34B00C01A5241411A00D2014632
:10020000524110467047FFE701B5002000F0F0F8BA
:1002100002BDC0460029F7D076E7704703460B437E
:100220007FD4002243088B4274D303098B425FD3EF
:10023000030A8B4244D3030B8B4228D3030C8B421B
:100240000DD3FF22090212BA030C8B4202D3121201
:10025000090265D0030B8B4219D300E0090AC30BD6
:100260008B4201D3CB03C01A5241830B8B4201D383
:100270008B03C01A5241430B8B4201D34B03C01A6C
:100280005241030B8B4201D30B03C01A5241C30AE4
:100290008B4201D3CB02C01A5241830A8B4201D355
:1002A0008B02C01A5241430A8B4201D34B02C01A3F
:1002B0005241030A8B4201D30B02C01A5241CDD2E4
:1002C000C3098B4201D3CB01C01A524183098B422F
:1002D00001D38B01C01A524143098B4201D34B0118
:1002E000C01A524103098B4201D30B01C01A52417B
:1002F000C3088B4201D3CB00C01A524183088B4202
:1003000001D38B00C01A524143088B4201D34B00EA
:10031000C01A5241411A00D201465241104670475C
:100320005DE0CA0F00D04942031000D34042534061
:1003300000229C4603098B422DD3030A8B4212D321
:10034000FC22890112BA030A8B420CD38901921153
:100350008B4208D3890192118B4204D389013AD090
:10036000921100E08909C3098B4201D3CB01C01A65
:10037000524183098B4201D38B01C01A5241430978
:100380008B4201D34B01C01A524103098B4201D366
:100390000B01C01A5241C3088B4201D3CB00C01AD3
:1003A000524183088B4201D38B00C01A5241D9D2EB
:1003B00043088B4201D34B00C01A5241411A00D26C
:1003C0000146634652415B10104601D34042002B68
:1003D00000D54942704763465B1000D3404201B5E7
:1003E000002000F005F802BD0029F8D016E770479C
:1003F0007047C0468446081C6146FFE71FB500F001
:10040000C1F8002801D40021C8421FBD10B500F07A
:1004100043F84042013010BD10B500F0B3F8002899
:1004200001DB002010BD012010BDC04610B500F05A
:10043000A9F8002801DD002010BD012010BDC04634
:1004400010B500F051F8002801DC002010BD01209B
:1004500010BDC04610B500F047F8002801DA0020B2
:1004600010BD012010BDC0469E2110B5C905041C59
:10047000FFF7F0FF002803D1201C00F0C9FB10BDDE
:100480009E21201CC90500F0FFF900F0C1FB80236C
:100490001B069C466044F2E770B542004E024C00D9
:1004A00045026D0A120EC30F760A240EC90FFF2AE9
:1004B0000FD0FF2C11D00120A24200D070BDB54258
:1004C000FCD18B420DD0002AF8D12800451EA8414E
:1004D000F4E70120002DF1D1EBE70120002EEDD152
:1004E000E9E70020EAE7C04670B54A004E0245023F
:1004F00044006D0A240EC30F760A120EC90FFF2C9A
:1005000015D0FF2A0ED0002C15D1002A01D1002EC3
:100510001CD0002D14D08B4227D00220013B184064
:10052000013870BD002EEED002204042F9E7002DC8
:10053000FAD1FF2A0ED0002A0ED1002EEDD00BE00A
:1005400001230139994308000130EAE70020002D1A
:10055000E7D0E2E7002EE7D18B42DED1944205DD01
:100560000221581E08400138DBE70024A24204DCC7
:10057000B542D2D80020B542D3D2581E01239843A9
:100580000130CEE730B5420044024D02C30F4800AF
:10059000640A120E6D0A000EC90FFF2A12D0FF283E
:1005A0000CD0002A12D1002819D1002D17D1002C0F
:1005B0002BD00220013B1840013826E0002DF0D05E
:1005C000022022E0002CFBD1FF281FD000281FD1E1
:1005D000002D1DD10220013B1840013815E0002CF0
:1005E0000ED08B42E5D10022904204DCAC42E0D830
:1005F0000020AC4209D2581E01239843013004E088
:100600000123013999430800013030BD002DD7D1B5
:100610008B42CED18242E7DD0221581E08400138CC
:10062000F3E7C046F0B54E4657464546DE46E0B5D0
:1006300043025B0A450083B00F1C99462D0EC60F7E
:10064000002D57D0FF2D24D08020DB00C00418439C
:10065000002381469A469B467F3D7C027A00FB0F31
:10066000640A120E984623D0FF2A4BD0E300802460
:100670000020E4047F3A1C43AD186B1C47460193ED
:10068000534677403A000F2B48D87D499B00CB5802
:100690009F46002B00D085E008339A46063B9B46D8
:1006A0007C027A00FB0FFF25640A120E9846DBD10C
:1006B000002C00D090E0524601231A4392460120BC
:1006C000DBE74C4658461700022824D0032800D107
:1006D000CFE00022002301284DD15802D205400A64
:1006E000FF071043384303B03CBC90469946A246EE
:1006F000AB46F0BD002B5BD104239A46033B00259B
:100700009B46AAE7FF35002C60D1524602231A43CC
:1007100092460220B1E7FF220023DEE74B461B0C86
:100720009C464B462604360C180461463300220CC6
:100730006446000C43434E435043544380191A0C03
:100740001218964203D9802149028C4664441B0446
:100750001B0C1004C01883015E1EB341800E1843A9
:10076000130C1B199B0103431C00230179D50123A2
:1007700062081C401443019A7F32002A4DDD630752
:1007800004D00F232340042B00D00434230103D5CD
:100790003C4B019A1C408032FE2ABCDCA3015B0A60
:1007A000D2B29AE70C239A46093BFF259B4654E7B1
:1007B000180000F04DFA4A46431F76259A40002360
:1007C0006D4291462D1A9A469B4646E752460323B0
:1007D0001A439246032050E7200000F039FA431FE5
:1007E0002D1A9C40763D002047E780230027DB033D
:1007F000FF2272E7424666E74C463200584662E7FF
:1008000080234A46DB031A4222D01C4220D12343D4
:100810005B025B0A4746FF225FE701239A1A1B2A05
:1008200021DC23000199D3409E318C401A00230023
:100830005C1EA34113435A0704D00F221A40042A16
:1008400000D004335A0111D49B015B0A002244E713
:1008500080234A46DB0313435B025B0A3700FF2217
:100860003BE7019587E70022002336E701220023BA
:1008700033E78023DB0323435B025B0AFF222CE781
:1008800024350008FFFFFFF7F8B54746CE46440081
:10089000C20F80B547024802400A844666464800B7
:1008A0007F0A240EF60025009046FB00000EC90FBB
:1008B000B146FF2800D185E001267140261A9142F9
:1008C00057D0002E43DD002800D07FE049460029A4
:1008D00000D1AAE0013E002E00D0F7E05B1A5A01D9
:1008E00000D48BE09B019C09200000F0B1F9053891
:1008F0008440854200DDD3E0451B230020200135E4
:10090000EB40451BAC40621E944123430724002565
:100910001C40012241460A40002C04D00F211940FE
:10092000042900D00433590100D480E00135ECB231
:10093000FF2D00D0A3E0FF2400235B02E405580A4A
:10094000D207204310430CBC90469946F8BD002EB8
:1009500074D1601CC0B2012800DCA7E04A469C1A92
:10096000620100D5B6E0002CBED100220024002395
:10097000E3E7002E00DC85E0002846D0FF2C49D0BC
:1009800080224846D2041043814601221B2E09DCF6
:1009900020204C46801B84404A462000F240441EE2
:1009A000A04102439B185A0128D50135FF2D00D1E3
:1009B000A8E00122072494491A405B080B40134326
:1009C0001C40A6E7002E00D078E775E7FF2C54D036
:1009D00080224946D2041143894601221B2E09DC9C
:1009E00020214846891B88404A460100F240481EA3
:1009F00081410A439B1A5A0100D573E701224146FF
:100A00000A40590700D089E711E04846002858D12C
:100A1000FF2C0CD1DB08002B00D18CE78020C00319
:100A200003435B025B0AFF2487E7FF2C25D0DB082A
:100A3000FF2DF0D05B025B0AECB27EE7002C4DD0BC
:100A4000FF2818D08024E404724223431B2A00DDCF
:100A5000C4E01C002025D440AA1A93405A1E93419A
:100A600023434A460500D31A884638E7721CF8D05B
:100A7000F243FF28EAD10A004B46FF25D7E79B0146
:100A80005B0A5AE7002E41D1651CE9B2012945DD18
:100A9000FF2D00D14FE707244B445B081C4038E78B
:100AA00007225A4B2D1A2340144032E7002C1DD147
:100AB000002B7AD14B46002B00D191E00A00002593
:100AC000B5E7013E002E19D14B446CE7FF2C84D1D1
:100AD000FF25ACE74A468846D41A05E7002BC5D166
:100AE0000A00FF28C8D005004B46A0E7002B49D1DB
:100AF0004B46002B77D00A00FF2598E7FF2C00D04B
:100B000043E787E70A00FF24002316E7002C15D1EE
:100B1000002B57D1FF28E6D14B467BE7002C20D194
:100B2000002B57D04946002953D04B445A0168D571
:100B30000724364A1C4001251340EAE6FF28EBD083
:100B40008022D204764213431B2E53DC2025AD1B9A
:100B50001A00AB40F2405C1EA34113434B44050016
:100B600021E7002BD8D04946002900D152E7802147
:100B7000C9030F4200D14DE76046084200D049E763
:100B80004B4647E74846FF25002800D14FE7802223
:100B9000D203174204D06046104201D14B4688462A
:100BA00001224146FF250A4041E7484600281FD060
:100BB0001A1A500120D54A460724D31A1C408846E9
:100BC0000025A6E6741CC9D0F643FF28BCD14B46CD
:100BD00020E799464B460025DB082BE7012340E739
:100BE00000220023A9E680230022DB03FF24A4E6E1
:100BF00000251CE70123B1E7002AF1D013000025EE
:100C0000FCE60025FAE6C046FFFFFF7DFFFFFFFB85
:100C100041024200C30F490A120E00207E2A0DD95C
:100C20009D2A0CD8802000040143952A0ADC9620D6
:100C3000821AD1404842002B00D108007047034A75
:100C40009818FBE7963A9140F4E7C046FFFFFF7F14
:100C50001C2101231B04984201D3000C10391B0AEC
:100C6000984201D3000A08391B09984201D30009B0
:100C7000043902A2105C40187047C0460403020207
:100C800001010101000000000000000070B5050036
:100C9000224C237810229343237023780C3A9343F9
:100CA00023701F4BE0187C32D200002102F045FB7C
:100CB00080239B000022E252002406E029196423CD
:100CC0000122184802F06CF901342B5D002BF5D19C
:100CD00029006731134C64330122200002F060F9CF
:100CE0002900683164230122200002F059F96A23A7
:100CF000E95A00220C4801F007F8084B1B88DB0674
:100D000005D4094B186801F039F80028F5D0064BD6
:100D1000186801F01FF8012070BDC046980E002031
:100D2000040400009C180020780E002010B50B0071
:100D3000010028310022034800F078FD002800D08F
:100D4000012010BD9C12002010B5FFF79FFF10BDC1
:100D50000300581C1A7803008A42FAD17047000039
:100D600010B582B03A211D48FFF7F2FF002105E0DF
:100D70001B4B5B18B3331A700130013102783A2AE9
:100D8000F6D1002105E0164B5B18C3331A70013011
:100D9000013102780D2AF6D1441D124B1A8801AB9D
:100DA0001A80002203E001A98B5401340132237818
:100DB0000D2BF8D104220C4901A800F055FD013497
:100DC000002106E0064B5B183433FF331A70013400
:100DD00001312278002AF5D102B010BD9C1200200A
:100DE000980E00207C340008C90F002010B50A4876
:100DF000FFF74CFF3A210948FFF7AAFF0130002115
:100E000005E0074B5B187A331A7001300131027824
:100E10000D2AF6D110BDC046000000209C12002013
:100E2000980E002010B50A486C30FFF72FFF0A21FA
:100E30000848FFF78DFF002105E0074B5B186A3378
:100E40001A700130013102780D2AF6D110BDC0466A
:100E5000000000209C120020980E002010B50A48C7
:100E60005830FFF713FF0A210848FFF771FF0021F0
:100E700005E0074B5B182D331A7001300131027801
:100E80000D2AF6D110BDC046800000209C12002023
:100E9000980E002010B50D484430FFF7F7FE3A21B8
:100EA0000B48FFF755FF0130002102780D2A08D0CA
:100EB000064B5B186C331B78934204D1013101302F
:100EC000F3E7012010BD0020FCE7C0460001002030
:100ED0009C12002010B507483030FFF7D7FE2C21B8
:100EE0000548FFF735FF0378312B01D0002010BDF6
:100EF0000120FCE7800100209C12002010B50A4868
:100F00001C30FFF7C3FE3A210848FFF721FF0130EC
:100F1000002105E0064B5B188E331A700130013159
:100F200002780D2AF6D110BD000200209C1200208C
:100F3000980E002030B5D24CA544D24B1A79072A1E
:100F400000D943E19300D04AD3589F46CF4B1B882A
:100F5000DB070CD4CD4B1B889B0700D436E1FFF791
:100F600099FF00280AD1C74B00221A712EE1C74B06
:100F70001B889B07EED400F0D5FBEBE7FFF736FFAD
:100F8000FFF750FFFFF76AFFC04A137808210B43B1
:100F90001370BC4B01221A7118E1BD480830FFF7ED
:100FA00075FEFFF797FF002808D1B84A1378402153
:100FB0008B431370B34B01221A7107E1FFF79EFFB9
:100FC000B24A137840210B431370AE4B02221A71C0
:100FD000FCE0AE4B1B885B0600D4F7E0A94B5A79C6
:100FE000042A00D9F2E09300AA4AD3589F46A848A1
:100FF0007430FFF7A9FEA84C60342000FFF7A4FE70
:1010000000212000FFF792FE002809D09F4A1178A6
:1010100080235B420B4313709A4B01225A71D5E037
:101020009A4A11787F230B401370CFE09B484C30D5
:10103000FFF78AFE9A4C38342000FFF785FE002126
:101040002000FFF773FE002811D0904A531C5178FE
:1010500001215170927800225A709A7800229A7079
:10106000DA780022DA70874B02325A71AEE08D488E
:101070002430FFF769FE854A531C517800215170D6
:10108000927800225A709A7800229A70DA780022B8
:10109000DA709BE0844C20001030FFF755FE7C3462
:1010A0002000FFF751FE00212000FFF73FFE00283F
:1010B00011D0764A531D5179012151719279002244
:1010C0005A709A7800229A70DA780022DA706D4BA2
:1010D00003325A717AE06D4A531D517900215171E2
:1010E000927900225A709A7800229A70DA78002257
:1010F000DA706BE06D486830FFF726FE6C4C5434B4
:101100002000FFF721FE00212000FFF70FFE00283E
:1011100011D05E4A1300517A012151729A7A00224D
:101120009A72DA7A0022DA721A7B00221A73554B0D
:1011300004325A714AE05F484030FFF705FE534AD7
:101140001300517A002151729A7A00229A72DA7A47
:101150000022DA721A7B00221A7337E056482C30CC
:10116000FFF794FD554C18342000FFF78FFD002148
:101170002000FFF7DBFD002813D0444A1300517B09
:10118000012151739A7B00229A73DA7B0022DA7371
:101190001A7C00221A743B4B01325A7102321A71C6
:1011A00014E03A4A1300517B002151739A7B0022CC
:1011B0009A73DA7B0022DA731A7C00221A74314B9C
:1011C00004325A7102E02F4B04221A7187239B00CC
:1011D0009D4430BD2B4B9B79012B00D1B0E0002BFF
:1011E0007AD0022B00D1D7E0032BEFD16B461A2225
:1011F000DA71334A334902A802F096F8324C2000E3
:101200002030FFF7A1FD21005C31002300222F4890
:1012100000F00CFB0028D9D0FA24A4002C4D2300A8
:10122000274A02A9280001F0BBFE64230122694677
:101230000731280001F0B4FE200000F0B9FD22487B
:1012400000212030FFF772FD002800D1D0E00F4AC6
:101250001300517F002101205077907F002090776C
:10126000D07F0020D0771D33D8780020D870054B70
:10127000997105301871174BD1540133D152A5E73C
:10128000E4FDFFFF780E002048340008980E00208F
:101290008002002068340008000300208003002042
:1012A00000040020800400200005002080050020AC
:1012B0000006002080060020000700208007002094
:1012C0000D02000088350008000A00209C12002052
:1012D0009C180020FF010000A24C04342000FFF7FE
:1012E00033FD00212000FFF721FD002811D09E4A88
:1012F0001300517C012151749A7C00229A74DA7C8B
:101300000022DA741A7D00221A750132974B9A7105
:101310005CE794487030FFF717FD95485C30FFF7A5
:1013200013FD914A1300517C002151749A7C0022D4
:101330009A74DA7C0022DA741A7D00221A7545E765
:101340008C4C48342000FFF7FFFC00212000FFF701
:10135000EDFC002811D0844A1300517D0121517504
:101360009A7D00229A75DA7D0022DA751A7E0022B3
:101370001A767E4B02329A7128E77B4A1300517D20
:10138000002151759A7D00229A75DA7D0022DA7566
:101390001A7E00221A7619E7774C34342000FFF7C2
:1013A000D3FC00212000FFF7C1FC002811D06E4AB9
:1013B0001300517E012151769A7E00229A76DA7EC0
:1013C0000022DA761A7F00221A77684B03329A716C
:1013D000FCE6654A1300517E002151769A7E002278
:1013E0009A76DA7E0022DA761A7F00221A77EDE604
:1013F0005D4A1300517F002151779A7F00229A772E
:10140000DA7F0022DA771D33DA780022DA70DDE63F
:101410008022D2000021594801F08FFF0022584954
:10142000524800F071FC504B1B88DB0605D44F4B33
:10143000186800F0A3FC0028F5D04C4B186800F0A9
:1014400089FC494A4F4BD35C012B00D0BEE60023F8
:1014500000224D49494800F0E9F9002816D1434BD4
:1014600003229A7101321A713F4A1300213319780D
:1014700000211970597800215970997800219970CC
:10148000D9780021D9703F4BD1549FE6364C2300C8
:1014900021331A7801221A705A7800225A709A78E9
:1014A00000229A70DA780022DA70230025331A7845
:1014B00000221A705A7800225A709A7800229A7084
:1014C000DA780022DA70FFF74BFC26487030FFF71D
:1014D0003BFC27485C30FFF737FC0022294BE254E5
:1014E000224B06321A7171E6204B07221A711E4BED
:1014F00029331A7801221A705A7800225A709A7881
:1015000000229A70DA780022DA705FE61F480C3009
:10151000FFF7BCFB00221E49144800F0F5FB19E060
:10152000114B1A7802210A431A701A7801210A43D2
:101530001A7025331A7819705A7800225A709A78DE
:1015400000229A70DA780022DA70084B1A71186853
:1015500000F000FC054B186800F010FC0028DFD1FB
:1015600034E6C04600080020980E0020780E0020C7
:101570008008002000090020800900209C12002023
:1015800010270000FF01000064350008800A0020D9
:1015900050C3000010B502680D4B9A4205D00122DD
:1015A0000C490D4801F030FE10BD0C4A802080002F
:1015B000135AD1180A4CA4466144064C24780C7086
:1015C00001339B059B0D1352064B0121D154E6E7D5
:1015D00000380140940E00209C180020980E002036
:1015E00004040000FF01000030B595B02C2200215A
:1015F00009A801F0A2FE1022002104A801F09DFE1E
:1016000010220021684601F098FE0224089401256A
:101610000B9510230C931094A0239B03129308A8FE
:1016200000F0AEFD0723049305940024069407946C
:10163000012104A801F028F800950294684601F001
:10164000D1F815B030BD10B500F006FCFFF7CCFFA7
:1016500000F05CF8FFF76EFCFCE7000010B50A48EC
:101660000A4B0360E1235B02436000238360802216
:101670009201C26003610C2242618361C361036213
:10168000436201F03DFD10BD9C1800200038014070
:10169000F0B589B01422002103A801F04EFE184BCA
:1016A000596980208002014359615A6902400192C0
:1016B000019A5A69802109030A435A615B690B4008
:1016C0000293029BC027BF000E4D00223900280064
:1016D00000F050FD012603960B4B04930024059463
:1016E000902003A9C00500F07FFC039704960594A1
:1016F000069403A9280000F077FC09B0F0BDC046AD
:1017000000100240000800480000121010B5FFF75A
:10171000BFFF034A137801210B43137010BDC0466D
:10172000980E002010B5FFF799FF012208490948DB
:1017300001F06AFD084A137802210B431370074C2D
:101740002000FFF7A3FA20006C30FFF79FFA10BDCE
:10175000940E00209C180020980E0020140D0020EC
:1017600082B00A4B996901221143996199690A4033
:101770000092009ADA69802149050A43DA61DB693F
:101780000B400193019B02B07047C046001002401D
:1017900010B588B004001422002103A801F0CDFD8B
:1017A0002268174B9A4201D008B010BD154B9969B9
:1017B0008020C001014399619A6902400192019A17
:1017C0005A69802189020A435A615B690B4002937E
:1017D000029BC023DB00039302230493013306938F
:1017E000023B0793902003A9C00500F0FDFB0022F7
:1017F00000211B2000F052FB1B2000F081FBD3E7EF
:1018000000380140001002407047FEE77047704703
:1018100010B500F031FB00F09BFB10BD10B5024885
:1018200001F0A2F810BDC0469C18002070B5002A37
:1018300008D114000D5D9D420FD0065DAE4210D15F
:101840000134F7E70023934205DACD5CC45CA5427E
:1018500005D10133F7E7012070BD0120FCE700202E
:10186000FAE71000F8E7000010B500230B60062A25
:101870003DD893001F4CE3589F460478303C1E4BE4
:1018800063430B6001300478303C1C4B63430C68AD
:10189000A44663440B600130441C00783038430197
:1018A0001B1A9B001B18D8000B689C4660440860FC
:1018B000601C2478303C642363430C68A446634472
:1018C0000B60441C0078303883001B1858000B68EC
:1018D0009C46604408602378303B08688446634433
:1018E0000B60D0B210BD0400E2E70400F3E7002073
:1018F000F8E7C04680340008A086010010270000E9
:1019000070B505001B49FEF789FC041E00D00124B8
:1019100019492800FEF782FC0A21FEF765FD2143E4
:1019200000D00134FA2189002800FEF777FC0A2153
:10193000FEF75AFD214300D0013464212800FEF750
:101940006DFC0A21FEF750FD214300D001340A212D
:101950002800FEF763FC0A21FEF746FD214300D074
:1019600001340A212800FEF73FFD214300D0013455
:10197000E0B270BDA08601001027000070B5050020
:101980000C00FFF7BDFF06283FD88000204B1B58F6
:101990009F4620492800FEF741FC3030207001347A
:1019A0001D492800FEF73AFC0A21FEF71DFD3031E3
:1019B00021700134FA2189002800FEF72FFC0A214A
:1019C000FEF712FD661C3031217064212800FEF7FD
:1019D00025FC0A21FEF708FD741C303131700A2104
:1019E0002800FEF71BFC0A21FEF7FEFC661C3031C6
:1019F00021700A212800FEF7F7FC303131700120F8
:101A000070BD2600E1E72600F3E70020F8E7C046B6
:101A10009C340008A08601001027000070B5040067
:101A20000D00002808DB2000FFF76AFF062844D8D5
:101A30008000234B1B589F4644422D230B700135D9
:101A4000F1E720492000FEF7E9FB3030287001352E
:101A50001D492000FEF7E2FB0A21FEF7C5FC3031EC
:101A600029700135FA2189002000FEF7D7FB0A21F1
:101A7000FEF7BAFC6E1C3031297064212000FEF79D
:101A8000CDFB0A21FEF7B0FC751C303131700A2104
:101A90002000FEF7C3FB0A21FEF7A6FC6E1C3031C6
:101AA00029700A212000FEF79FFC3031317001209F
:101AB00070BD2E00E1E72E00F3E70020F8E7C046F6
:101AC000B8340008A086010010270000F0B5D64603
:101AD0004F4680B587B006000F0001920A22002110
:101AE00003A801F02AFC34685649201CFEF79AFD31
:101AF000051CFEF7B9FC0200643A534B9A4209D91F
:101B000003000A3B592B0ED9013808280ED80323AD
:101B1000994601E001239946019B052B30D89B0093
:101B20004A4AD3589F4602239946F5E7002399462F
:101B3000F2E74749201CFEF775FD3060346800214C
:101B4000201CFEF763FC00281DD1201CFEF78CFC36
:101B500085B20024002621E03E49201CFEF762FDEC
:101B60003060EBE73560E9E73B49201CFEF75AFDA2
:101B70003060E3E73949201CFEF754FD3060DDE7B3
:101B800000233360DAE730233B70012654E0731CF6
:101B900003AA2E219155DEB20134A4B2002D14D037
:101BA0006B469B88A342F2D0731CDBB29A460A2193
:101BB0002800FEF72FFB303103AB99550A2128008E
:101BC000FEF7A2FA85B25646E6E74B46032B0DD048
:101BD000022B1CD0012B18D1731CDBB203AA2E21BF
:101BE00091550236F6B20231D1540EE0721CD2B2D7
:101BF00003AB30219955B01CC0B29954F21CD2B23B
:101C00002E241C540436F6B29954330012E0711C91
:101C1000C9B203AA30209055B31CDBB22E24545411
:101C20000336F6B2D054F0E7013BDBB203AAD25C34
:101C30003A700137002BF7D1300007B00CBC914649
:101C40009A46F0BD00007A4483030000D4340008B3
:101C50000050C34700401C460000C842000020411D
:101C600010B503000B4A1268002A08D0094A106810
:101C7000C3186A46934206D8064A136010BD054A47
:101C800005491160F2E701F01BFB0C230360012002
:101C90004042F3E7800E002030190020704700001A
:101CA000064B1B68002B07D0012000E001301B69A8
:101CB000002BFBD1013070470120FCE720190020E8
:101CC000F8B507000F4B1C68142001F023FB051E1C
:101CD00015D000264672FFF7E3FF286038602E61BA
:101CE000084B1B68002B04D1064B1D60012007E048
:101CF0001C002369002BFBD12561012000E000209E
:101D0000F8BDC0462019002070B504000E00150073
:101D10000368002B0CD00E4B1B68002B16D01A68E2
:101D200021688A4209D01B69002BF8D100200CE001
:101D3000FFF7C6FF0028EED107E001225A72002209
:101D4000DA609A725E601D72012070BD0020FCE7AF
:101D500020190020084B1B68002B0BD01A68824208
:101D600004D01B69002BF9D1002002E000225A7236
:101D7000012070470020FCE7201900200B4B1B6856
:101D8000002B10D01A68824204D01B69002BF9D1B5
:101D9000002070479A7A012A01D00020F9E700223A
:101DA0009A720120F5E70020F3E7C04620190020D1
:101DB00010B5010000220548FFF7A6FF034B186885
:101DC000FFF7DCFF0028F9D010BDC046880E0020C8
:101DD0000D4B1B68002B07D17047DA680132DA60BF
:101DE00005E01B69002BF7D05A7A012AF5D0DA6892
:101DF00059688A42F5D301229A720022DA601A7A6F
:101E0000002AEED15A72ECE72019002010B5040028
:101E10000F4B1978FA208000FEF776F901000D4B80
:101E20001868FEF771F900F077F800280DD1032C3F
:101E300001D901200AE0013000222100404200F0D7
:101E40002DF8034B5C60002000E0012010BDC0466F
:101E5000F00D0020EC0D002010B5064A136810218B
:101E60000B4313600020FFF7D1FFFFF779FC002040
:101E700010BDC04600200240034A1168034B1B7886
:101E80005B1813607047C04624190020F00D002035
:101E9000014B18687047C0462419002070B500280F
:101EA00011DB8308144DC0339B005C5903221040A2
:101EB000C000FC3216008640B44389010A408240CB
:101EC00022435A5170BDC0B20F230340083B9B0808
:101ED00006339B00094A944663445D68032420400E
:101EE000C000FF2214008440A543890111408140B5
:101EF00029435960E6E7C04600E100E000ED00E05C
:101F0000002805DB1F2318401E3B8340014A136055
:101F10007047C04600E100E001380A4B98420FD8F4
:101F2000094A50600948036A1B021B0AC0210906BE
:101F30000B43036200239360073313600020704754
:101F40000120FCE7FFFFFF0010E000E000ED00E0F3
:101F500010B5FFF73DFF10BD10B52123C35C022B68
:101F600006D0042383631C330022C254012010BD19
:101F7000026813680E218B43136001680A6801230D
:101F80009A430A60C26B1900046CA140516021227F
:101F900083541F330022C2540020E8E710B52123E8
:101FA000C35C022B03D004238363012010BD0268AD
:101FB00013680E218B43136001680A6801239A435A
:101FC0000A60C26B1900046CA14051602122835445
:101FD0001F330022C254436B002B02D098470020CD
:101FE000E4E70020E2E70000F0B5CE46474680B5C2
:101FF00083B0002333E0032600E00026AE40350026
:102000003D430234A400554EA551554C2568D44398
:102010002E0026404F68FF0301D515432E00504D7A
:102020002E606D682E0026404F68BF0301D5154312
:102030002E004B4D6E60AD682E0026404F68FF02AB
:1020400001D515432E00464DAE60ED682C404E681C
:10205000B60201D52A431400414AD46001330A680C
:102060001400DC4074D001249C402240F6D04D681E
:102070006E1E012E03D9112D01D0122D12D18568AB
:102080005F000326BE40B5432E00CD68BD403543FA
:1020900085604568A5434C682609012434409C406E
:1020A0002C434460C7685E000324B440E443A44664
:1020B00027408D68B5403D43C5604C68022C01D077
:1020C000122C10D1DC080834A400A146275807259B
:1020D0001D40AD000F24AC40A7430C69AC40250067
:1020E0003D434C46255005686446254003244F680F
:1020F0003C40B4402C4304604C68E400AED5194D1C
:10210000AE6901242643AE61AD692C400194019C67
:102110009C08A51CAD00114EAF5903251D40AD0014
:102120000F26AE40B7439026F605B04200D164E7D3
:102130000D4EB04208D00D4EB04207D00C4EB0420A
:1021400000D158E7052659E7012657E7022655E74B
:1021500003B00CBC90469946F0BDC046000001405B
:10216000000401400010024000040048000800483C
:10217000000C0048002A01D1816270478161FCE7B0
:1021800070B582B0041E00D132E20368DB0726D5A9
:10219000AE4B5A680C231340042B18D0AB4B5A6833
:1021A0000C231340082B0ED06368012B3CD0002B6E
:1021B00051D1A64B1A68A6490A401A601A68A54967
:1021C0000A401A6036E0A14B5B68DB03ECD59F4BFD
:1021D0001B689B0303D56368002B00D10BE22368C7
:1021E0009B0773D5994B5B680C221A425DD0974BC5
:1021F0005A680C231340082B53D0E368002B00D1FE
:1022000086E0924A136801210B431360FFF740FEFA
:1022100005008E4B1B689B0771D4FFF739FE401BEE
:102220000228F6D90320E4E1884A116880235B0282
:102230000B4313606368002B25D0FFF729FE0500D0
:10224000824B1B689B03CAD4FFF722FE401B642805
:10225000F6D90320CDE1052B09D07C4B1A687C49C7
:102260000A401A601A687B490A401A60E2E7774B15
:1022700019688022D2020A431A6019688022520229
:102280000A431A60D6E7FFF703FE05006F4B1B6891
:102290009B03A4D5FFF7FCFD401B6428F6D903205F
:1022A000A7E16A4B5B68DB03A7D4684B1B689B07FD
:1022B00004D5E368012B01D001209AE163490B6842
:1022C000F82293432269D20013430B6023681B0753
:1022D00044D5E369002B2ED05C4A536A01210B439D
:1022E0005362FFF7D5FD0500584B5B6A9B0735D459
:1022F000FFF7CEFD401B0228F6D9032079E15349B0
:102300000B68F82293432269D20013430B60DDE788
:102310004E4A136801218B431360FFF7B9FD050096
:102320004A4B1B689B07D1D5FFF7B2FD401B022823
:10233000F6D903205DE1454A536A01218B4353627C
:10234000FFF7A6FD0500414B5B6A9B0706D5FFF72B
:102350009FFD401B0228F6D903204AE123685B0752
:1023600000D47FE0394BDB69DB001DD4374AD169EB
:10237000802040050143D161D36903400193019B53
:102380000125354B1B68DB0510D5A368012B21D037
:10239000002B36D12D4B1A6A01218A431A621A6A20
:1023A00003318A431A621AE00025EAE72A4A1168D3
:1023B00080235B000B431360FFF76AFD0600264B8A
:1023C0001B68DB05E1D4FFF763FD801B6428F6D9A9
:1023D00003200EE11D4A136A01210B431362A36817
:1023E000002B24D0FFF754FD0600184B1B6A9B07F7
:1023F00036D4FFF74DFD801B184B9842F5D90320CA
:10240000F7E0052B09D0114B1A6A01218A431A62A1
:102410001A6A03318A431A62E1E70C4B1A6A0421F3
:102420000A431A621A6A03390A431A62D7E7FFF7A6
:102430002FFD0600054B1B6A9B0711D5FFF728FDF2
:10244000801B064B9842F5D90320D2E000100240D1
:10245000FFFFFEFFFFFFFBFF00700040881300003E
:10246000012D33D02368DB0610D56369012B33D0EF
:10247000053351D1644A536B04218B435363536B2F
:10248000F4318B43A169C9000B435363236A002BCA
:1024900000D1B2E05C4A51680C220A40082A00D1FF
:1024A0008AE0022B4FD0584A136858490B401360FA
:1024B000FFF7EEFC0400544B1B689B017AD5FFF735
:1024C000E7FC001B0228F6D9032092E04E4AD369AC
:1024D0004F490B40D361C5E74B4B5A6B04210A436C
:1024E0005A635A6B03390A435A63FFF7D1FC05005C
:1024F000454B5B6B9B0706D4FFF7CAFC401B0228C9
:10250000F6D9032075E040494B6BF8229343A2694A
:10251000D20013434B63B9E73B4B5A6B04210A4388
:102520005A635A6B03398A435A63FFF7B1FC0500BB
:10253000354B5B6B9B07A9D5FFF7AAFC401B022814
:10254000F6D9032055E0304A136830490B40136038
:10255000FFF79EFC05002C4B1B689B0106D5FFF77F
:1025600097FC401B0228F6D9032042E0264BDA6A8A
:102570000F218A43E16A0A43DA625A6825490A4010
:10258000A16A606A01430A435A60196880225204B2
:102590000A431A60FFF77CFC04001B4B1B689B017D
:1025A00006D4FFF775FC001B0228F6D9032020E0B3
:1025B00000201EE000201CE0012B20D0124B5A68A6
:1025C000D96A80235B021340606A834201D00120F4
:1025D0000FE00F230B40E16A8B4201D0012008E09D
:1025E000F0239B031A40A36A9A420AD0012000E01C
:1025F000012002B070BD0120FBE70020F9E70120B7
:10260000F7E70020F5E7C04600100240FFFFFFFE9D
:10261000FFFFFFEFFFFFC2FF30B589B004AA174BE1
:10262000180032C832C2110002680A606A461033CC
:1026300013CB13C21B681360114B5A680C23134051
:10264000082B19D1910C0733194004A8445C0C499C
:10265000C96A0B406946C95CD30308D463011B1BDC
:102660009801C01AC0000419200209B030BD054805
:10267000FDF74AFD6043F8E70248F6E70435000835
:102680000010024000127A0070B504000D0000280E
:1026900000D181E0424B1A68012313408B420BD2D8
:1026A0003F490B68012293432B430B600B681A4090
:1026B000AA4201D0012070E023689A070ED55B077B
:1026C00005D5384A5168E023DB000B435360354A97
:1026D0005368F0218B43A1680B4353602368DB07E9
:1026E0002DD56368012B1ED0022B22D02D4A1268F3
:1026F000920753D52B494A680320824313434B600A
:10270000FFF7C6FB0600274B5B680C221A40636884
:102710009B009A4213D0FFF7BBFB801B224B9842D1
:10272000F1D9032039E01F4A12689203E2D4012054
:1027300033E01C4A12689201DCD401202DE0184BD2
:102740001A6801231340AB420BD915490B680122CB
:1027500093432B430B600B681A40AA4201D001201F
:102760001BE023685B0706D50E4A53680F490B40F0
:10277000E1680B435360FFF74FFF0A4B5A68120999
:102780000F2313400A4AD35CD8400A4B186000203C
:10279000FFF73CFB002000E0012070BD0120FCE7BA
:1027A000002002400010024088130000FFF8FFFFE5
:1027B000EC340008EC0D0020014B18687047C0464F
:1027C000EC0D002010B5FFF7F7FF044B5A68120A12
:1027D00007231340024AD35CD84010BD00100240CA
:1027E000FC34000870B582B004000368DB0335D503
:1027F0003C4BDB69DB0048D43A4AD1698020400574
:102800000143D161D36903400193019B0125364BFC
:102810001B68DB053BD5334B1B6AC022920013407B
:1028200013D061680A409A420FD02E4B186A2F4A83
:1028300002401E6A8021490231431962196A2C4EF6
:10284000314019621A62C30735D4264A136A2749F0
:102850000B4061680B431362012D3BD02368DB07FB
:1028600006D5204A136B03218B43A1680B431363E6
:1028700023689B0633D51B4A136B10218B43E168F9
:102880000B431363002002B070BD0025BFE7164A5A
:10289000116880235B000B431360FFF7F9FA060011
:1028A000114B1B68DB05B6D4FFF7F2FA801B6428D6
:1028B000F6D90320E7E7FFF7EBFA0600094B1B6A9E
:1028C0009B07C2D4FFF7E4FA801B0A4B9842F5D964
:1028D0000320D8E7D36908490B40D361BEE7002045
:1028E000D1E7C0460010024000700040FFFCFFFF2F
:1028F000FFFFFEFF88130000FFFFFFEF0268136871
:102900000B490B401360026893682331FF318B43FE
:102910009360036E012B05D02023C3670023036659
:1029200043667047026813680F318B431360F3E707
:10293000DFFEFFFF704710B50268136840218B432C
:1029400013602023836700238366FFF7F3FF10BD26
:10295000704710B5406A00235A228352083A8352C6
:10296000FFF7F6FF10BD704770B504000168CB6932
:1029700008688D68854A1A400AD19E0608D58606E1
:1029800006D5636E002B00D1FAE020009847F7E0EF
:10299000002A00D181E001222A4002D17C4D284248
:1029A0007BD0DD0707D5C50505D501260E6280253C
:1029B000615931436151990709D5002A07D021682F
:1029C00002250D627E356159042631436151590754
:1029D00009D5002A07D0216804250D627C3561598C
:1029E00002263143615119070AD5810601D4002A14
:1029F00006D0226808251562802162582A43625059
:102A00001A050AD5420108D5226880210901116200
:102A10008021625820252A4362508022A258002A31
:102A200000D1ADE09B0606D5830604D5636E002B6E
:102A300001D0200098478023E25823689B685B06FA
:102A400002D42823134221D02000FFF757FF236828
:102A50009A68520616D59A6840218A439A60236F75
:102A6000002B0BD04B4A5A63206FFFF797FA0028D0
:102A700000D185E0206F436B984781E02000FFF78D
:102A800067FF7DE02000FFF763FF79E02000FFF79C
:102A90005FFF80230022E25072E0226E012A09D0FB
:102AA0001A0669D5020667D5A36E002B68D02000F0
:102AB000984765E0DA06F3D5C206F1D510230B621C
:102AC000226893685B0633D5216F0B685B689BB205
:102AD000002B55D05820205A984251D95A202352C1
:102AE0008B69202B1AD013682B490B401360226886
:102AF00093680331FF318B439360226893683F31C1
:102B00008B4393602023E3670023236622681368C6
:102B100030398B431360206FFFF71EFA5823E15AB8
:102B20000233E35AC91A89B22000FFF71CFF27E0DD
:102B30005823E15A0233E05A091A89B2E35A9BB288
:102B4000002B1DD000291BD01368144803401360CC
:102B5000226893682330FF30834393602023E36728
:102B6000002323666366226813680F308343136073
:102B70002000FFF7F8FE03E05B0601D5430600D412
:102B800070BD2000FFF7D7FEFAE7C0460F0800002F
:102B90002001000453290008FFFEFFFFDFFEFFFFB6
:102BA00010B504005C23C35AC26F222A05D0026804
:102BB000936908210B43936110BD0268928CDBB2CC
:102BC0001340426D1370436D013343655A22835A9B
:102BD000013B9BB28352835A9BB2002BECD102681B
:102BE00013680F490B401360026893682331FF316B
:102BF0008B4393602023C36700234366036E012B3E
:102C000004D0FEF7C7FC00232366D5E702681368EB
:102C10000F318B4313605823C15AFFF7A4FEF2E72C
:102C2000DFFEFFFF10B504005C23C25AC36F222BE6
:102C300005D00268936908210B43936110BD0368B6
:102C40009B8C1340426D1380436D023343655A22BF
:102C5000835A013B9BB28352835A9BB2002BEDD126
:102C6000026813680F490B401360026893682331B0
:102C7000FF318B4393602023C36700234366036EB9
:102C8000012B04D0FEF786FC00232366D6E70268FA
:102C900013680F318B4313605823C15AFFF763FE4B
:102CA000F2E7C046DFFEFFFF10B50400836802694B
:102CB000134342691343C269134301680A684F48CA
:102CC000024013430B60226853684D490B40E16892
:102CD0000B435360226AA3691A4321688B684948F1
:102CE000034013438B602368474A934214D0474AFA
:102CF000934225D0102380221202E169914223D011
:102D0000022B00D169E04ED9042B68D0082B00D0EB
:102D10006EE0802000024CE03D4B1A6B0323134011
:102D2000012B09D0002B05D0022B07D0032B09D093
:102D30001023E0E70023DEE70423DCE70823DAE7DB
:102D40000023D8E70223D6E7022B2AD006D9042B8A
:102D500024D0082B46D18020000205E0002B41D171
:102D6000FFF730FD00283FD0400063685B08C018C3
:102D70006168FDF7C9F983B20004000C0100103945
:102D8000244A914232D80F2293431A004008072365
:102D9000184010432368D86000201AE0FFF73CFC7D
:102DA000E0E71D48E0E7002B22D1FFF70BFD0028EC
:102DB00020D063685B0818186168FDF7A5F9000466
:102DC000000C0200103A134B9A4215D82368D860C1
:102DD000002000236366A36610BD0F48E9E7FFF7F4
:102DE0001BFCE4E70120F4E70020F2E70120F0E714
:102DF0000120EEE70020ECE70120EAE7F369FFFF9E
:102E0000FFCFFFFFFFF4FFFF003801400044004008
:102E100000100240EFFF000000127A00436ADB0757
:102E200006D5026853682C490B40816A0B435360F6
:102E3000436A9B0706D50268536828490B40C16A5C
:102E40000B435360436A5B0706D502685368244905
:102E50000B40016B0B435360436A1B0706D50268A6
:102E6000536820490B40416B0B435360436ADB06B8
:102E700006D5026893681C490B40816B0B43936035
:102E8000436A9B0606D50268936818490B40C16BDC
:102E90000B439360436A5B060BD502685368144981
:102EA0000B40016C0B43536080235B03026C9A421E
:102EB0000AD0436A1B0606D5026853680D490B40C9
:102EC000816C0B4353607047026853680A490B409A
:102ED000416C0B435360ECE7FFFFFDFFFFFFFEFF7C
:102EE000FFFFFBFFFF7FFFFFFFEFFFFFFFDFFFFFA6
:102EF000FFFFEFFFFFFFF7FFFFFF9FFFF0B5C646A5
:102F000000B505000C0017009846069E2B68DB698B
:102F100023401B1B5A425341BB423BD1731CF5D08B
:102F2000FEF7B6FF4346C01AB04220D8002E1ED08E
:102F30002B681A685207E9D5DA691205E6D58022AE
:102F400012011A622A68136814490B4013602A6838
:102F50009368A331FF318B4393602023AB67EB670A
:102F60008022AB5054330022EA54032013E02A6835
:102F700013680A490B4013602A689368A331FF3134
:102F80008B4393602023AB67EB6754330022EA54F2
:102F9000032000E0002004BC9046F0BD5FFEFFFF70
:102FA000F0B585B004000E0017001D00836F202BC4
:102FB00060D1002961D0002A61D080235B01826842
:102FC0009A421CD07423E35C012B5AD07423012253
:102FD000E2540C330022E2505F3BA367FEF758FF38
:102FE00003905023E7520233E75280235B01A2682B
:102FF0009A420BD0002774230022E25419E003699F
:10300000002BDFD1CB07DDD5012034E02369002B75
:1030100001D00027EFE737000026ECE73B88DB050F
:10302000DB0D2268138502375222A35A013B9BB263
:10303000A3525223E35A9BB2002B0FD00095039B5F
:10304000002280212000FFF759FF00281BD1002E0D
:10305000E4D03378226813850136E5E70095039BB9
:10306000002240212000FFF749FF00280DD1202336
:10307000A36700E0022005B0F0BD0120FBE70120BE
:10308000F9E70220F7E70320F5E70320F3E7000064
:1030900030B583B0040080230022C250FEF7F8FE52
:1030A000050023681B681B070DD423681B685B079A
:1030B00016D42023A367E367002323667422A35456
:1030C000002003B030BD80210C4B00930300002290
:1030D00089032000FFF712FF0028E6D00320F0E765
:1030E0008021064B00932B000022C9032000FFF72C
:1030F00005FF0028DDD00320E3E7C046FFFFFF0106
:1031000010B5041E2ED0836F002B21D02423A3677B
:103110002268136801218B4313602000FFF7C4FD70
:10312000012814D0636A002B18D1226853680E4915
:103130000B4053602268936808218B439360226898
:10314000136807390B4313602000FFF7A1FF10BD80
:1031500074330022C254FEF71BFBD7E72000FFF7B1
:103160005DFEE2E70120F2E7FFF7FFFF416558232C
:10317000C2520233C2520023436683688022520146
:10318000934208D0002B15D10369002B0ED15C337C
:10319000FF22C25211E00369002B03D15C33174AAE
:1031A000C2520AE05C23FF22C25206E05C237F2267
:1031B000C25202E05C230022C25280230022C2508D
:1031C0005E3BC3670268936801210B4393608023D1
:1031D0005B0182689A420BD0094B4366742300223C
:1031E000C25402681168AC330B431360002070476F
:1031F0000369002BF0D1034B4366EFE7FF010000AA
:10320000A12B0008252C000870B5C36F202B24D1FA
:10321000002924D0002A24D080235B0184689C42AA
:1032200014D07423C35C012B1DD074230124C45417
:103230000023036603685C68240204D51D688024AB
:10324000E4042C431C60FFF791FF07E00369002BA7
:10325000E7D1CB07E5D5012000E0022070BD0120B9
:10326000FCE70120FAE70220F8E700000D48854658
:103270000D480E490E4A002302E0D458C4500433CE
:10328000C4188C42F9D30B4A0B4C002301E01360A5
:103290000432A242FBD3FEF701FD00F017F8FEF75F
:1032A000D2F9FEE700200020000000205C0E002084
:1032B000A03700085C0E00202C190020FEE700005B
:1032C000014B18687047C046F80D002070B5002605
:1032D0000C4D0D4C641BA410A64209D1002600F031
:1032E000A7F80A4D0A4C641BA410A64205D170BD74
:1032F000B300EB5898470136EEE7B300EB58984718
:103300000136F2E798370008983700089837000828
:103310009C37000810B5034B0100186800F016F840
:1033200010BDC046F80D0020002310B59A4200D110
:1033300010BDCC5CC4540133F8E70300121893426B
:1033400000D1704719700133F9E70000032370B50D
:10335000CD1C9D43083506000C2D1ED20C25A9421C
:103360001DD8300000F062F8254A146821000029B9
:1033700019D1244C2368002B03D1300000F044F80D
:1033800020602900300000F03FF8431C2BD10C23B3
:103390003000336000F04BF803E0002DDFDA0C233F
:1033A0003360002070BD0B685B1B19D40B2B03D955
:1033B0000B60CC18256003E04B688C420DD1136084
:1033C000300000F034F8200007220B30231D90431A
:1033D000C31AE7D05A42E250E4E763600C00EFE71B
:1033E0000C004968C3E70323C41C9C43A042E1D0FE
:1033F000211A300000F008F8431CDBD1C7E7C046B3
:103400008C0E0020900E0020002370B5064C0500A5
:1034100008002360FEF724FC431C03D12368002B23
:1034200000D02B6070BDC04628190020704770473F
:10343000F8B5C046F8BC08BC9E467047F8B5C04613
:08344000F8BC08BC9E46704771
:103448004C0F00089A0F0008D20F0008C611000898
:10345800D411000810140008E81400080C1500081E
:10346800EE0F00082C10000894100008F410000853
:103478005C11000800000000EE180008EA180008B7
:10348800C2180008E61800089818000886180008EE
:103498007A1800080A1A0008061A0008DE19000837
:1034A800021A0008B4190008A019000892190008A7
:1034B800BA1A0008B61A00088E1A0008B21A0008CC
:1034C800641A0008501A0008421A0008801B0008F5
:1034D800741B0008681B0008641B0008581B0008C0
:1034E800321B000800000000000000000102030475
:1034F800060708090000000001020304020304058E
:10350800060708090A0B0C0D0E0F10100102030420
:1035180005060708090A0B0C0D0E0F101C070008FA
:10352800C6060008C6060008F4070008C206000818
:10353800C2060008EA070008F4070008C2060008E7
:10354800EA070008C2060008F4070008F8070008A0
:10355800F8070008F8070008000800080D0A524597
:1035680043562046524F4D3A31332E3132362E31A2
:1035780036352E343A343030300D0A2B4950440059
:103588005175656374656C92732070617373696FAC
:103598006E20666F72206120736D6172746572208F
:1035A800776F726C64206472697665732075732016
:1035B800746F20616363656C657261746520496F1F
:1035C8005420696E6E6F766174696F6E2E2041208B
:1035D800686967686C7920637573746F6D65722D9F
:1035E80063656E74726963206F7267616E697A6170
:1035F80074696F6E2C20776520637265617465202D
:103608007375706572696F722063656C6C756C6137
:103618007220616E6420474E5353206D6F64756C41
:10362800657320616E6420616E74656E6E617320CF
:103638006261636B6564206279206F75747374616D
:103648006E64696E6720737570706F727420616E36
:10365800642073657276696365732E204F757220D6
:1036680067726F77696E6720676C6F62616C207430
:1036780065616D206F66206F76657220333030305B
:103688002070726F66657373696F6E616C732C203E
:10369800746865206C61726765737420696E207444
:1036A800686520496F54206D6F64756C6573206977
:1036B8006E64757374727920776F726C647769645D
:1036C800652C20656E73757265732077652061724D
:1036D8006520666972737420746F206D61726B6502
:1036E8007420616E6420636F6E74696E75652074F2
:1036F8006F20736574207468652070616365206F3E
:103708006620646576656C6F706D656E742E204CEE
:103718006973746564206F6E2074686520536861EE
:103728006E676861692053746F636B2045786368BE
:10373800616E676520283630333233362E5353296D
:103748002C206F757220696E7465726E6174696F72
:103758006E616C206C65616465727368697020695C
:1037680073206465766F74656420746F2061647675
:10377800616E63696E6720496F54206163726F736D
:10378800732074686520676C6F62652E0000000006
:04379800E90000083C
:04379C00C100000860
:1037A00041542B43494343494400000000000000BA
:1037B0000000000000000000000000000000000009
:1037C00000000000000000000D0A2B434349443A6A
:1037D00020000000000000000000000000000000C9
:1037E00000000000000000000000000000000000D9
:1037F0000D0A2B434D45204552524F520000000008
:10380000000000000000000D0A00C80041542B43D6
:10381000494D4900000000000000000000000000C9
:103820000000000000000000000000000000000098
:10383000000000000D0A4F4B0D0A000000000000C0
:103840000000000000000000000000000000000078
:103850000000000000000000000000000D0A2B43E3
:103860004D45204552524F5200000000000000001C
:103870000000000D0A00C80041542B4347534E007E
:103880000000000000000000000000000000000038
:103890000000000000000000000000000000000028
:1038A0000D0A4F4B0D0A0000000000000000000050
:1038B0000000000000000000000000000000000008
:1038C00000000000000000000D0A2B434D4520457C
:1038D00052524F5200000000000000000000000D96
:1038E0000A00C80041542B4350494E3F00000000DD
:1038F00000000000000000000000000000000000C8
:10390000000000000000000000000000524541449B
:10391000590000000000000000000000000000004E
:103920000000000000000000000000000000000097
:10393000000000000D0A2B434D45204552524F52C6
:1039400000000000000000000000000D0A00C80098
:1039500041542B435245473F000000000000000047
:103960000000000000000000000000000000000057
:1039700000000000000000000D0A2B435245473AAA
:1039800020312C3100000000000000000000000089
:103990000000000000000000000000000000000027
:1039A0000D0A2B434D45204552524F520000000056
:1039B000000000000000000D0A00C80041542B4325
:1039C0005351000000000000000000000000000053
:1039D00000000000000000000000000000000000E7
:1039E000000000000D0A2B4353513A200000000054
:1039F00000000000000000000000000000000000C7
:103A00000000000000000000000000000D0A2B4331
:103A10004D45204552524F5200000000000000006A
:103A20000000000D0A00C80041542B435245473D99
:103A30003100000000000000000000000000000055
:103A40000000000000000000000000000000000076
:103A50000D0A4F4B0D0A000000000000000000009E
:103A60000000000000000000000000000000000056
:103A700000000000000000000D0A2B434D452045CA
:103A800052524F5200000000000000000000000DE4
:103A90000A00C80041542B43475245473D310000BE
:103AA0000000000000000000000000000000000016
:103AB0000000000000000000000000000D0A4F4B55
:103AC0000D0A0000000000000000000000000000DF
:103AD00000000000000000000000000000000000E6
:103AE000000000000D0A2B434D45204552524F5215
:103AF00000000000000000000000000D0A00C800E7
:103B000041542B43475245473F000000000000004E
:103B100000000000000000000000000000000000A5
:103B200000000000000000000D0A2B4347524547EB
:103B30003A20312C3100000000000000000000009D
:103B40000000000000000000000000000000000075
:103B50000D0A2B434D45204552524F5200000000A4
:103B6000000000000000000D0A00C80041542B4373
:103B7000474154543D3100000000000000000000A7
:103B80000000000000000000000000000000000035
:103B9000000000000D0A4F4B0D0A0000000000005D
:103BA0000000000000000000000000000000000015
:103BB0000000000000000000000000000D0A2B4380
:103BC0004D45204552524F520000000000000000B9
:103BD0000000000D0A00C80041542B4347415454D3
:103BE0003F00000000000000000000000000000096
:103BF00000000000000000000000000000000000C5
:103C00000D0A2B43474154543A00000000000000C5
:103C100000000000000000000000000000000000A4
:103C200000000000000000000D0A2B434D45204518
:103C300052524F5200000000000000000000000D32
:103C40000A00C80041542B43474154543D30000002
:103C50000000000000000000000000000000000064
:103C60000000000000000000000000000D0A4F4BA3
:103C70000D0A00000000000000000000000000002D
:103C80000000000000000000000000000000000034
:103C9000000000000D0A2B434D45204552524F5263
:103CA00000000000000000000000000D0A00C80035
:103CB00041542B434744434F4E543D312C224950ED
:103CC000222C2261697274656C677072732E636F47
:103CD0006D220000000000000D0A4F4B0D0A00008D
:103CE00000000000000000000000000000000000D4
:103CF00000000000000000000000000000000000C4
:103D00000D0A2B434D45204552524F5200000000F2
:103D1000000000000000000D0A00C80041542B43C1
:103D20004744434F4E543F00000000000000000095
:103D30000000000000000000000000000000000083
:103D4000000000000D0A2B434744434F4E543A20D5
:103D5000312C224950220000000000000000000029
:103D60000000000000000000000000000D0A2B43CE
:103D70004D45204552524F52000000000000000007
:103D80000000000D0A00F40141542B434741435405
:103D90003D312C3100000000000000000000000058
:103DA0000000000000000000000000000000000013
:103DB0000D0A4F4B0D0A000000000000000000003B
:103DC00000000000000000000000000000000000F3
:103DD00000000000000000000D0A2B434D45204567
:103DE00052524F5200000000000000000000000D81
:103DF0000A00C80041542B43474143543F00000090
:103E000000000000000000000000000000000000B2
:103E10000000000000000000000000000D0A2B431D
:103E2000474143543A20312C31000000000000008B
:103E30000000000000000000000000000000000082
:103E4000000000000D0A2B434D45204552524F52B1
:103E500000000000000000000000000D0A00C80083
:103E600041542B43474143543D302C310000000066
:103E70000000000000000000000000000000000042
:103E800000000000000000000D0A4F4B0D0A00006A
:103E90000000000000000000000000000000000022
:103EA0000000000000000000000000000000000012
:103EB0000D0A2B434D45204552524F520000000041
:103EC000000000000000000D0A00C80041542B4310
:103ED00049504D4F44453D300000000000000000B7
:103EE00000000000000000000000000000000000D2
:103EF000000000000D0A4F4B0D0A000000000000FA
:103F000000000000000000000000000000000000B1
:103F10000000000000000000000000000D0A2B431C
:103F20004D45204552524F52000000000000000055
:103F30000000000D0A00C80041542B4349504D4F6A
:103F400044453F00000000000000000000000000A9
:103F50000000000000000000000000000000000061
:103F60000D0A2B4349504D4F44453A203000000084
:103F70000000000000000000000000000000000041
:103F800000000000000000000D0A2B434D452045B5
:103F900052524F5200000000000000000000000DCF
:103FA0000A00C80041542B4E45544F50454E000066
:103FB0000000000000000000000000000000000001
:103FC0000000000000000000000000000D0A4F4B40
:103FD0000D0A0000000000000000000000000000CA
:103FE00000000000000000000000000000000000D1
:103FF000000000000D0A2B434D45204552524F5200
:1040000000000000000000000000000D0A00E803AE
:1040100041542B434950434C4F53453D3000000021
:104020000000000000000000000000000000000090
:1040300000000000000000000D0A4F4B0D0A0D0AA1
:104040002B434950434C4F53453A20300000000069
:104050000000000000000000000000000000000060
:104060000D0A2B434D45204552524F52000000008F
:10407000000000000000000D0A00640041542B4EB7
:104080004554434C4F534500000000000000000021
:104090000000000000000000000000000000000020
:1040A000000000000D0A4F4B0D0A0D0A2B4E45541F
:1040B000434C4F53453A2030000000000000000000
:1040C0000000000000000000000000000D0A2B436B
:1040D0004D45204552524F520000000000000000A4
:1040E0000000000D0A00640041542B43495052580F
:1040F0004745543D30000000000000000000000073
:1041000000000000000000000000000000000000AF
:104110000D0A4F4B0D0A00000000000000000000D7
:10412000000000000000000000000000000000008F
:1041300000000000000000000D0A2B434D45204503
:1041400052524F5200000000000000000000000D1D
:104150000A00C80041542B4349504F50454E3D3052
:104160002C22544350222C2231332E3132362E3120
:1041700036352E34222C3430303000000D0A4F4BAF
:104180000D0A0D0A2B4349504F50454E3A20302C12
:10419000000000000000000000000000000000001F
:1041A000000000000D0A2B434D45204552524F524E
:1041B00000000000000000000000000D0A00E803FD
:1041C00041542B43495053454E443D302C00000090
:1041D00000000000000000000000000000000000DF
:1041E00000000000000000000D0A3E0D0A4F4B0DBC
:1041F0000A0D0A2B43495053454E443A0000000033
:1042000000000000000000000000000000000000AE
:104210000D0A2B434D45204552524F5200000000DD
:10422000000000000000000D0A00881341542B43D9
:1042300052455345540000000000000000000000FB
:10424000000000000000000000000000000000006E
:10425000000000000D0A4F4B0D0A00000000000096
:10426000000000000000000000000000000000004E
:104270000000000000000000000000000D0A2B43B9
:104280004D45204552524F520000000000000000F2
:104290000000000D0A00F40141542B434F50533FDE
:1042A000000000000000000000000000000000000E
:1042B00000000000000000000000000000000000FE
:1042C0000D0A2B434F50533A00000000000000003D
:1042D00000000000000000000000000000000000DE
:1042E00000000000000000000D0A2B434D45204552
:1042F00052524F5200000000000000000000000D6C
:104300000A00C80041542B43434C4B3F00000000BF
:10431000000000000000000000000000000000009D
:104320000000000000000000000000000D0A2B4308
:10433000434C4B3A20000000000000000000000049
:10434000000000000000000000000000000000006D
:10435000000000000D0A2B434D45204552524F529C
:1043600000000000000000000000000D0A00F40141
:104370004154563000000000000000000000000022
:10438000000000000000000000000000000000002D
:104390000000000000000000300D000000000000E0
:1043A000000000000000000000000000000000000D
:1043B00000000000000000000000000000000000FD
:1043C0000D0A2B434D45204552524F52000000002C
:1043D000000000000000000D0A0064004154563146
:1043E00000000000000000000000000000000000CD
:1043F00000000000000000000000000000000000BD
:10440000000000000D0A4F4B0D0A000000000000E4
:10441000000000000000000000000000000000009C
:104420000000000000000000000000000D0A2B4307
:104430004D45204552524F52000000000000000040
:104440000000000D0A0064004154453000000000E7
:10445000000000000000000000000000000000005C
:10446000000000000000000000000000000000004C
:104470000D0A4F4B0D0A0000000000000000000074
:10448000000000000000000000000000000000002C
:1044900000000000000000000D0A2B434D452045A0
:1044A00052524F5200000000000000000000000DBA
:1044B0000A00640041545631000000000000000072
:1044C00000000000000000000000000000000000EC
:1044D0000000000000000000000000000D0A4F4B2B
:1044E0000D0A0000000000000000000000000000B5
:1044F00000000000000000000000000000000000BC
:10450000000000000D0A2B434D45204552524F52EA
:1045100000000000000000000000000D0A00F4018F
:104520004154453000000000000000000000000081
:10453000000000000000000000000000000000007B
:1045400000000000000000000D0A4F4B0D0A0000A3
:10455000000000000000000000000000000000005B
:10456000000000000000000000000000000000004B
:104570000D0A2B434D45204552524F52000000007A
:10458000000000000000000D0A00F40100127A0093
:104590000100000004000000FC0D002000000000ED
:1045A000000000000000000000000000000000000B
:1045B00000000000000000000000000000000000FB
:1045C00000000000000000000000000000000000EB
:1045D00000000000000000000000000000000000DB
:1045E00000000000000000000000000000000000CB
:0C45F000000000000000000000000000BF
:040000050800326D50
:00000001FF
