:020000040800F2
:1000000000200020E1380008491C00084B1C0008B3
:1000100000000000000000000000000000000000E0
:100020000000000000000000000000004D1C00085F
:1000300000000000000000004F1C0008511C0008D8
:10004000313900080000000031390008313900085A
:1000500031390008313900083139000831390008D8
:10006000000000003139000831390008313900083A
:10007000313900083139000831390008000000002A
:10008000313900083139000800000000313900081A
:100090003139000831390008313900083139000898
:1000A0003139000831390008313900085D1C000879
:1000B00031390008000000000000000000000000CE
:1000C00010B5064C2378002B07D1054B002B02D02E
:1000D000044800E000BF0123237010BDB4160020C7
:1000E00000000000A43A0008044B10B5002B03D018
:1000F0000349044800E000BF10BDC04600000000F6
:10010000B8160020A43A0008002243088B4274D39A
:1001100003098B425FD3030A8B4244D3030B8B4208
:1001200028D3030C8B420DD3FF22090212BA030C11
:100130008B4202D31212090265D0030B8B4219D3F2
:1001400000E0090AC30B8B4201D3CB03C01A524112
:10015000830B8B4201D38B03C01A5241430B8B425A
:1001600001D34B03C01A5241030B8B4201D30B0343
:10017000C01A5241C30A8B4201D3CB02C01A52416A
:10018000830A8B4201D38B02C01A5241430A8B422D
:1001900001D34B02C01A5241030A8B4201D30B0216
:1001A000C01A5241CDD2C3098B4201D3CB01C01A30
:1001B000524183098B4201D38B01C01A524143093A
:1001C0008B4201D34B01C01A524103098B4201D328
:1001D0000B01C01A5241C3088B4201D3CB00C01A95
:1001E000524183088B4201D38B00C01A524143080D
:1001F0008B4201D34B00C01A5241411A00D2014632
:10020000524110467047FFE701B5002000F0F0F8BA
:1002100002BDC0460029F7D076E7704703460B437E
:100220007FD4002243088B4274D303098B425FD3EF
:10023000030A8B4244D3030B8B4228D3030C8B421B
:100240000DD3FF22090212BA030C8B4202D3121201
:10025000090265D0030B8B4219D300E0090AC30BD6
:100260008B4201D3CB03C01A5241830B8B4201D383
:100270008B03C01A5241430B8B4201D34B03C01A6C
:100280005241030B8B4201D30B03C01A5241C30AE4
:100290008B4201D3CB02C01A5241830A8B4201D355
:1002A0008B02C01A5241430A8B4201D34B02C01A3F
:1002B0005241030A8B4201D30B02C01A5241CDD2E4
:1002C000C3098B4201D3CB01C01A524183098B422F
:1002D00001D38B01C01A524143098B4201D34B0118
:1002E000C01A524103098B4201D30B01C01A52417B
:1002F000C3088B4201D3CB00C01A524183088B4202
:1003000001D38B00C01A524143088B4201D34B00EA
:10031000C01A5241411A00D201465241104670475C
:100320005DE0CA0F00D04942031000D34042534061
:1003300000229C4603098B422DD3030A8B4212D321
:10034000FC22890112BA030A8B420CD38901921153
:100350008B4208D3890192118B4204D389013AD090
:10036000921100E08909C3098B4201D3CB01C01A65
:10037000524183098B4201D38B01C01A5241430978
:100380008B4201D34B01C01A524103098B4201D366
:100390000B01C01A5241C3088B4201D3CB00C01AD3
:1003A000524183088B4201D38B00C01A5241D9D2EB
:1003B00043088B4201D34B00C01A5241411A00D26C
:1003C0000146634652415B10104601D34042002B68
:1003D00000D54942704763465B1000D3404201B5E7
:1003E000002000F005F802BD0029F8D016E770479C
:1003F0007047C0468446081C6146FFE71FB500F001
:10040000C1F8002801D40021C8421FBD10B500F07A
:1004100043F84042013010BD10B500F0B3F8002899
:1004200001DB002010BD012010BDC04610B500F05A
:10043000A9F8002801DD002010BD012010BDC04634
:1004400010B500F051F8002801DC002010BD01209B
:1004500010BDC04610B500F047F8002801DA0020B2
:1004600010BD012010BDC0469E2110B5C905041C59
:10047000FFF7F0FF002803D1201C00F0C9FB10BDDE
:100480009E21201CC90500F0FFF900F0C1FB80236C
:100490001B069C466044F2E770B542004E024C00D9
:1004A00045026D0A120EC30F760A240EC90FFF2AE9
:1004B0000FD0FF2C11D00120A24200D070BDB54258
:1004C000FCD18B420DD0002AF8D12800451EA8414E
:1004D000F4E70120002DF1D1EBE70120002EEDD152
:1004E000E9E70020EAE7C04670B54A004E0245023F
:1004F00044006D0A240EC30F760A120EC90FFF2C9A
:1005000015D0FF2A0ED0002C15D1002A01D1002EC3
:100510001CD0002D14D08B4227D00220013B184064
:10052000013870BD002EEED002204042F9E7002DC8
:10053000FAD1FF2A0ED0002A0ED1002EEDD00BE00A
:1005400001230139994308000130EAE70020002D1A
:10055000E7D0E2E7002EE7D18B42DED1944205DD01
:100560000221581E08400138DBE70024A24204DCC7
:10057000B542D2D80020B542D3D2581E01239843A9
:100580000130CEE730B5420044024D02C30F4800AF
:10059000640A120E6D0A000EC90FFF2A12D0FF283E
:1005A0000CD0002A12D1002819D1002D17D1002C0F
:1005B0002BD00220013B1840013826E0002DF0D05E
:1005C000022022E0002CFBD1FF281FD000281FD1E1
:1005D000002D1DD10220013B1840013815E0002CF0
:1005E0000ED08B42E5D10022904204DCAC42E0D830
:1005F0000020AC4209D2581E01239843013004E088
:100600000123013999430800013030BD002DD7D1B5
:100610008B42CED18242E7DD0221581E08400138CC
:10062000F3E7C046F0B54E4657464546DE46E0B5D0
:1006300043025B0A450083B00F1C99462D0EC60F7E
:10064000002D57D0FF2D24D08020DB00C00418439C
:10065000002381469A469B467F3D7C027A00FB0F31
:10066000640A120E984623D0FF2A4BD0E300802460
:100670000020E4047F3A1C43AD186B1C47460193ED
:10068000534677403A000F2B48D87D499B00CB5802
:100690009F46002B00D085E008339A46063B9B46D8
:1006A0007C027A00FB0FFF25640A120E9846DBD10C
:1006B000002C00D090E0524601231A4392460120BC
:1006C000DBE74C4658461700022824D0032800D107
:1006D000CFE00022002301284DD15802D205400A64
:1006E000FF071043384303B03CBC90469946A246EE
:1006F000AB46F0BD002B5BD104239A46033B00259B
:100700009B46AAE7FF35002C60D1524602231A43CC
:1007100092460220B1E7FF220023DEE74B461B0C86
:100720009C464B462604360C180461463300220CC6
:100730006446000C43434E435043544380191A0C03
:100740001218964203D9802149028C4664441B0446
:100750001B0C1004C01883015E1EB341800E1843A9
:10076000130C1B199B0103431C00230179D50123A2
:1007700062081C401443019A7F32002A4DDD630752
:1007800004D00F232340042B00D00434230103D5CD
:100790003C4B019A1C408032FE2ABCDCA3015B0A60
:1007A000D2B29AE70C239A46093BFF259B4654E7B1
:1007B000180000F04DFA4A46431F76259A40002360
:1007C0006D4291462D1A9A469B4646E752460323B0
:1007D0001A439246032050E7200000F039FA431FE5
:1007E0002D1A9C40763D002047E780230027DB033D
:1007F000FF2272E7424666E74C463200584662E7FF
:1008000080234A46DB031A4222D01C4220D12343D4
:100810005B025B0A4746FF225FE701239A1A1B2A05
:1008200021DC23000199D3409E318C401A00230023
:100830005C1EA34113435A0704D00F221A40042A16
:1008400000D004335A0111D49B015B0A002244E713
:1008500080234A46DB0313435B025B0A3700FF2217
:100860003BE7019587E70022002336E701220023BA
:1008700033E78023DB0323435B025B0AFF222CE781
:10088000CC3B0008FFFFFFF7F8B54746CE464400D3
:10089000C20F80B547024802400A844666464800B7
:1008A0007F0A240EF60025009046FB00000EC90FBB
:1008B000B146FF2800D185E001267140261A9142F9
:1008C00057D0002E43DD002800D07FE049460029A4
:1008D00000D1AAE0013E002E00D0F7E05B1A5A01D9
:1008E00000D48BE09B019C09200000F0B1F9053891
:1008F0008440854200DDD3E0451B230020200135E4
:10090000EB40451BAC40621E944123430724002565
:100910001C40012241460A40002C04D00F211940FE
:10092000042900D00433590100D480E00135ECB231
:10093000FF2D00D0A3E0FF2400235B02E405580A4A
:10094000D207204310430CBC90469946F8BD002EB8
:1009500074D1601CC0B2012800DCA7E04A469C1A92
:10096000620100D5B6E0002CBED100220024002395
:10097000E3E7002E00DC85E0002846D0FF2C49D0BC
:1009800080224846D2041043814601221B2E09DCF6
:1009900020204C46801B84404A462000F240441EE2
:1009A000A04102439B185A0128D50135FF2D00D1E3
:1009B000A8E00122072494491A405B080B40134326
:1009C0001C40A6E7002E00D078E775E7FF2C54D036
:1009D00080224946D2041143894601221B2E09DC9C
:1009E00020214846891B88404A460100F240481EA3
:1009F00081410A439B1A5A0100D573E701224146FF
:100A00000A40590700D089E711E04846002858D12C
:100A1000FF2C0CD1DB08002B00D18CE78020C00319
:100A200003435B025B0AFF2487E7FF2C25D0DB082A
:100A3000FF2DF0D05B025B0AECB27EE7002C4DD0BC
:100A4000FF2818D08024E404724223431B2A00DDCF
:100A5000C4E01C002025D440AA1A93405A1E93419A
:100A600023434A460500D31A884638E7721CF8D05B
:100A7000F243FF28EAD10A004B46FF25D7E79B0146
:100A80005B0A5AE7002E41D1651CE9B2012945DD18
:100A9000FF2D00D14FE707244B445B081C4038E78B
:100AA00007225A4B2D1A2340144032E7002C1DD147
:100AB000002B7AD14B46002B00D191E00A00002593
:100AC000B5E7013E002E19D14B446CE7FF2C84D1D1
:100AD000FF25ACE74A468846D41A05E7002BC5D166
:100AE0000A00FF28C8D005004B46A0E7002B49D1DB
:100AF0004B46002B77D00A00FF2598E7FF2C00D04B
:100B000043E787E70A00FF24002316E7002C15D1EE
:100B1000002B57D1FF28E6D14B467BE7002C20D194
:100B2000002B57D04946002953D04B445A0168D571
:100B30000724364A1C4001251340EAE6FF28EBD083
:100B40008022D204764213431B2E53DC2025AD1B9A
:100B50001A00AB40F2405C1EA34113434B44050016
:100B600021E7002BD8D04946002900D152E7802147
:100B7000C9030F4200D14DE76046084200D049E763
:100B80004B4647E74846FF25002800D14FE7802223
:100B9000D203174204D06046104201D14B4688462A
:100BA00001224146FF250A4041E7484600281FD060
:100BB0001A1A500120D54A460724D31A1C408846E9
:100BC0000025A6E6741CC9D0F643FF28BCD14B46CD
:100BD00020E799464B460025DB082BE7012340E739
:100BE00000220023A9E680230022DB03FF24A4E6E1
:100BF00000251CE70123B1E7002AF1D013000025EE
:100C0000FCE60025FAE6C046FFFFFF7DFFFFFFFB85
:100C100041024200C30F490A120E00207E2A0DD95C
:100C20009D2A0CD8802000040143952A0ADC9620D6
:100C3000821AD1404842002B00D108007047034A75
:100C40009818FBE7963A9140F4E7C046FFFFFF7F14
:100C50001C2101231B04984201D3000C10391B0AEC
:100C6000984201D3000A08391B09984201D30009B0
:100C7000043902A2105C40187047C0460403020207
:100C8000010101010000000000000000F0B5CE46A7
:100C9000474680B583B0A04EA04C370045370F22A1
:100CA0002100380002F07AFE350063352100103152
:100CB0000522280002F072FE210018310A2298480D
:100CC00002F06CFE210024310522964802F066FEF7
:100CD00021002C310F22944802F060FE21003C31AB
:100CE0000522924802F05AFE14229149914802F0DE
:100CF00055FE5623FF339946B1440023002249464E
:100D0000380001F00DF94844441C2C2707700023DB
:100D100000222100824801F003F92018441C0770CA
:100D2000002300222100280001F0FAF823185D1C9E
:100D30001F703000353000230022290001F0F0F848
:100D40002818451C0770300072300023002229004B
:100D500001F0E6F82818451C0770300082300023A7
:100D60000022290001F0DCF82818451C077030002B
:100D7000D63000230022290001F0D2F82818451CA3
:100D800007703000C93000230022290001F0C8F8A4
:100D90002818451C0770002300222900654801F02F
:100DA000BFF82D186C1C2F703000CC3000230022AF
:100DB000210001F0B5F82018441C07703000A53060
:100DC00000230022210001F0ABF82018441C07701A
:100DD000002300222100544801F0A2F82018441CEE
:100DE0000770002300222100504801F099F82018D4
:100DF000441C07700023002221004A4801F090F8AB
:100E00002418651C2770A6235B009846B044002276
:100E10004146494801F09FF809344B46E41A07342B
:100E2000E4B2009431005031FF310422684601F0F1
:100E300065F9412397225200B3545422FF32B35430
:100E40001433FF33F7544346EC1A33194D33FF3351
:100E50001B786A46D01D0370012342469B1A5B191A
:100E6000F3184D33FF331B786A46971D93712100A9
:100E70004931FF3189190431022201F06DF9022153
:100E80004346C91A49194931FF31891904310222EF
:100E9000380001F061F92100404600F0C1F804215A
:100EA0004346C91A49194931FF31891904310022D1
:100EB000224801F050F807214346C91A691889B23F
:100EC000A5235B00F152330021331A7801221A70F6
:100ED0005A7800225A709A7800229A70DA780022A2
:100EE000DA7007393000D130FF3000F09DF800286B
:100EF0000DD0094B31331A7801221A705A7800222A
:100F00005A709A7800229A70DA780022DA7003B068
:100F10000CBC90469946F0BDF4160020000000205D
:100F200048170020B7170020DA1700209B17002071
:100F30000C3C0008F0170020203C0008243C00086E
:100F4000F0B50200022906D90378851C407896780E
:100F50000239022433E0022907D001290CD0050010
:100F6000002400260020002329E00378851C407817
:100F700002240026013922E00378851C0124002682
:100F8000002000211BE0FF2B0CD01A005B00104F4B
:100F9000FB5C434052000F48805C704001390135D2
:100FA0002E780CE0022203005340300050400139FB
:100FB00001352E7803E00131013CE4B2002600291E
:100FC000E1D1002CF7D1AA1E1370013D2870F0BDAD
:100FD000580600205804002070B582B004000D00AF
:100FE00000230193FFF7ACFF6619022201A930002C
:100FF00001F0B2F8681C201802226B46991D01F01E
:10100000ABF80422310001A800F04DFE0422034990
:1010100001A800F048FE02B070BDC046F0160020E6
:1010200010B5FFF7D9FF10BD30B583B004000D0037
:10103000002301934018042201A900F034FE290086
:101040002000FFF7C9FF042201A9054800F074FF42
:10105000002802D1002003B030BD0120FBE7C046CC
:10106000F016002070B50500224C2378102293431F
:10107000237023780C3A934323702000D130FF3043
:101080008032002102F093FCA4235B000022E25294
:10109000002406E0291964230122174802F0BAFA55
:1010A00001342B5D002BF5D129006731124C6433DC
:1010B0000122200002F0AEFA2900683164230122E7
:1010C000200002F0A7FA6A23E95A00220B4801F037
:1010D00055F9084B1B88DB0605D4084B186801F04E
:1010E00087F90028F5D0054B186801F06DF901204B
:1010F00070BDC046F416002048190020D01600200C
:1011000010B50B00010028310022034800F0AEFDAD
:10111000002800D0012010BDC418002010B5FFF732
:10112000A1FF10BD0300581C1A7803008A42FAD1AF
:101130007047000010B582B03A211D48FFF7F2FF5A
:10114000002105E01B4B5B18AD331A7001300131F3
:1011500002783A2AF6D1002105E0164B5B18BD3320
:101160001A700130013102780D2AF6D1441D124B5C
:101170001A8801AB1A80002203E001A98B540134C4
:10118000013223780D2BF8D104220C4901A800F07C
:1011900095FD0134002105E0064B5B18FC331A7005
:1011A000013401312278002AF6D102B010BDC046C8
:1011B000C4180020F4160020F03A0008EE170020B2
:1011C00010B50A48FFF74EFF3A210948FFF7AAFF7A
:1011D0000130002105E0074B5B1882331A700130A3
:1011E000013102780D2AF6D110BDC0465808002002
:1011F000C4180020F416002010B50A486C30FFF720
:1012000031FF0A210848FFF78DFF002105E0074B59
:101210005B1872331A700130013102780D2AF6D151
:1012200010BDC04658080020C4180020F416002045
:1012300010B50A485830FFF715FF0A210848FFF794
:1012400071FF002105E0074B5B1835331A70013040
:10125000013102780D2AF6D110BDC046D808002011
:10126000C4180020F416002010B50D484430FFF7D4
:10127000F9FE3A210B48FFF755FF013000210278B3
:101280000D2A08D0064B5B186C331B78934204D1AF
:1012900001310130F3E7012010BD0020FCE7C0461A
:1012A00058090020C418002010B507483030FFF757
:1012B000D9FE2C210548FFF735FF0378312B01D0EB
:1012C000002010BD0120FCE7D8090020C418002030
:1012D00010B50A481C30FFF7C5FE3A210848FFF751
:1012E00021FF0130002105E0064B5B1896331A7090
:1012F0000130013102780D2AF6D110BD580A0020C4
:10130000C4180020F416002010B511480830FFF76B
:10131000A9FE22210F48FFF705FF0130002306E058
:101320000D4AD2183032FF3211700130013301788A
:101330002C29F5D1013006E0074AD2183832FF32A5
:1013400011700130013301782B29F5D110BDC04651
:10135000D80A0020C4180020F416002010B5FFF7AA
:10136000D3FF034A97235B004121D15410BDC046EF
:10137000F416002030B583B0D44B1A79072A00D96F
:101380004DE19300D24AD3589F46D24B1B88DB07CE
:101390000CD4D04B1B889B0700D440E1FFF764FFBF
:1013A000002812D1C94B00221A7138E1C94B1B88A1
:1013B0009B07EED400F0D6FBC7487430FFF752FE0F
:1013C000C6486030FFF74EFEE3E7FFF7F9FEFFF790
:1013D00013FFFFF72DFFBF4A137808210B4313704B
:1013E000BA4B01221A711AE1BD484C30FFF73AFEA0
:1013F000FFF75AFF002808D1B64A137840218B43E3
:101400001370B24B01221A7109E1FFF761FFB14A73
:10141000137840210B431370AC4B02221A71FEE08B
:10142000AC4B1B885B0600D4F9E0A84B5A79042A20
:1014300000D9F4E09300AB4AD3589F46AA4838300D
:10144000FFF76CFEA94C24342000FFF767FE002153
:101450002000FFF755FE002809D09E4A117880230E
:101460005B420B431370994B01225A71D7E0994AA2
:1014700011787F230B401370D1E09D4C2000103079
:10148000FFF74CFE7C342000FFF748FE00212000CF
:10149000FFF736FE002811D08E4A531C51780121E7
:1014A0005170927800225A709A7800229A70DA78F5
:1014B0000022DA70854B02325A71B0E08D486830F4
:1014C000FFF72CFE834A531C51780021517092780B
:1014D00000225A709A7800229A70DA780022DA7024
:1014E0009DE085485430FFF719FE844C40342000BD
:1014F000FFF714FE00212000FFF702FE002811D0A4
:10150000744A531D517901215171927900225A7008
:101510009A7800229A70DA780022DA706B4B0332E4
:101520005A717CE06B4A531D5179002151719279B7
:1015300000225A709A7800229A70DA780022DA70C3
:101540006DE06F482C30FFF7E9FD6E4C1834200039
:10155000FFF7E4FD00212000FFF7D2FD002811D0A5
:101560005C4A1300517A012151729A7A00229A72D0
:10157000DA7A0022DA721A7B00221A73534B043291
:101580005A714CE060480430FFF7C8FD514A13001F
:10159000517A002151729A7A00229A72DA7A0022E4
:1015A000DA721A7B00221A7339E057487030FFF75D
:1015B00059FD564C5C342000FFF754FD00212000FB
:1015C000FFF79EFD002813D0424A1300517B0121F2
:1015D00051739A7B00229A73DA7B0022DA731A7CA9
:1015E00000221A74394B01325A7102321A7116E014
:1015F000384A1300517B002151739A7B00229A7361
:10160000DA7B0022DA731A7C00221A742F4B043220
:101610005A7104E0FFF7A2FE2C4B04221A7103B0AA
:1016200030BD2A4B9B79012B00D1ADE0002B77D048
:10163000022B00D1D4E0032BF1D16B461A22DA71D0
:10164000334C20006430FFF769FDFFF71FFB2100DA
:10165000A031002300222F4800F008FB0028DED034
:10166000FA24A4002C4D230084222C49280001F0E8
:10167000D1FF6423012269460731280001F0CAFF27
:10168000200000F0CFFE224800216430FFF738FD33
:10169000002800D1D0E00F4A1300517F0021012023
:1016A0005077907F00209077D07F0020D0771D3337
:1016B000D8780020D870054B997105301871A32394
:1016C0005B00D1540233D152A9E7C046D0160020A6
:1016D000BC3A0008F4160020D80A0020580B00205D
:1016E000D80B0020DC3A0008580C0020D80C002051
:1016F000580D0020D80D0020580E0020D80E0020D4
:10170000580F0020D80F002058100020D8100020BB
:1017100058130020C4180020481900204018002049
:10172000A34C48342000FFF7F9FC00212000FFF70C
:10173000E7FC002811D09F4A1300517C012151740D
:101740009A7C00229A74DA7C0022DA741A7D0022D4
:101750001A750132984B9A7161E798483430FFF757
:10176000DDFC97482030FFF7D9FC924A1300517CEA
:10177000002151749A7C00229A74DA7C0022DA7477
:101780001A7D00221A754AE78E4C0C342000FFF7B0
:10179000C5FC00212000FFF7B3FC002811D0854ACA
:1017A0001300517D012151759A7D00229A75DA7DD1
:1017B0000022DA751A7E00221A767F4B02329A7165
:1017C0002DE77C4A1300517D002151759A7D00223E
:1017D0009A75DA7D0022DA751A7E00221A761EE7E3
:1017E000784C78342000FFF799FC00212000FFF7A7
:1017F00087FC002811D06F4A1300517E01215176D9
:101800009A7E00229A76DA7E0022DA761A7F002209
:101810001A77694B03329A7101E7664A1300517EC9
:10182000002151769A7E00229A76DA7E0022DA76BC
:101830001A7F00221A77F2E65E4A1300517F0021D8
:1018400051779A7F00229A77DA7F0022DA771D3368
:10185000DA780022DA70E2E6842200215A4802F0A7
:10186000A6F800225949544800F088FD514B1B88C6
:10187000DB0605D4504B186800F0BAFD0028F5D0FF
:101880004D4B186800F0A0FD4A4AA3235B00D35CCF
:10189000012B00D0C3E6002300224D494A4800F046
:1018A000E5F9002817D1444B03229A7101321A71CD
:1018B000404A130025331978002119705978002106
:1018C0005970997800219970D9780021D970A32393
:1018D0005B00D154A3E6374C230025331A7801224C
:1018E0001A705A7800225A709A7800229A70DA7820
:1018F0000022DA70230029331A7800221A705A78ED
:1019000000225A709A7800229A70DA780022DA70EF
:10191000FFF710FC29483430FFF700FC284820303E
:10192000FFF7FCFB0022A3235B00E254224B0632AC
:101930001A7174E6204B07221A711E4B2D331A7848
:1019400001221A705A7800225A709A7800229A70EE
:10195000DA780022DA7062E61E485030FFF782FB28
:1019600000221D49144800F009FD19E0114B1A78B6
:1019700002210A431A701A7801210A431A70293386
:101980001A7819705A7800225A709A7800229A7040
:10199000DA780022DA70084B1A71186800F014FD2A
:1019A000054B186800F024FD0028DFD137E6C0465B
:1019B00058110020F4160020D0160020D811002065
:1019C00058120020D8120020C41800201027000050
:1019D000283C0008D813002050C3000010B502684E
:1019E0000D4B9A4205D001220C490D4801F046FFEB
:1019F00010BD0C4AA4204000135AD118D131FF3138
:101A0000064C24780C7001339B059B0D1352A323C5
:101A10005B000121D154E6E700380140EC160020BC
:101A200048190020F416002030B595B02C22002172
:101A300009A801F0BCFF1022002104A801F0B7FFA3
:101A400010220021684601F0B2FF0224089401250B
:101A50000B9510230C931094A0239B03129308A8BA
:101A600000F0C8FE0723049305940024069407940D
:101A7000012104A801F042F900950294684601F0A2
:101A8000EBF915B030BD10B500F020FDFFF7CCFF2D
:101A900000F05CF8FFF76EFCFCE7000010B50A48A8
:101AA0000A4B0360E1235B024360002383608022D2
:101AB0009201C26003610C2242618361C3610362CF
:101AC000436201F057FE10BD481900200038014064
:101AD000F0B589B01422002103A801F068FF184B6B
:101AE000596980208002014359615A69024001927C
:101AF000019A5A69802109030A435A615B690B40C4
:101B00000293029BC027BF000E4D0022390028001F
:101B100000F06AFE012603960B4B04930024059403
:101B2000902003A9C00500F099FD03970496059441
:101B3000069403A9280000F091FD09B0F0BDC0464D
:101B400000100240000800480000121010B5FFF716
:101B5000BFFF034A137801210B43137010BDC04629
:101B6000F416002010B5FFF799FF01220849094833
:101B700001F084FE084A137802210B431370074CCE
:101B80002000FFF76FFA20006C30FFF76BFA10BDF2
:101B9000EC16002048190020F41600206C150020D7
:101BA00082B00A4B996901221143996199690A40EF
:101BB0000092009ADA69802149050A43DA61DB69FB
:101BC0000B400193019B02B07047C04600100240D9
:101BD00010B588B004001422002103A801F0E7FE2C
:101BE0002268174B9A4201D008B010BD154B996975
:101BF0008020C001014399619A6902400192019AD3
:101C00005A69802189020A435A615B690B40029339
:101C1000029BC023DB00039302230493013306934A
:101C2000023B0793902003A9C00500F017FD002296
:101C300000211B2000F06CFC1B2000F09BFCD3E774
:101C400000380140001002407047FEE770477047BF
:101C500010B500F04BFC00F0B5FC10BD10B502480B
:101C600001F0BCF910BDC0464819002070B5002A2B
:101C700008D114000D5D9D420FD0065DAE4210D11B
:101C80000134F7E70023934205DACD5CC45CA5423A
:101C900005D10133F7E7012070BD0120FCE70020EA
:101CA000FAE71000F8E705E003780B700130013126
:101CB000013AD2B2002AF7D17047000010B50023D4
:101CC0000B60062A3DD893001F4CE3589F460478CA
:101CD000303C1E4B63430B6001300478303C1C4B9E
:101CE00063430C68A44663440B600130441C0078D5
:101CF000303843011B1A9B001B18D8000B689C4608
:101D000060440860601C2478303C642363430C68A2
:101D1000A44663440B60441C0078303883001B18D1
:101D200058000B689C46604408602378303B086884
:101D3000844663440B60D0B210BD0400E2E70400A7
:101D4000F3E70020F8E7C046F43A0008A086010057
:101D50001027000070B505001B49FEF75FFA041E4E
:101D600000D0012419492800FEF758FA0A21FEF78D
:101D70003BFB214300D00134FA2189002800FEF703
:101D80004DFA0A21FEF730FB214300D001346421D3
:101D90002800FEF743FA0A21FEF726FB214300D074
:101DA00001340A212800FEF739FA0A21FEF71CFB4C
:101DB000214300D001340A212800FEF715FB2143FE
:101DC00000D00134E0B270BDA086010010270000F1
:101DD00070B505000C00FFF7BDFF06283FD8800056
:101DE000204B1B589F4620492800FEF717FA303039
:101DF000207001341D492800FEF710FA0A21FEF771
:101E0000F3FA303121700134FA2189002800FEF7FD
:101E100005FA0A21FEF7E8FA661C303121706421C8
:101E20002800FEF7FBF90A21FEF7DEFA741C3031B8
:101E300031700A212800FEF7F1F90A21FEF7D4FAE1
:101E4000661C303121700A212800FEF7CDFA3031AE
:101E50003170012070BD2600E1E72600F3E7002085
:101E6000F8E7C046103B0008A086010010270000DC
:101E700070B504000D00002808DB2000FFF76AFFA2
:101E8000062844D88000234B1B589F4644422D23EC
:101E90000B700135F1E720492000FEF7BFF9303023
:101EA000287001351D492000FEF7B8F90A21FEF718
:101EB0009BFA303129700135FA2189002000FEF7A4
:101EC000ADF90A21FEF790FA6E1C303129706421B9
:101ED0002000FEF7A3F90A21FEF786FA751C3031BF
:101EE00031700A212000FEF799F90A21FEF77CFAE9
:101EF0006E1C303129700A212000FEF775FA30314E
:101F00003170012070BD2E00E1E72E00F3E70020C4
:101F1000F8E7C0462C3B0008A0860100102700000F
:101F200030B5040002E001340D700131257895428E
:101F3000F9D1201A181830BD10B5002A07D00C7836
:101F400003789C4205D101310130013AF5E70120C7
:101F500010BD0020FCE702E001300B700131037876
:101F60009342F9D170470000F0B5D6464F4680B590
:101F700087B006000F0001920A22002103A801F099
:101F800016FD34685649201CFEF74CFB051CFEF775
:101F90006BFA0200643A534B9A4209D903000A3B98
:101FA000592B0ED9013808280ED80323994601E091
:101FB00001239946019B052B30D89B004A4AD358F0
:101FC0009F4602239946F5E700239946F2E74749E1
:101FD000201CFEF727FB306034680021201CFEF730
:101FE00015FA00281DD1201CFEF73EFA85B2002408
:101FF000002621E03E49201CFEF714FB3060EBE791
:102000003560E9E73B49201CFEF70CFB3060E3E755
:102010003949201CFEF706FB3060DDE70023336002
:10202000DAE730233B70012654E0731C03AA2E210B
:102030009155DEB20134A4B2002D14D06B469B88BA
:10204000A342F2D0731CDBB29A460A212800FEF7A5
:10205000E1F8303103AB99550A212800FEF754F816
:1020600085B25646E6E74B46032B0DD0022B1CD01B
:10207000012B18D1731CDBB203AA2E219155023615
:10208000F6B20231D1540EE0721CD2B203AB302151
:102090009955B01CC0B29954F21CD2B22E241C54D3
:1020A0000436F6B29954330012E0711CC9B203AA87
:1020B00030209055B31CDBB22E2454540336F6B2B4
:1020C000D054F0E7013BDBB203AAD25C3A7001378F
:1020D000002BF7D1300007B00CBC91469A46F0BDFA
:1020E00000007A4483030000483B00080050C347C7
:1020F00000401C460000C84200002041F0B585B0F9
:102100000F000192134B1A6802929B8802AA9380D7
:10211000046800250EE00A212000FEF77BF86E1C03
:10212000F6B2303102AB59550A212000FDF7ECFF21
:1021300004003500002CEED1019B05E0013BDBB231
:1021400002AAD25C3A700137002BF7D1019805B092
:10215000F0BDC0464C3C0008F0B585B004000E0050
:1021600001920322002103A801F021FC257800241C
:102170000EE0671CFFB20A212800FEF74BF8303151
:1021800003AB19550A212800FDF7BEFFC5B23C007C
:10219000002DEED1019B04E030223270013BDBB216
:1021A0000136A342F8D805E0013CE4B203AB1B5D65
:1021B00033700136002CF7D1019805B0F0BD000056
:1021C00010B500230B60052A32D89300194CE35850
:1021D0009F460478303C184B63430B600130047811
:1021E000303C63011B1B9B001B19DC000B689C46E9
:1021F00064440C600130431C0478303C642060432C
:102200000C68A44660440860581C1C78303CA3004D
:102210001B195C000B689C4664440C600378303BDF
:102220000868844663440B60100010BD0300EBE7B0
:102230000020FAE7603B00081027000010B50023DB
:102240000B60062A3DD893001F4CE3589F46047844
:10225000303C1E4B63430B6001300478303C1C4B18
:1022600063430C68A44663440B600130441C00784F
:10227000303843011B1A9B001B18D8000B689C4682
:1022800060440860601C2478303C642363430C681D
:10229000A44663440B60441C0078303883001B184C
:1022A00058000B689C46604408602378303B0868FF
:1022B000844663440B60100010BD0400E2E7040094
:1022C000F3E70020F8E7C046783B0008A08601004D
:1022D0001027000010B503000B4A1268002A08D02E
:1022E000094A1068C3186A46934206D8064A136022
:1022F00010BD054A05491160F2E701F01BFB0C23F4
:10230000036001204042F3E7D8160020D8190020CE
:1023100070470000064B1B68002B07D0012000E02F
:1023200001301B69002BFBD1013070470120FCE715
:10233000CC190020F8B507000F4B1C68142001F0E1
:1023400023FB051E15D000264672FFF7E3FF286029
:1023500038602E61084B1B68002B04D1064B1D60B2
:10236000012007E01C002369002BFBD1256101201F
:1023700000E00020F8BDC046CC19002070B5040074
:102380000E0015000368002B0CD00E4B1B68002BB1
:1023900016D01A6821688A4209D01B69002BF8D12F
:1023A00000200CE0FFF7C6FF0028EED107E0012275
:1023B0005A720022DA609A725E601D72012070BD4E
:1023C0000020FCE7CC190020084B1B68002B0BD029
:1023D0001A68824204D01B69002BF9D1002002E068
:1023E00000225A72012070470020FCE7CC1900201F
:1023F0000B4B1B68002B10D01A68824204D01B695B
:10240000002BF9D1002070479A7A012A01D00020D0
:10241000F9E700229A720120F5E70020F3E7C046B1
:10242000CC19002010B5010000220548FFF7A6FFD7
:10243000034B1868FFF7DCFF0028F9D010BDC04639
:10244000E01600200D4B1B68002B07D17047DA689F
:102450000132DA6005E01B69002BF7D05A7A012AB5
:10246000F5D0DA6859688A42F5D301229A720022BF
:10247000DA601A7A002AEED15A72ECE7CC19002001
:1024800010B504000F4B1978FA208000FDF73CFED0
:1024900001000D4B1868FDF737FE00F077F80028B3
:1024A0000DD1032C01D901200AE0013000222100C6
:1024B000404200F02DF8034B5C60002000E001205A
:1024C00010BDC046481600204416002010B5064A2C
:1024D000136810210B4313600020FFF7D1FFFFF7B3
:1024E0005FFB002010BDC04600200240034A116877
:1024F000034B1B785B1813607047C046D01900204F
:1025000048160020014B18687047C046D0190020BB
:1025100070B5002811DB8308144DC0339B005C5953
:1025200003221040C000FC3216008640B4438901EB
:102530000A40824022435A5170BDC0B20F2303406B
:10254000083B9B0806339B00094A944663445D6838
:1025500003242040C000FF2214008440A5438901C9
:102560001140814029435960E6E7C04600E100E0A0
:1025700000ED00E0002805DB1F2318401E3B8340D0
:10258000014A13607047C04600E100E001380A4B81
:1025900098420FD8094A50600948036A1B021B0A77
:1025A000C02109060B4303620023936007331360C5
:1025B000002070470120FCE7FFFFFF0010E000E073
:1025C00000ED00E010B5FFF73DFF10BD10B5212371
:1025D000C35C022B06D0042383631C330022C25445
:1025E000012010BD026813680E218B43136001683F
:1025F0000A6801239A430A60C26B1900046CA14067
:102600005160212283541F330022C2540020E8E786
:1026100010B52123C35C022B03D004238363012064
:1026200010BD026813680E218B43136001680A68AD
:1026300001239A430A60C26B1900046CA1405160E7
:10264000212283541F330022C254436B002B02D03B
:1026500098470020E4E70020E2E70000F0B5CE460E
:10266000474680B583B0002333E0032600E0002610
:10267000AE4035003D430234A400554EA551554CA3
:102680002568D4432E0026404F68FF0301D515432B
:102690002E00504D2E606D682E0026404F68BF03FF
:1026A00001D515432E004B4D6E60AD682E002640BF
:1026B0004F68FF0201D515432E00464DAE60ED6810
:1026C0002C404E68B60201D52A431400414AD4601A
:1026D00001330A681400DC4074D001249C4022407D
:1026E000F6D04D686E1E012E03D9112D01D0122D8A
:1026F00012D185685F000326BE40B5432E00CD6829
:10270000BD40354385604568A5434C6826090124D2
:1027100034409C402C434460C7685E000324B440AE
:10272000E443A44627408D68B5403D43C5604C68EE
:10273000022C01D0122C10D1DC080834A400A146D0
:10274000275807251D40AD000F24AC40A7430C6956
:10275000AC4025003D434C46255005686446254065
:1027600003244F683C40B4402C4304604C68E400B0
:10277000AED5194DAE6901242643AE61AD692C403A
:102780000194019C9C08A51CAD00114EAF59032576
:102790001D40AD000F26AE40B7439026F605B0426F
:1027A00000D164E70D4EB04208D00D4EB04207D0C4
:1027B0000C4EB04200D158E7052659E7012657E7ED
:1027C000022655E703B00CBC90469946F0BDC046C2
:1027D00000000140000401400010024000040048D5
:1027E00000080048000C0048002A01D181627047AF
:1027F0008161FCE770B582B0041E00D132E203684B
:10280000DB0726D5AE4B5A680C231340042B18D097
:10281000AB4B5A680C231340082B0ED06368012B76
:102820003CD0002B51D1A64B1A68A6490A401A6029
:102830001A68A5490A401A6036E0A14B5B68DB03C1
:10284000ECD59F4B1B689B0303D56368002B00D11D
:102850000BE223689B0773D5994B5B680C221A42E5
:102860005DD0974B5A680C231340082B53D0E36874
:10287000002B00D186E0924A136801210B431360BC
:10288000FFF740FE05008E4B1B689B0771D4FFF7D6
:1028900039FE401B0228F6D90320E4E1884A11687A
:1028A00080235B020B4313606368002B25D0FFF786
:1028B00029FE0500824B1B689B03CAD4FFF722FE4A
:1028C000401B6428F6D90320CDE1052B09D07C4BB1
:1028D0001A687C490A401A601A687B490A401A60E3
:1028E000E2E7774B19688022D2020A431A6019681E
:1028F000802252020A431A60D6E7FFF703FE050062
:102900006F4B1B689B03A4D5FFF7FCFD401B64289D
:10291000F6D90320A7E16A4B5B68DB03A7D4684BB9
:102920001B689B0704D5E368012B01D001209AE1C5
:1029300063490B68F82293432269D20013430B606A
:1029400023681B0744D5E369002B2ED05C4A536AE9
:1029500001210B435362FFF7D5FD0500584B5B6A1D
:102960009B0735D4FFF7CEFD401B0228F6D9032084
:1029700079E153490B68F82293432269D20013434B
:102980000B60DDE74E4A136801218B431360FFF7AC
:10299000B9FD05004A4B1B689B07D1D5FFF7B2FD77
:1029A000401B0228F6D903205DE1454A536A012104
:1029B0008B435362FFF7A6FD0500414B5B6A9B0703
:1029C00006D5FFF79FFD401B0228F6D903204AE1F8
:1029D00023685B0700D47FE0394BDB69DB001DD443
:1029E000374AD169802040050143D161D369034052
:1029F0000193019B0125354B1B68DB0510D5A368AE
:102A0000012B21D0002B36D12D4B1A6A01218A438C
:102A10001A621A6A03318A431A621AE00025EAE749
:102A20002A4A116880235B000B431360FFF76AFD9D
:102A30000600264B1B68DB05E1D4FFF763FD801B16
:102A40006428F6D903200EE11D4A136A01210B43C5
:102A50001362A368002B24D0FFF754FD0600184B27
:102A60001B6A9B0736D4FFF74DFD801B184B98421D
:102A7000F5D90320F7E0052B09D0114B1A6A012183
:102A80008A431A621A6A03318A431A62E1E70C4BDD
:102A90001A6A04210A431A621A6A03390A431A623B
:102AA000D7E7FFF72FFD0600054B1B6A9B0711D5E3
:102AB000FFF728FD801B064B9842F5D90320D2E092
:102AC00000100240FFFFFEFFFFFFFBFF0070004011
:102AD00088130000012D33D02368DB0610D563690D
:102AE000012B33D0053351D1644A536B04218B43FE
:102AF0005363536BF4318B43A169C9000B43536398
:102B0000236A002B00D1B2E05C4A51680C220A40D3
:102B1000082A00D18AE0022B4FD0584A136858493E
:102B20000B401360FFF7EEFC0400544B1B689B0145
:102B30007AD5FFF7E7FC001B0228F6D9032092E0C4
:102B40004E4AD3694F490B40D361C5E74B4B5A6B93
:102B500004210A435A635A6B03390A435A63FFF745
:102B6000D1FC0500454B5B6B9B0706D4FFF7CAFC05
:102B7000401B0228F6D9032075E040494B6BF82230
:102B80009343A269D20013434B63B9E73B4B5A6BA3
:102B900004210A435A635A6B03398A435A63FFF785
:102BA000B1FC0500354B5B6B9B07A9D5FFF7AAFC71
:102BB000401B0228F6D9032055E0304A13683049FB
:102BC0000B401360FFF79EFC05002C4B1B689B011C
:102BD00006D5FFF797FC401B0228F6D9032042E0F8
:102BE000264BDA6A0F218A43E16A0A43DA625A689D
:102BF00025490A40A16A606A01430A435A6019687C
:102C0000802252040A431A60FFF77CFC04001B4B2D
:102C10001B689B0106D4FFF775FC001B0228F6D940
:102C2000032020E000201EE000201CE0012B20D02B
:102C3000124B5A68D96A80235B021340606A834250
:102C400001D001200FE00F230B40E16A8B4201D03D
:102C5000012008E0F0239B031A40A36A9A420AD09D
:102C6000012000E0012002B070BD0120FBE7002040
:102C7000F9E70120F7E70020F5E7C0460010024021
:102C8000FFFFFFFEFFFFFFEFFFFFC2FF30B589B080
:102C900004AA174B180032C832C2110002680A6039
:102CA0006A46103313CB13C21B681360114B5A686A
:102CB0000C231340082B19D1910C0733194004A899
:102CC000445C0C49C96A0B406946C95CD30308D40B
:102CD00063011B1B9801C01AC0000419200209B02F
:102CE00030BD0548FDF710FA6043F8E70248F6E703
:102CF000AC3B00080010024000127A0070B50400DE
:102D00000D00002800D181E0424B1A6801231340D6
:102D10008B420BD23F490B68012293432B430B603C
:102D20000B681A40AA4201D0012070E023689A077C
:102D30000ED55B0705D5384A5168E023DB000B430D
:102D40005360354A5368F0218B43A1680B435360AD
:102D50002368DB072DD56368012B1ED0022B22D000
:102D60002D4A1268920753D52B494A6803208243A3
:102D700013434B60FFF7C6FB0600274B5B680C2232
:102D80001A4063689B009A4213D0FFF7BBFB801B7D
:102D9000224B9842F1D9032039E01F4A126892036E
:102DA000E2D4012033E01C4A12689201DCD40120F5
:102DB0002DE0184B1A6801231340AB420BD915497B
:102DC0000B68012293432B430B600B681A40AA4205
:102DD00001D001201BE023685B0706D50E4A53682B
:102DE0000F490B40E1680B435360FFF74FFF0A4B5D
:102DF0005A6812090F2313400A4AD35CD8400A4B81
:102E000018600020FFF73CFB002000E0012070BDAF
:102E10000120FCE70020024000100240881300005F
:102E2000FFF8FFFF943B000844160020014B186890
:102E30007047C0464416002010B5FFF7F7FF044B5B
:102E40005A68120A07231340024AD35CD84010BDC7
:102E500000100240A43B000870B582B00400036873
:102E6000DB0335D53C4BDB69DB0048D43A4AD169FA
:102E7000802040050143D161D36903400193019B48
:102E80000125364B1B68DB053BD5334B1B6AC02243
:102E90009200134013D061680A409A420FD02E4B23
:102EA000186A2F4A02401E6A802149023143196282
:102EB000196A2C4E314019621A62C30735D4264A6A
:102EC000136A27490B4061680B431362012D3BD005
:102ED0002368DB0706D5204A136B03218B43A168C7
:102EE0000B43136323689B0633D51B4A136B1021D6
:102EF0008B43E1680B431363002002B070BD0025D3
:102F0000BFE7164A116880235B000B431360FFF78D
:102F1000F9FA0600114B1B68DB05B6D4FFF7F2FA8D
:102F2000801B6428F6D90320E7E7FFF7EBFA0600D9
:102F3000094B1B6A9B07C2D4FFF7E4FA801B0A4BBC
:102F40009842F5D90320D8E7D36908490B40D361EB
:102F5000BEE70020D1E7C0460010024000700040EC
:102F6000FFFCFFFFFFFFFEFF88130000FFFFFFEFE6
:102F7000026813680B490B401360026893682331A1
:102F8000FF318B439360036E012B05D02023C36771
:102F90000023036643667047026813680F318B4352
:102FA0001360F3E7DFFEFFFF704710B50268136898
:102FB00040218B4313602023836700238366FFF740
:102FC000F3FF10BD704710B5406A00235A228352A8
:102FD000083A8352FFF7F6FF10BD704770B5040042
:102FE0000168CB6908688D68854A1A400AD19E0637
:102FF00008D5860606D5636E002B00D1FAE02000C6
:103000009847F7E0002A00D181E001222A4002D14E
:103010007C4D28427BD0DD0707D5C50505D50126A7
:103020000E628025615931436151990709D5002A03
:1030300007D0216802250D627E356159042631438F
:103040006151590709D5002A07D0216804250D626E
:103050007C35615902263143615119070AD5810631
:1030600001D4002A06D02268082515628021625802
:103070002A4362501A050AD5420108D522688021E8
:10308000090111628021625820252A436250802262
:10309000A258002A00D1ADE09B0606D5830604D5D0
:1030A000636E002B01D0200098478023E2582368EC
:1030B0009B685B0602D42823134221D02000FFF72F
:1030C00057FF23689A68520616D59A6840218A43AA
:1030D0009A60236F002B0BD04B4A5A63206FFFF787
:1030E00097FA002800D185E0206F436B984781E074
:1030F0002000FFF767FF7DE02000FFF763FF79E026
:103100002000FFF75FFF80230022E25072E0226E72
:10311000012A09D01A0669D5020667D5A36E002BCD
:1031200068D02000984765E0DA06F3D5C206F1D5ED
:1031300010230B62226893685B0633D5216F0B68FE
:103140005B689BB2002B55D05820205A984251D929
:103150005A2023528B69202B1AD013682B490B401D
:103160001360226893680331FF318B4393602268B8
:1031700093683F318B4393602023E36700232366EA
:103180002268136830398B431360206FFFF71EFAF3
:103190005823E15A0233E35AC91A89B22000FFF7D3
:1031A0001CFF27E05823E15A0233E05A091A89B27A
:1031B000E35A9BB2002B1DD000291BD01368144882
:1031C00003401360226893682330FF308343936089
:1031D0002023E367002323666366226813680F30A9
:1031E000834313602000FFF7F8FE03E05B0601D580
:1031F000430600D470BD2000FFF7D7FEFAE7C046B3
:103200000F08000020010004C72F0008FFFEFFFF89
:10321000DFFEFFFF10B504005C23C35AC26F222AF1
:1032200005D00268936908210B43936110BD0268C1
:10323000928CDBB21340426D1370436D01334365D2
:103240005A22835A013B9BB28352835A9BB2002B72
:10325000ECD1026813680F490B4013600268936851
:103260002331FF318B4393602023C36700234366E0
:10327000036E012B04D0FEF7B1FB00232366D5E7D4
:10328000026813680F318B4313605823C15AFFF74C
:10329000A4FEF2E7DFFEFFFF10B504005C23C25A74
:1032A000C36F222B05D00268936908210B439361F9
:1032B00010BD03689B8C1340426D1380436D023335
:1032C00043655A22835A013B9BB28352835A9BB275
:1032D000002BEDD1026813680F490B4013600268A0
:1032E00093682331FF318B4393602023C36700230E
:1032F0004366036E012B04D0FEF770FB00232366A8
:10330000D6E7026813680F318B4313605823C15A04
:10331000FFF763FEF2E7C046DFFEFFFF10B50400D3
:1033200083680269134342691343C2691343016806
:103330000A684F48024013430B60226853684D49A6
:103340000B40E1680B435360226AA3691A4321686A
:103350008B684948034013438B602368474A934274
:1033600014D0474A934225D0102380221202E169EB
:10337000914223D0022B00D169E04ED9042B68D0B2
:10338000082B00D06EE0802000024CE03D4B1A6B11
:1033900003231340012B09D0002B05D0022B07D0AB
:1033A000032B09D01023E0E70023DEE70423DCE74A
:1033B0000823DAE70023D8E70223D6E7022B2AD036
:1033C00006D9042B24D0082B46D18020000205E02A
:1033D000002B41D1FFF730FD00283FD0400063684B
:1033E0005B08C0186168FCF78FFE83B20004000C14
:1033F00001001039244A914232D80F2293431A0017
:1034000040080723184010432368D86000201AE0C2
:10341000FFF73CFCE0E71D48E0E7002B22D1FFF777
:103420000BFD002820D063685B0818186168FCF762
:103430006BFE0004000C0200103A134B9A4215D8A0
:103440002368D860002000236366A36610BD0F4880
:10345000E9E7FFF71BFCE4E70120F4E70020F2E7CF
:103460000120F0E70120EEE70020ECE70120EAE789
:10347000F369FFFFFFCFFFFFFFF4FFFF00380140BC
:103480000044004000100240EFFF000000127A00EC
:10349000436ADB0706D5026853682C490B40816AF2
:1034A0000B435360436A9B0706D50268536828495B
:1034B0000B40C16A0B435360436A5B0706D5026841
:1034C000536824490B40016B0B435360436A1B074D
:1034D00006D50268536820490B40416B0B4353608B
:1034E000436ADB0606D5026893681C490B40816B72
:1034F0000B439360436A9B0606D50268936818499C
:103500000B40C16B0B439360436A5B060BD50268AB
:10351000536814490B40016C0B43536080235B03D9
:10352000026C9A420AD0436A1B0606D502685368A9
:103530000D490B40816C0B43536070470268536820
:103540000A490B40416C0B435360ECE7FFFFFDFF62
:10355000FFFFFEFFFFFFFBFFFF7FFFFFFFEFFFFF10
:10356000FFDFFFFFFFFFEFFFFFFFF7FFFFFF9FFF03
:10357000F0B5C64600B505000C0017009846069E3B
:103580002B68DB6923401B1B5A425341BB423BD192
:10359000731CF5D0FEF7B6FF4346C01AB04220D8E0
:1035A000002E1ED02B681A685207E9D5DA69120579
:1035B000E6D5802212011A622A68136814490B406A
:1035C00013602A689368A331FF318B4393602023F3
:1035D000AB67EB678022AB5054330022EA540320E0
:1035E00013E02A6813680A490B4013602A6893683D
:1035F000A331FF318B4393602023AB67EB675433D8
:103600000022EA54032000E0002004BC9046F0BDF4
:103610005FFEFFFFF0B585B004000E0017001D002F
:10362000836F202B60D1002961D0002A61D08023D4
:103630005B0182689A421CD07423E35C012B5AD050
:1036400074230122E2540C330022E2505F3BA36753
:10365000FEF758FF03905023E7520233E7528023CE
:103660005B01A2689A420BD0002774230022E25427
:1036700019E00369002BDFD1CB07DDD5012034E051
:103680002369002B01D00027EFE737000026ECE785
:103690003B88DB05DB0D2268138502375222A35AD3
:1036A000013B9BB2A3525223E35A9BB2002B0FD093
:1036B0000095039B002280212000FFF759FF00287E
:1036C0001BD1002EE4D03378226813850136E5E75C
:1036D0000095039B002240212000FFF749FF0028AE
:1036E0000DD12023A36700E0022005B0F0BD01202A
:1036F000FBE70120F9E70220F7E70320F5E70320C5
:10370000F3E7000030B583B0040080230022C250EC
:10371000FEF7F8FE050023681B681B070DD423681D
:103720001B685B0716D42023A367E3670023236687
:103730007422A354002003B030BD80210C4B0093B1
:103740000300002289032000FFF712FF0028E6D0C3
:103750000320F0E78021064B00932B000022C903D1
:103760002000FFF705FF0028DDD00320E3E7C04677
:10377000FFFFFF0110B5041E2ED0836F002B21D058
:103780002423A3672268136801218B431360200060
:10379000FFF7C4FD012814D0636A002B18D12268FA
:1037A00053680E490B4053602268936808218B438D
:1037B00093602268136807390B4313602000FFF7FA
:1037C000A1FF10BD74330022C254FEF701FAD7E7FF
:1037D0002000FFF75DFEE2E70120F2E7FFF7FFFFC1
:1037E00041655823C2520233C252002343668368A4
:1037F00080225201934208D0002B15D10369002B7F
:103800000ED15C33FF22C25211E00369002B03D1B9
:103810005C33174AC2520AE05C23FF22C25206E020
:103820005C237F22C25202E05C230022C25280232A
:103830000022C2505E3BC3670268936801210B43BC
:10384000936080235B0182689A420BD0094B4366E8
:1038500074230022C25402681168AC330B43136016
:10386000002070470369002BF0D1034B4366EFE75C
:10387000FF010000153200089932000870B5C36FCF
:10388000202B24D1002924D0002A24D080235B01BE
:1038900084689C4214D07423C35C012B1DD0742314
:1038A0000124C4540023036603685C68240204D521
:1038B0001D688024E4042C431C60FFF791FF07E09F
:1038C0000369002BE7D1CB07E5D5012000E00220FA
:1038D00070BD0120FCE70120FAE70220F8E70000B4
:1038E0000D4885460D480E490E4A002302E0D45883
:1038F000C4500433C4188C42F9D30B4A0B4C002338
:1039000001E013600432A242FBD3FEF701FD00F098
:1039100017F8FEF7B8F8FEE70020002000000020AE
:10392000B4160020683C0008B4160020D819002006
:10393000FEE70000014B18687047C0465016002093
:1039400070B500260C4D0D4C641BA410A64209D185
:10395000002600F0A7F80A4D0A4C641BA410A642EA
:1039600005D170BDB300EB5898470136EEE7B300C0
:10397000EB5898470136F2E7603C0008603C0008CD
:10398000603C0008643C000810B5034B0100186857
:1039900000F016F810BDC04650160020002310B5E8
:1039A0009A4200D110BDCC5CC4540133F8E7030047
:1039B0001218934200D1704719700133F9E70000E3
:1039C000032370B5CD1C9D43083506000C2D1ED277
:1039D0000C25A9421DD8300000F062F8254A146871
:1039E0002100002919D1244C2368002B03D1300079
:1039F00000F044F820602900300000F03FF8431C3C
:103A00002BD10C233000336000F04BF803E0002D85
:103A1000DFDA0C233360002070BD0B685B1B19D408
:103A20000B2B03D90B60CC18256003E04B688C424C
:103A30000DD11360300000F034F8200007220B3065
:103A4000231D9043C31AE7D05A42E250E4E7636073
:103A50000C00EFE70C004968C3E70323C41C9C4338
:103A6000A042E1D0211A300000F008F8431CDBD15D
:103A7000C7E7C046E4160020E8160020002370B512
:103A8000064C050008002360FEF724FC431C03D10C
:103A90002368002B00D02B6070BDC046D4190020D5
:103AA00070477047F8B5C046F8BC08BC9E467047E2
:0C3AB000F8B5C046F8BC08BC9E46704744
:103ABC008A130008E81300082014000814160008E4
:103ACC002216000858180008341900085819000864
:103ADC003C1400087A140008E2140008421500088F
:103AEC00AA15000800000000421D00083E1D000839
:103AFC00161D00083A1D0008EC1C0008DA1C000812
:103B0C00CE1C00085E1E00085A1E0008321E00085B
:103B1C00561E0008081E0008F41D0008E61D0008CB
:103B2C000E1F00080A1F0008E21E0008061F0008EE
:103B3C00B81E0008A41E0008961E00081C200008D1
:103B4C00102000080420000800200008F41F0008C2
:103B5C00CE1F0008302200081C2200082C2200086E
:103B6C00F6210008DE210008D2210008C22200083C
:103B7C00BE22000896220008BA2200086C22000817
:103B8C005A2200084E22000800000000000000002D
:103B9C0001020304060708090000000001020304E7
:103BAC0002030405060708090A0B0C0D0E0F101072
:103BBC000102030405060708090A0B0C0D0E0F1071
:103BCC001C070008C6060008C6060008F407000813
:103BDC00C2060008C2060008EA070008F40700083D
:103BEC00C2060008EA070008C2060008F40700082D
:103BFC00F8070008F8070008F80700080008000894
:103C0C00494E54525544455220444554454354451D
:103C1C004400000053545800455458000D0A5245B6
:103C2C0043562046524F4D3A31332E3132362E31D7
:103C3C0036352E343A343030300D0A2B495044008E
:103C4C0030303030300000003030303030303030F8
:043C5C003030000004
:043C6000E90000086F
:043C6400C100000893
:103C6800445347524F555031313335350000000029
:103C7800312E30300000000034383934350000006F
:103C880000000000383030300000000067736D2EEF
:103C9800647367726F75702E696E00003430303847
:103CA8003900000031000000313233313233313213
:103CB80033313233313233000000C000C10001001B
:103CC800C30003000200C200C60006000700C700C8
:103CD8000500C500C4000400CC000C000D00CD0098
:103CE8000F00CF00CE000E000A00CA00CB000B0068
:103CF800C90009000800C800D80018001900D90038
:103D08001B00DB00DA001A001E00DE00DF001F00C7
:103D1800DD001D001C00DC001400D400D5001500D7
:103D2800D70017001600D600D20012001300D300E7
:103D38001100D100D0001000F00030003100F10077
:103D48003300F300F20032003600F600F7003700C7
:103D5800F50035003400F4003C00FC00FD003D0097
:103D6800FF003F003E00FE00FA003A003B00FB0067
:103D78003900F900F80038002800E800E9002900B7
:103D8800EB002B002A00EA00EE002E002F00EF00C7
:103D98002D00ED00EC002C00E40024002500E500D7
:103DA8002700E700E60026002200E200E3002300E7
:103DB800E10021002000E000A00060006100A100F7
:103DC8006300A300A20062006600A600A7006700C7
:103DD800A50065006400A4006C00AC00AD006D0097
:103DE800AF006F006E00AE00AA006A006B00AB0067
:103DF8006900A900A80068007800B800B900790037
:103E0800BB007B007A00BA00BE007E007F00BF00C6
:103E18007D00BD00BC007C00B40074007500B500D6
:103E28007700B700B60076007200B200B3007300E6
:103E3800B10071007000B000500090009100510076
:103E480093005300520092009600560057009700C6
:103E580055009500940054009C005C005D009D0096
:103E68005F009F009E005E005A009A009B005B0066
:103E780099005900580098008800480049008900B6
:103E88004B008B008A004A004E008E008F004F00C6
:103E98008D004D004C008C004400840085004500D6
:103EA80087004700460086008200420043008300E6
:103EB80041008100800040000000C10081004000F6
:103EC8000100C000800041000100C00080004100E6
:103ED8000000C100810040000100C00080004100D6
:103EE8000000C100810040000000C10081004000C6
:103EF8000100C000800041000100C00080004100B6
:103F08000000C100810040000000C10081004000A5
:103F18000100C000800041000000C1008100400095
:103F28000100C000800041000100C0008000410085
:103F38000000C100810040000100C0008000410075
:103F48000000C100810040000000C1008100400065
:103F58000100C000800041000000C1008100400055
:103F68000100C000800041000100C0008000410045
:103F78000000C100810040000000C1008100400035
:103F88000100C000800041000100C0008000410025
:103F98000000C100810040000100C0008000410015
:103FA8000000C100810040000000C1008100400005
:103FB8000100C000800041000100C00080004100F5
:103FC8000000C100810040000000C10081004000E5
:103FD8000100C000800041000000C10081004000D5
:103FE8000100C000800041000100C00080004100C5
:103FF8000000C100810040000000C10081004000B5
:104008000100C000800041000100C00080004100A4
:104018000000C100810040000100C0008000410094
:104028000000C100810040000000C1008100400084
:104038000100C000800041000000C1008100400074
:104048000100C000800041000100C0008000410064
:104058000000C100810040000100C0008000410054
:104068000000C100810040000000C1008100400044
:104078000100C000800041000100C0008000410034
:104088000000C100810040000000C1008100400024
:104098000100C000800041000000C1008100400014
:1040A8000100C000800041000100C0008000410004
:1040B8000000C10081004000000005000F000A0058
:1040C8001B001E0014001100330036003C003900AC
:1040D80028002D0027002200630066006C0069009C
:1040E80078007D0077007200500055005F005A008C
:1040F8004B004E0044004100C300C600CC00C9007C
:10410800D800DD00D700D200F000F500FF00FA006B
:10411800EB00EE00E400E100A000A500AF00AA005B
:10412800BB00BE00B400B100930096009C0099004B
:1041380088008D0087008200830086008C0089003B
:1041480098009D0097009200B000B500BF00BA002B
:10415800AB00AE00A400A100E000E500EF00EA001B
:10416800FB00FE00F400F100D300D600DC00D9000B
:10417800C800CD00C700C200400045004F004A00FB
:104188005B005E0054005100730076007C007900EB
:1041980068006D0067006200230026002C002900DB
:1041A80038003D0037003200100015001F001A00CB
:1041B8000B000E0004000100030006000C000900BB
:1041C80018001D0017001200300035003F003A00AB
:1041D8002B002E0024002100600065006F006A009B
:1041E8007B007E0074007100530056005C0059008B
:1041F80048004D0047004200C000C500CF00CA007B
:10420800DB00DE00D400D100F300F600FC00F9006A
:10421800E800ED00E700E200A300A600AC00A9005A
:10422800B800BD00B700B200900095009F009A004A
:104238008B008E0084008100800085008F008A003A
:104248009B009E0094009100B300B600BC00B9002A
:10425800A800AD00A700A200E300E600EC00E9001A
:10426800F800FD00F700F200D000D500DF00DA000A
:10427800CB00CE00C400C100430046004C004900FA
:1042880058005D0057005200700075007F007A00EA
:104298006B006E0064006100200025002F002A00DA
:1042A8003B003E0034003100130016001C001900CA
:1042B80008000D00070000000000800080000000DA
:1042C80080000000000080008000000000008000E6
:1042D80000008000800000008000000000008000D6
:1042E80000008000800000000000800080000000C6
:1042F80080000000000080008000000000008000B6
:1043080000008000800000000000800080000000A5
:104318008000000000008000000080008000000095
:104328008000000000008000800000000000800085
:104338000000800080000000810001000100810071
:10434800010081008100010001008100810001005D
:10435800810001000100810001008100810001004D
:10436800810001000100810081000100010081003D
:10437800010081008100010001008100810001002D
:10438800810001000100810081000100010081001D
:10439800010081008100010081000100010081000D
:1043A80001008100810001000100810081000100FD
:1043B80081000100010081008300030003008300E5
:1043C80003008300830003000300830083000300CD
:1043D80083000300030083000300830083000300BD
:1043E80083000300030083008300030003008300AD
:1043F800030083008300030003008300830003009D
:10440800830003000300830083000300030083008C
:10441800030083008300030083000300030083007C
:10442800030083008300030003008300830003006C
:104438008300030003008300020082008200020060
:104448008200020002008200820002000200820054
:104458000200820082000200820002000200820044
:104468000200820082000200020082008200020034
:104478008200020002008200820002000200820024
:104488000200820082000200020082008200020014
:104498008200020002008200020082008200020004
:1044A80082000200020082008200020002008200F4
:1044B800020082008200000041542B4349434349D3
:1044C80044000000000000000000000000000000A0
:1044D80000000000000000000000000000000000D4
:1044E8000D0A2B434349443A200000000000000015
:1044F80000000000000000000000000000000000B4
:1045080000000000000000000D0A2B434D45204527
:1045180052524F5200000000000000000000000D41
:104528000A00C80041542B43494D490000000000CF
:104538000000000000000000000000000000000073
:104548000000000000000000000000000D0A4F4BB2
:104558000D0A00000000000000000000000000003C
:104568000000000000000000000000000000000043
:10457800000000000D0A2B434D45204552524F5272
:1045880000000000000000000000000D0A00C80044
:1045980041542B4347534E00000000000000000028
:1045A8000000000000000000000000000000000003
:1045B80000000000000000000D0A4F4B0D0A00002B
:1045C80000000000000000000000000000000000E3
:1045D80000000000000000000000000000000000D3
:1045E8000D0A2B434D45204552524F520000000002
:1045F800000000000000000D0A00C80041542B43D1
:1046080050494E3F0000000000000000000000007C
:104618000000000000000000000000000000000092
:10462800000000005245414459000000000000000D
:104638000000000000000000000000000000000072
:104648000000000000000000000000000D0A2B43DD
:104658004D45204552524F52000000000000000016
:104668000000000D0A00C80041542B435245473F43
:104678000000000000000000000000000000000032
:104688000000000000000000000000000000000022
:104698000D0A2B435245473A20312C3100000000C7
:1046A8000000000000000000000000000000000002
:1046B80000000000000000000D0A2B434D45204576
:1046C80052524F5200000000000000000000000D90
:1046D8000A00C80041542B43535100000000000059
:1046E80000000000000000000000000000000000C2
:1046F8000000000000000000000000000D0A2B432D
:1047080053513A20000000000000000000000000A3
:104718000000000000000000000000000000000091
:10472800000000000D0A2B434D45204552524F52C0
:1047380000000000000000000000000D0A00C80092
:1047480041542B43434C4B3F000000000000000045
:104758000000000000000000000000000000000051
:1047680000000000000000000D0A2B43434C4B3AA8
:104778002000000000000000000000000000000011
:104788000000000000000000000000000000000021
:104798000D0A2B434D45204552524F520000000050
:1047A800000000000000000D0A00F40141542B43F2
:1047B800545A553D31000000000000000000000080
:1047C80000000000000000000000000000000000E1
:1047D800000000000D0A4F4B0D0A00000000000009
:1047E80000000000000000000000000000000000C1
:1047F8000000000000000000000000000D0A2B432C
:104808004D45204552524F52000000000000000064
:104818000000000D0A00F401415426573000000042
:104828000000000000000000000000000000000080
:104838000000000000000000000000000000000070
:104848000D0A4F4B0D0A0000000000000000000098
:104858000000000000000000000000000000000050
:1048680000000000000000000D0A2B434D452045C4
:1048780052524F5200000000000000000000000DDE
:104888000A00F40141542B435245473D31000000D2
:104898000000000000000000000000000000000010
:1048A8000000000000000000000000000D0A4F4B4F
:1048B8000D0A0000000000000000000000000000D9
:1048C80000000000000000000000000000000000E0
:1048D800000000000D0A2B434D45204552524F520F
:1048E80000000000000000000000000D0A00C800E1
:1048F80041542B43475245473D310000000000001A
:10490800000000000000000000000000000000009F
:1049180000000000000000000D0A4F4B0D0A0000C7
:10492800000000000000000000000000000000007F
:10493800000000000000000000000000000000006F
:104948000D0A2B434D45204552524F52000000009E
:10495800000000000000000D0A00C80041542B436D
:10496800475245473F0000000000000000000000DB
:10497800000000000000000000000000000000002F
:10498800000000000D0A2B43475245473A20312CBE
:1049980031000000000000000000000000000000DE
:1049A8000000000000000000000000000D0A2B437A
:1049B8004D45204552524F520000000000000000B3
:1049C8000000000D0A00C80041542B4347415454CD
:1049D8003D31000000000000000000000000000061
:1049E80000000000000000000000000000000000BF
:1049F8000D0A4F4B0D0A00000000000000000000E7
:104A0800000000000000000000000000000000009E
:104A180000000000000000000D0A2B434D45204512
:104A280052524F5200000000000000000000000D2C
:104A38000A00C80041542B43474154543F0000002A
:104A4800000000000000000000000000000000005E
:104A58000000000000000000000000000D0A2B43C9
:104A6800474154543A0000000000000000000000D4
:104A7800000000000000000000000000000000002E
:104A8800000000000D0A2B434D45204552524F525D
:104A980000000000000000000000000D0A00C8002F
:104AA80041542B43474154543D300000000000005E
:104AB80000000000000000000000000000000000EE
:104AC80000000000000000000D0A4F4B0D0A000016
:104AD80000000000000000000000000000000000CE
:104AE80000000000000000000000000000000000BE
:104AF8000D0A2B434D45204552524F5200000000ED
:104B0800000000000000000D0A00C80041542B43BB
:104B18004744434F4E543D312C224950222C2261A8
:104B2800697274656C677072732E636F6D22000012
:104B3800000000000D0A4F4B0D0A000000000000A5
:104B4800000000000000000000000000000000005D
:104B58000000000000000000000000000D0A2B43C8
:104B68004D45204552524F52000000000000000001
:104B78000000000D0A00C80041542B434744434F2E
:104B88004E543F000000000000000000000000003C
:104B9800000000000000000000000000000000000D
:104BA8000D0A2B434744434F4E543A20312C224997
:104BB800502200000000000000000000000000007B
:104BC80000000000000000000D0A2B434D45204561
:104BD80052524F5200000000000000000000000D7B
:104BE8000A00F40141542B43474143543D312C31D1
:104BF80000000000000000000000000000000000AD
:104C08000000000000000000000000000D0A4F4BEB
:104C18000D0A000000000000000000000000000075
:104C2800000000000000000000000000000000007C
:104C3800000000000D0A2B434D45204552524F52AB
:104C480000000000000000000000000D0A00C8007D
:104C580041542B43474143543F00000000000000EB
:104C6800000000000000000000000000000000003C
:104C780000000000000000000D0A2B434741435488
:104C88003A20312C31000000000000000000000034
:104C9800000000000000000000000000000000000C
:104CA8000D0A2B434D45204552524F52000000003B
:104CB800000000000000000D0A00C80041542B430A
:104CC800474143543D302C310000000000000000F3
:104CD80000000000000000000000000000000000CC
:104CE800000000000D0A4F4B0D0A000000000000F4
:104CF80000000000000000000000000000000000AC
:104D08000000000000000000000000000D0A2B4316
:104D18004D45204552524F5200000000000000004F
:104D28000000000D0A00C80041542B4349504D4F64
:104D380044453D3000000000000000000000000075
:104D4800000000000000000000000000000000005B
:104D58000D0A4F4B0D0A0000000000000000000083
:104D6800000000000000000000000000000000003B
:104D780000000000000000000D0A2B434D452045AF
:104D880052524F5200000000000000000000000DC9
:104D98000A00C80041542B4349504D4F44453F0039
:104DA80000000000000000000000000000000000FB
:104DB8000000000000000000000000000D0A2B4366
:104DC80049504D4F44453A20300000000000000093
:104DD80000000000000000000000000000000000CB
:104DE800000000000D0A2B434D45204552524F52FA
:104DF80000000000000000000000000D0A00C800CC
:104E080041542B4E45544F50454E000000000000C1
:104E1800000000000000000000000000000000008A
:104E280000000000000000000D0A4F4B0D0A0000B2
:104E3800000000000000000000000000000000006A
:104E4800000000000000000000000000000000005A
:104E58000D0A2B434D45204552524F520000000089
:104E6800000000000000000D0A00E80341542B4335
:104E78004950434C4F53453D3000000000000000AE
:104E8800000000000000000000000000000000001A
:104E9800000000000D0A4F4B0D0A0D0A2B43495024
:104EA800434C4F53453A20300000000000000000FA
:104EB8000000000000000000000000000D0A2B4365
:104EC8004D45204552524F5200000000000000009E
:104ED8000000000D0A00640041542B4E4554434C19
:104EE8004F534500000000000000000000000000D3
:104EF80000000000000000000000000000000000AA
:104F08000D0A4F4B0D0A0D0A2B4E4554434C4F5377
:104F1800453A2030000000000000000000000000BA
:104F280000000000000000000D0A2B434D452045FD
:104F380052524F5200000000000000000000000D17
:104F48000A00640041542B43495052584745543D88
:104F58003000000000000000000000000000000019
:104F68000000000000000000000000000D0A4F4B88
:104F78000D0A000000000000000000000000000012
:104F88000000000000000000000000000000000019
:104F9800000000000D0A2B434D45204552524F5248
:104FA80000000000000000000000000D0A00C8001A
:104FB80041542B4349504F50454E3D302C225443C9
:104FC80050222C2231332E3132362E3136352E34C2
:104FD800222C3430303000000D0A4F4B0D0A0D0AD8
:104FE8002B4349504F50454E3A20302C00000000CA
:104FF80000000000000000000000000000000000A9
:105008000D0A2B434D45204552524F5200000000D7
:10501800000000000000000D0A00E80341542B4383
:10502800495053454E443D302C000000000000001C
:105038000000000000000000000000000000000068
:10504800000000000D0A3E0D0A4F4B0D0A0D0A2BF9
:1050580043495053454E443A000000000000000008
:105068000000000000000000000000000D0A2B43B3
:105078004D45204552524F520000000000000000EC
:105088000000000D0A00881341542B435245534534
:1050980054000000000000000000000000000000B4
:1050A80000000000000000000000000000000000F8
:1050B8000D0A4F4B0D0A0000000000000000000020
:1050C80000000000000000000000000000000000D8
:1050D80000000000000000000D0A2B434D4520454C
:1050E80052524F5200000000000000000000000D66
:1050F8000A00F40141542B434F50533F0000000075
:105108000000000000000000000000000000000097
:105118000000000000000000000000000D0A2B4302
:105128004F50533A0000000000000000000000004B
:105138000000000000000000000000000000000067
:10514800000000000D0A2B434D45204552524F5296
:1051580000000000000000000000000D0A00C80068
:10516800415445300000000000000000000000002D
:105178000000000000000000000000000000000027
:1051880000000000000000000D0A4F4B0D0A00004F
:105198000000000000000000000000000000000007
:1051A80000000000000000000000000000000000F7
:1051B8000D0A2B434D45204552524F520000000026
:1051C800000000000000000D0A0064004154563140
:1051D80000000000000000000000000000000000C7
:1051E80000000000000000000000000000000000B7
:1051F800000000000D0A4F4B0D0A000000000000DF
:105208000000000000000000000000000000000096
:105218000000000000000000000000000D0A2B4301
:105228004D45204552524F5200000000000000003A
:105238000000000D0A00F401415445300000000050
:105248000000000000000000000000000000000056
:105258000000000000000000000000000000000046
:105268000D0A4F4B0D0A000000000000000000006E
:105278000000000000000000000000000000000026
:1052880000000000000000000D0A2B434D4520459A
:1052980052524F5200000000000000000000000DB4
:1052A8000A00F40100127A00010000000400000066
:1052B800541600200000000000000000000000005C
:1052C80000000000000000000000000000000000D6
:1052D80000000000000000000000000000000000C6
:1052E80000000000000000000000000000000000B6
:1052F80000000000000000000000000000000000A6
:105308000000000000000000000000000000000095
:045318000000000091
:04000005080038E1D6
:00000001FF
