:020000040800F2
:1000000000200020E9380008711C0008731C00085B
:1000100000000000000000000000000000000000E0
:10002000000000000000000000000000751C000837
:100030000000000000000000771C0008791C000888
:100040003939000800000000393900083939000842
:1000500039390008393900083939000839390008B8
:100060000000000039390008393900083939000822
:100070003939000839390008393900080000000012
:100080003939000839390008000000003939000802
:100090003939000839390008393900083939000878
:1000A000393900083939000839390008851C000839
:1000B00039390008000000000000000000000000C6
:1000C00010B5064C2378002B07D1054B002B02D02E
:1000D000044800E000BF0123237010BDA4160020D7
:1000E00000000000AC3A0008044B10B5002B03D010
:1000F0000349044800E000BF10BDC04600000000F6
:10010000A8160020AC3A0008002243088B4274D3A2
:1001100003098B425FD3030A8B4244D3030B8B4208
:1001200028D3030C8B420DD3FF22090212BA030C11
:100130008B4202D31212090265D0030B8B4219D3F2
:1001400000E0090AC30B8B4201D3CB03C01A524112
:10015000830B8B4201D38B03C01A5241430B8B425A
:1001600001D34B03C01A5241030B8B4201D30B0343
:10017000C01A5241C30A8B4201D3CB02C01A52416A
:10018000830A8B4201D38B02C01A5241430A8B422D
:1001900001D34B02C01A5241030A8B4201D30B0216
:1001A000C01A5241CDD2C3098B4201D3CB01C01A30
:1001B000524183098B4201D38B01C01A524143093A
:1001C0008B4201D34B01C01A524103098B4201D328
:1001D0000B01C01A5241C3088B4201D3CB00C01A95
:1001E000524183088B4201D38B00C01A524143080D
:1001F0008B4201D34B00C01A5241411A00D2014632
:10020000524110467047FFE701B5002000F0F0F8BA
:1002100002BDC0460029F7D076E7704703460B437E
:100220007FD4002243088B4274D303098B425FD3EF
:10023000030A8B4244D3030B8B4228D3030C8B421B
:100240000DD3FF22090212BA030C8B4202D3121201
:10025000090265D0030B8B4219D300E0090AC30BD6
:100260008B4201D3CB03C01A5241830B8B4201D383
:100270008B03C01A5241430B8B4201D34B03C01A6C
:100280005241030B8B4201D30B03C01A5241C30AE4
:100290008B4201D3CB02C01A5241830A8B4201D355
:1002A0008B02C01A5241430A8B4201D34B02C01A3F
:1002B0005241030A8B4201D30B02C01A5241CDD2E4
:1002C000C3098B4201D3CB01C01A524183098B422F
:1002D00001D38B01C01A524143098B4201D34B0118
:1002E000C01A524103098B4201D30B01C01A52417B
:1002F000C3088B4201D3CB00C01A524183088B4202
:1003000001D38B00C01A524143088B4201D34B00EA
:10031000C01A5241411A00D201465241104670475C
:100320005DE0CA0F00D04942031000D34042534061
:1003300000229C4603098B422DD3030A8B4212D321
:10034000FC22890112BA030A8B420CD38901921153
:100350008B4208D3890192118B4204D389013AD090
:10036000921100E08909C3098B4201D3CB01C01A65
:10037000524183098B4201D38B01C01A5241430978
:100380008B4201D34B01C01A524103098B4201D366
:100390000B01C01A5241C3088B4201D3CB00C01AD3
:1003A000524183088B4201D38B00C01A5241D9D2EB
:1003B00043088B4201D34B00C01A5241411A00D26C
:1003C0000146634652415B10104601D34042002B68
:1003D00000D54942704763465B1000D3404201B5E7
:1003E000002000F005F802BD0029F8D016E770479C
:1003F0007047C0468446081C6146FFE71FB500F001
:10040000C1F8002801D40021C8421FBD10B500F07A
:1004100043F84042013010BD10B500F0B3F8002899
:1004200001DB002010BD012010BDC04610B500F05A
:10043000A9F8002801DD002010BD012010BDC04634
:1004400010B500F051F8002801DC002010BD01209B
:1004500010BDC04610B500F047F8002801DA0020B2
:1004600010BD012010BDC0469E2110B5C905041C59
:10047000FFF7F0FF002803D1201C00F0C9FB10BDDE
:100480009E21201CC90500F0FFF900F0C1FB80236C
:100490001B069C466044F2E770B542004E024C00D9
:1004A00045026D0A120EC30F760A240EC90FFF2AE9
:1004B0000FD0FF2C11D00120A24200D070BDB54258
:1004C000FCD18B420DD0002AF8D12800451EA8414E
:1004D000F4E70120002DF1D1EBE70120002EEDD152
:1004E000E9E70020EAE7C04670B54A004E0245023F
:1004F00044006D0A240EC30F760A120EC90FFF2C9A
:1005000015D0FF2A0ED0002C15D1002A01D1002EC3
:100510001CD0002D14D08B4227D00220013B184064
:10052000013870BD002EEED002204042F9E7002DC8
:10053000FAD1FF2A0ED0002A0ED1002EEDD00BE00A
:1005400001230139994308000130EAE70020002D1A
:10055000E7D0E2E7002EE7D18B42DED1944205DD01
:100560000221581E08400138DBE70024A24204DCC7
:10057000B542D2D80020B542D3D2581E01239843A9
:100580000130CEE730B5420044024D02C30F4800AF
:10059000640A120E6D0A000EC90FFF2A12D0FF283E
:1005A0000CD0002A12D1002819D1002D17D1002C0F
:1005B0002BD00220013B1840013826E0002DF0D05E
:1005C000022022E0002CFBD1FF281FD000281FD1E1
:1005D000002D1DD10220013B1840013815E0002CF0
:1005E0000ED08B42E5D10022904204DCAC42E0D830
:1005F0000020AC4209D2581E01239843013004E088
:100600000123013999430800013030BD002DD7D1B5
:100610008B42CED18242E7DD0221581E08400138CC
:10062000F3E7C046F0B54E4657464546DE46E0B5D0
:1006300043025B0A450083B00F1C99462D0EC60F7E
:10064000002D57D0FF2D24D08020DB00C00418439C
:10065000002381469A469B467F3D7C027A00FB0F31
:10066000640A120E984623D0FF2A4BD0E300802460
:100670000020E4047F3A1C43AD186B1C47460193ED
:10068000534677403A000F2B48D87D499B00CB5802
:100690009F46002B00D085E008339A46063B9B46D8
:1006A0007C027A00FB0FFF25640A120E9846DBD10C
:1006B000002C00D090E0524601231A4392460120BC
:1006C000DBE74C4658461700022824D0032800D107
:1006D000CFE00022002301284DD15802D205400A64
:1006E000FF071043384303B03CBC90469946A246EE
:1006F000AB46F0BD002B5BD104239A46033B00259B
:100700009B46AAE7FF35002C60D1524602231A43CC
:1007100092460220B1E7FF220023DEE74B461B0C86
:100720009C464B462604360C180461463300220CC6
:100730006446000C43434E435043544380191A0C03
:100740001218964203D9802149028C4664441B0446
:100750001B0C1004C01883015E1EB341800E1843A9
:10076000130C1B199B0103431C00230179D50123A2
:1007700062081C401443019A7F32002A4DDD630752
:1007800004D00F232340042B00D00434230103D5CD
:100790003C4B019A1C408032FE2ABCDCA3015B0A60
:1007A000D2B29AE70C239A46093BFF259B4654E7B1
:1007B000180000F04DFA4A46431F76259A40002360
:1007C0006D4291462D1A9A469B4646E752460323B0
:1007D0001A439246032050E7200000F039FA431FE5
:1007E0002D1A9C40763D002047E780230027DB033D
:1007F000FF2272E7424666E74C463200584662E7FF
:1008000080234A46DB031A4222D01C4220D12343D4
:100810005B025B0A4746FF225FE701239A1A1B2A05
:1008200021DC23000199D3409E318C401A00230023
:100830005C1EA34113435A0704D00F221A40042A16
:1008400000D004335A0111D49B015B0A002244E713
:1008500080234A46DB0313435B025B0A3700FF2217
:100860003BE7019587E70022002336E701220023BA
:1008700033E78023DB0323435B025B0AFF222CE781
:10088000D03B0008FFFFFFF7F8B54746CE464400CF
:10089000C20F80B547024802400A844666464800B7
:1008A0007F0A240EF60025009046FB00000EC90FBB
:1008B000B146FF2800D185E001267140261A9142F9
:1008C00057D0002E43DD002800D07FE049460029A4
:1008D00000D1AAE0013E002E00D0F7E05B1A5A01D9
:1008E00000D48BE09B019C09200000F0B1F9053891
:1008F0008440854200DDD3E0451B230020200135E4
:10090000EB40451BAC40621E944123430724002565
:100910001C40012241460A40002C04D00F211940FE
:10092000042900D00433590100D480E00135ECB231
:10093000FF2D00D0A3E0FF2400235B02E405580A4A
:10094000D207204310430CBC90469946F8BD002EB8
:1009500074D1601CC0B2012800DCA7E04A469C1A92
:10096000620100D5B6E0002CBED100220024002395
:10097000E3E7002E00DC85E0002846D0FF2C49D0BC
:1009800080224846D2041043814601221B2E09DCF6
:1009900020204C46801B84404A462000F240441EE2
:1009A000A04102439B185A0128D50135FF2D00D1E3
:1009B000A8E00122072494491A405B080B40134326
:1009C0001C40A6E7002E00D078E775E7FF2C54D036
:1009D00080224946D2041143894601221B2E09DC9C
:1009E00020214846891B88404A460100F240481EA3
:1009F00081410A439B1A5A0100D573E701224146FF
:100A00000A40590700D089E711E04846002858D12C
:100A1000FF2C0CD1DB08002B00D18CE78020C00319
:100A200003435B025B0AFF2487E7FF2C25D0DB082A
:100A3000FF2DF0D05B025B0AECB27EE7002C4DD0BC
:100A4000FF2818D08024E404724223431B2A00DDCF
:100A5000C4E01C002025D440AA1A93405A1E93419A
:100A600023434A460500D31A884638E7721CF8D05B
:100A7000F243FF28EAD10A004B46FF25D7E79B0146
:100A80005B0A5AE7002E41D1651CE9B2012945DD18
:100A9000FF2D00D14FE707244B445B081C4038E78B
:100AA00007225A4B2D1A2340144032E7002C1DD147
:100AB000002B7AD14B46002B00D191E00A00002593
:100AC000B5E7013E002E19D14B446CE7FF2C84D1D1
:100AD000FF25ACE74A468846D41A05E7002BC5D166
:100AE0000A00FF28C8D005004B46A0E7002B49D1DB
:100AF0004B46002B77D00A00FF2598E7FF2C00D04B
:100B000043E787E70A00FF24002316E7002C15D1EE
:100B1000002B57D1FF28E6D14B467BE7002C20D194
:100B2000002B57D04946002953D04B445A0168D571
:100B30000724364A1C4001251340EAE6FF28EBD083
:100B40008022D204764213431B2E53DC2025AD1B9A
:100B50001A00AB40F2405C1EA34113434B44050016
:100B600021E7002BD8D04946002900D152E7802147
:100B7000C9030F4200D14DE76046084200D049E763
:100B80004B4647E74846FF25002800D14FE7802223
:100B9000D203174204D06046104201D14B4688462A
:100BA00001224146FF250A4041E7484600281FD060
:100BB0001A1A500120D54A460724D31A1C408846E9
:100BC0000025A6E6741CC9D0F643FF28BCD14B46CD
:100BD00020E799464B460025DB082BE7012340E739
:100BE00000220023A9E680230022DB03FF24A4E6E1
:100BF00000251CE70123B1E7002AF1D013000025EE
:100C0000FCE60025FAE6C046FFFFFF7DFFFFFFFB85
:100C100041024200C30F490A120E00207E2A0DD95C
:100C20009D2A0CD8802000040143952A0ADC9620D6
:100C3000821AD1404842002B00D108007047034A75
:100C40009818FBE7963A9140F4E7C046FFFFFF7F14
:100C50001C2101231B04984201D3000C10391B0AEC
:100C6000984201D3000A08391B09984201D30009B0
:100C7000043902A2105C40187047C0460403020207
:100C8000010101010000000000000000F0B5CE46A7
:100C9000474680B59DB0A64B9846A64C1F004937E5
:100CA0000F222100380002F07DFE210010310522C4
:100CB000A14802F077FE46465836210018310A2234
:100CC000300002F06FFE2100243105229B4802F023
:100CD00069FE21002C310F22994802F063FE2100A9
:100CE0003C310522974802F05DFE45463935102219
:100CF0009549280002F056FE14229449944802F0C7
:100D000051FE6623FF33434499460023002249469F
:100D1000380001F019F94844441C2C2707700023BF
:100D200000222100300001F00FF92018461C077046
:100D3000002300223100804801F006F93018461CDB
:100D40000770002300223100280001F0FDF836185A
:100D5000751C37704046763000230022290001F0D0
:100D6000F3F82818451C07704046863000230022FF
:100D7000290001F0E9F82818451C07704046DA30D0
:100D800000230022290001F0DFF82818451C077015
:100D90004046CD3000230022290001F0D5F8281864
:100DA000451C0770002300222900694801F0CCF897
:100DB0002D186C1C2F704046D030002300222100DB
:100DC00001F0C2F82018441C07704046A9300023E7
:100DD0000022210001F0B8F82018441C07700023FD
:100DE00000222100564801F0AFF82018441C07707B
:100DF000002300222100534801F0A6F82018441CCB
:100E000007700023002221004C4801F09DF82418AF
:100E1000651C277046465D36FF36002231004D487E
:100E200001F09EF809344B46E41A0734E4B21A94F0
:100E300041466031FF3104221AA801F063F94123D1
:100E40009E22520041468B546422FF328B5424333D
:100E5000FF33CF54AC1B0B195D33FF331B786F206E
:100E60006844037001239B1B5B1943445D33FF33CC
:100E70001B7842376F443B7021005931FF314144A8
:100E80000431022201F06CF90221891B4919593100
:100E9000FF31414404310222380001F061F92100A0
:100EA000300000F0CDF80421891B49195931FF3178
:100EB000414404310022284801F052F807239E1BC8
:100EC000AD19AD235B004246D552434621331A7813
:100ED00001221A705A7800225A709A7800229A7069
:100EE000DA780022DA7063321C4901A802F05AFD58
:100EF000002205E00E4B9B18E133FF3319700132DD
:100F000001AB995C0029F5D1094B31331A780122E4
:100F10001A705A7800225A709A7800229A70DA78F9
:100F20000022DA701DB00CBC90469946F0BDC04658
:100F3000E8160020000000204F170020AF17002007
:100F4000D2170020931700202C3C0008103C00080A
:100F5000E8170020243C0008283C00083C3C00081E
:100F6000F0B50200022906D90378851C40789678EE
:100F70000239022433E0022907D001290CD00500F0
:100F8000002400260020002329E00378851C4078F7
:100F900002240026013922E00378851C0124002662
:100FA000002000211BE0FF2B0CD01A005B00104F2B
:100FB000FB5C434052000F48805C704001390135B2
:100FC0002E780CE0022203005340300050400139DB
:100FD00001352E7803E00131013CE4B200260029FE
:100FE000E1D1002CF7D1AA1E1370013D2870F0BD8D
:100FF000480600204804002070B582B004000D00AF
:1010000000230193FFF7ACFF6619022201A930000B
:1010100001F0A6F8681C201802226B46991D01F009
:101020009FF80422310001A800F051FE0422034978
:1010300001A800F04CFE02B070BDC046E4160020CE
:1010400010B5FFF7D9FF10BD70B50500224C23780D
:1010500010229343237023780C3A9343237020008B
:10106000E130FF308032002102F0A5FCAC235B00B0
:101070000022E252002406E02919642301221748C5
:1010800002F0CCFA01342B5D002BF5D12900673139
:10109000124C64330122200002F0C0FA29006831AA
:1010A00064230122200002F0B9FA6A23E95A0022DF
:1010B0000B4801F067F9084B1B88DB0605D4084B89
:1010C000186801F099F90028F5D0054B186801F06F
:1010D0007FF9012070BDC046E81600204C190020A1
:1010E000C016002010B50B00010028310022034873
:1010F00000F0D0FD002800D0012010BDC81800204D
:1011000010B5FFF7A1FF10BD0300581C1A780300AB
:101110008A42FAD17047000030B583B03A21304896
:10112000FFF7F2FF002105E02E4B5B18B1331A7078
:101130000130013102783A2AF6D10130002105E070
:10114000284B5B18C1331A700130013102780D2A27
:10115000F6D1841D0A3A002101A802F02CFC0022DD
:1011600003E001A98B540134013223780D2BF8D10F
:101170001D4D291D01A800F0B5FDA988194AFE23BF
:10118000D1520234002106E0164B5B180133FF33C5
:101190001A70013401312278002AF5D111488423D4
:1011A0005B00C25C3E23FF33C25401000B31FF31B0
:1011B0003930123BFF3B002200F06CFD00280DD0BF
:1011C000084B35331A7801221A705A7800225A7067
:1011D0009A7800229A70DA780022DA7003B030BD73
:1011E000C8180020E8160020C0160020F0B5C6463A
:1011F00000B543280CD12B498A8E120ACB8E1B02D4
:101200001A430B8FFF210B401B061343012B47D0C2
:1012100004BC9046F0BD244A0021D1540133224A37
:10122000D25C002AF7D11F4C8D235B00E35C553262
:10123000FF329046A3541C4D2E000B3620001B306D
:10124000FF30293AFF3A310000F08AFE2C213000AD
:10125000FFF75AFF2C21FFF757FF070026001D3626
:10126000FF362C220100300000F07AFE22213800E7
:10127000FFF74AFF2221FFF747FF07002C2130002C
:10128000FFF742FF791C2C233B702C2200F068FEF4
:101290004346E25C6C35EA72044B58331A73B7E785
:1012A0001323BCE7E816002048080020C8080020E7
:1012B00010B53A210748FFF727FF0130002105E06C
:1012C000054B5B1886331A700130013102780D2A04
:1012D000F6D110BDC8180020E816002010B50A216C
:1012E0000748FFF711FF002105E0064B5B18763336
:1012F0001A700130013102780D2AF6D110BDC046B6
:10130000C8180020E816002010B50A210748FFF78A
:10131000FBFE002105E0064B5B1839331A700130E3
:10132000013102780D2AF6D110BDC046C818002040
:10133000E816002010B53A210A48FFF7E5FE013013
:10134000002102780D2A08D0074B5B186C331B78FC
:10135000934204D101310130F3E7012010BD002098
:10136000FCE7C046C81800204809002010B507480F
:101370003030FFF769FE2C210548FFF7C5FE0378E2
:10138000312B01D0002010BD0120FCE7C80900204E
:10139000C818002010B50A481C30FFF755FE3A2146
:1013A0000848FFF7B1FE0130002105E0064B5B184D
:1013B0009A331A700130013102780D2AF6D110BD2E
:1013C000480A0020C8180020E816002010B511486F
:1013D0000830FFF739FE22210F48FFF795FE013054
:1013E000002306E00D4AD2183F32FF32117001305F
:1013F000013301782C29F5D1013006E0074AD218D3
:101400004732FF3211700130013301782B29F5D1B9
:1014100010BDC046C80A0020C8180020E8160020E9
:1014200010B5FFF7D3FF034A9E235B004121D1543F
:1014300010BDC046E816002070B582B0D44B9A7932
:10144000072A00D94DE19300D24AD3589F46D24B88
:101450001B88DB070CD4D04B1B889B0700D440E1D2
:10146000FFF768FF002812D1C94B04229A7138E1B6
:10147000C94B1B889B07EED400F088FBC74874302B
:10148000FFF7E2FDC6486030FFF7DEFDE3E7FFF758
:101490000FFFFFF723FFFFF737FFBF4A137808213D
:1014A0000B431370BA4B01229A711AE1BD484C30BC
:1014B000FFF7CAFDFFF75AFF002808D1B64A137894
:1014C00040218B431370B24B01229A7109E1FFF75F
:1014D00061FFB14A137840210B431370AC4B0222D9
:1014E0009A71FEE0AC4B1B885B0600D4F9E0A84B78
:1014F000DA79042A00D9F4E09300AB4AD3589F4626
:10150000AA483830FFF7FCFDA94C24342000FFF72F
:10151000F7FD00212000FFF7E5FD002809D09E4AD5
:10152000117880235B420B431370994B0122DA71CF
:10153000D7E0994A11787F230B401370D1E09D4C7E
:1015400020001030FFF7DCFD7C342000FFF7D8FDD1
:1015500000212000FFF7C6FD002811D08E4A531C41
:10156000517801215170927800225A709A780022A5
:101570009A70DA780022DA70854B0232DA71B0E0C4
:101580008D486830FFF7BCFD834A531C5178002119
:101590005170927800225A709A7800229A70DA7804
:1015A0000022DA709DE085485430FFF7A9FD844C95
:1015B00040342000FFF7A4FD00212000FFF792FD3A
:1015C000002811D0744A531D51790121517192792B
:1015D00000225A709A7800229A70DA780022DA7023
:1015E0006B4B0332DA717CE06B4A531D5179002159
:1015F0005171927900225A709A7800229A70DA78A2
:101600000022DA706DE06F482C30FFF779FD6E4CE8
:1016100018342000FFF774FD00212000FFF762FD61
:10162000002811D05C4A1300517A012151729A7A34
:1016300000229A72DA7A0022DA721A7B00221A7376
:10164000534B0432DA714CE060480430FFF758FD28
:10165000514A1300517A002151729A7A00229A72EB
:10166000DA7A0022DA721A7B00221A7339E05748BC
:101670007030FFF7E9FC564C5C342000FFF7E4FCC7
:1016800000212000FFF72EFD002813D0424A13004E
:10169000517B012151739A7B00229A73DA7B0022DD
:1016A000DA731A7C00221A74394B0132DA71023271
:1016B0009A7116E0384A1300517B002151739A7BCE
:1016C00000229A73DA7B0022DA731A7C00221A74E1
:1016D0002F4B0432DA7104E0FFF7A2FE2C4B0422F8
:1016E0009A7102B070BD2A4B1B7A012B00D194E095
:1016F000002B77D0022B00D1AAE0032BF1D16B464F
:101700001A22DA71334C20000C30FFF7F9FCFFF796
:10171000BDFA21004831002300222F4800F0BAFA18
:101720000028DED0FA25AD002C4C2D4E2B00842253
:101730002100300001F072FF642301226946073165
:10174000300001F06BFF280000F070FE21480021FE
:101750000C30FFF7C7FC22005D3AFF3A403CFF3CEB
:101760002378002301202070607800206070A0782A
:101770000020A070E0780020E07005490B72053071
:101780008871AB214900535402315352A9E7C04636
:10179000C0160020C43A0008E8160020C80A00203D
:1017A000480B0020C80B0020E43A0008480C002039
:1017B000C80C0020480D0020C80D0020480E002055
:1017C000C80E0020480F0020C80F0020481000203D
:1017D000C8100020C8120020C8180020441800209B
:1017E0004C1900207D4C48342000FFF789FC002173
:1017F0002000FFF777FC7A4A1300517C01215174D5
:101800009A7C00229A74DA7C0022DA741A7D002213
:101810001A750132734B1A7263E7734C343420002B
:10182000FFF76EFC00212000FFF75CFC6C4A130000
:10183000517D012151759A7D00229A75DA7D002231
:10184000DA751A7E00221A76664B02321A7248E75F
:10185000664C20342000FFF753FC00212000FFF7E6
:1018600041FC5F4A1300517E012151769A7E00228D
:101870009A76DA7E0022DA761A7F00221A77594B9E
:1018800003321A722DE7FA2100228900554800F030
:1018900079FD534B1B88DB0605D4524B186800F0CA
:1018A000ABFD0028F5D04F4B186800F091FD4C4877
:1018B000AB235B000122C254E130FF300023002241
:1018C0004B4900F0E7F9002817D1464B03221A7262
:1018D00001329A71424A1300253319780021197098
:1018E000597800215970997800219970D978002190
:1018F000D970AB235B00D154F3E6394C2300253378
:101900001A7801221A705A7800225A709A780022A6
:101910009A70DA780022DA70230029331A780022CC
:101920001A705A7800225A709A7800229A70DA78DF
:101930000022DA70FFF7F0FB3E23FF33E05CFFF795
:1019400055FC2C487830FFF7DBFB2B486430FFF761
:10195000D7FB0022AB235B00E254224B06329A7184
:10196000BFE6204B07229A711D4B2D331A780122B6
:101970001A705A7800225A709A7800229A70DA788F
:101980000022DA70ADE61D485030FFF75DFB002203
:101990001B49144800F0F6FC19E0114B1A7802219B
:1019A0000A431A701A7801210A431A7029331A78E7
:1019B00019705A7800225A709A7800229A70DA7850
:1019C0000022DA70074B9A71186800F001FD054B90
:1019D000186800F011FD0028DFD182E648110020D0
:1019E000E8160020C0160020C81100204812002070
:1019F000A03C0008C812002048130020C813002093
:101A000050C3000010B502680D4B9A4205D0012268
:101A10000C490D4801F036FF10BD0C4AAC204000C7
:101A2000135AD118E131FF31064C24780C70013380
:101A30009B059B0D1352AB235B000121D154E6E7BC
:101A400000380140E01600204C190020E816002064
:101A500030B595B02C22002109A801F0ACFF10226E
:101A6000002104A801F0A7FF10220021684601F020
:101A7000A2FF0224089401250B9510230C931094C7
:101A8000A0239B03129308A800F0B8FE0723049339
:101A90000594002406940794012104A801F032F96A
:101AA00000950294684601F0DBF915B030BD10B521
:101AB00000F010FDFFF7CCFF00F05CF8FFF7BCFC76
:101AC000FCE7000010B50A480A4B0360E1235B0203
:101AD00043600023836080229201C26003610C2274
:101AE00042618361C3610362436201F047FE10BD3E
:101AF0004C19002000380140F0B589B014220021B3
:101B000003A801F058FF184B596980208002014357
:101B100059615A6902400192019A5A698021090368
:101B20000A435A615B690B400293029BC027BF00C6
:101B30000E4D00223900280000F05AFE01260396BF
:101B40000B4B049300240594902003A9C00500F0DA
:101B500089FD039704960594069403A9280000F0D4
:101B600081FD09B0F0BDC0460010024000080048E9
:101B70000000121010B5FFF7BFFF034A13780121D0
:101B80000B43137010BDC046E816002010B5FFF7D8
:101B900099FF01220849094801F074FE084A1378A8
:101BA00002210B431370074C2000FFF74DFA200071
:101BB0006C30FFF749FA10BDE01600204C190020E8
:101BC000E81600205C15002082B00A4B99690122BA
:101BD0001143996199690A400092009ADA6980215B
:101BE00049050A43DA61DB690B400193019B02B0AE
:101BF0007047C0460010024010B588B0040014229F
:101C0000002103A801F0D7FE2268174B9A4201D0A9
:101C100008B010BD154B99698020C001014399613E
:101C20009A6902400192019A5A69802189020A4305
:101C30005A615B690B400293029BC023DB00039354
:101C40000223049301330693023B0793902003A9D8
:101C5000C00500F007FD002200211B2000F05CFC05
:101C60001B2000F08BFCD3E700380140001002403D
:101C70007047FEE77047704710B500F03BFC00F07E
:101C8000A5FC10BD10B5024801F0ACF910BDC0466E
:101C90004C19002070B5002A08D114000D5D9D423A
:101CA0000FD0065DAE4210D10134F7E70023934216
:101CB00005DACD5CC45CA54205D10133F7E701200C
:101CC00070BD0120FCE70020FAE71000F8E705E00E
:101CD00003780B7001300131013AD2B2002AF7D1FA
:101CE0007047000010B5062A40D89300204CE358F6
:101CF0009F460478303C1F4B63430C68A446634402
:101D00000B6001300478303C1B4B63430C68A446E5
:101D100063440B600130441C0078303843011B1AC7
:101D20009B001B18D8000B689C4660440860601C30
:101D30002478303C642363430C68A44663440B60FE
:101D4000441C0078303883001B1858000B689C46F0
:101D5000604408602378303B0868844663440B6025
:101D6000D0B210BD0400E2E70400F3E70020F8E77A
:101D7000F83A0008A08601001027000070B50500A1
:101D80001B49FEF74BFA041E00D001241949280014
:101D9000FEF744FA0A21FEF727FB214300D0013465
:101DA000FA2189002800FEF739FA0A21FEF71CFB08
:101DB000214300D0013464212800FEF72FFA0A21C4
:101DC000FEF712FB214300D001340A212800FEF760
:101DD00025FA0A21FEF708FB214300D001340A212D
:101DE0002800FEF701FB214300D00134E0B270BDB2
:101DF000A08601001027000070B505000C00FFF759
:101E0000BDFF06283FD88000204B1B589F46204925
:101E10002800FEF703FA3030207001341D492800F5
:101E2000FEF7FCF90A21FEF7DFFA303121700134A8
:101E3000FA2189002800FEF7F1F90A21FEF7D4FA09
:101E4000661C3031217064212800FEF7E7F90A2171
:101E5000FEF7CAFA741C303131700A212800FEF7EF
:101E6000DDF90A21FEF7C0FA661C303121700A2123
:101E70002800FEF7B9FA30313170012070BD26001C
:101E8000E1E72600F3E70020F8E7C046143B00082E
:101E9000A08601001027000070B504000D00002886
:101EA00008DB2000FFF76AFF062844D88000234B98
:101EB0001B589F4644422D230B700135F1E7204902
:101EC0002000FEF7ABF93030287001351D492000A5
:101ED000FEF7A4F90A21FEF787FA3031297001359F
:101EE000FA2189002000FEF799F90A21FEF77CFA11
:101EF0006E1C3031297064212000FEF78FF90A2111
:101F0000FEF772FA751C303131700A212000FEF79D
:101F100085F90A21FEF768FA6E1C303129700A2112
:101F20002000FEF761FA30313170012070BD2E00C3
:101F3000E1E72E00F3E70020F8E7C046303B000859
:101F4000A08601001027000030B5040002E0013433
:101F50000D70013125789542F9D1201A181830BD3D
:101F600002E001300B70013103789342F9D17047E0
:101F7000F0B5D6464F4680B587B006000F000192F7
:101F80000A22002103A801F016FD34685649201CDE
:101F9000FEF748FB051CFEF767FA0200643A534B54
:101FA0009A4209D903000A3B592B0ED90138082857
:101FB0000ED80323994601E001239946019B052B86
:101FC00030D89B004A4AD3589F4602239946F5E7EA
:101FD00000239946F2E74749201CFEF723FB3060B7
:101FE00034680021201CFEF711FA00281DD1201CA6
:101FF000FEF73AFA85B20024002621E03E49201C73
:10200000FEF710FB3060EBE73560E9E73B49201C49
:10201000FEF708FB3060E3E73949201CFEF702FBBE
:102020003060DDE700233360DAE730233B700126C0
:1020300054E0731C03AA2E219155DEB20134A4B2E0
:10204000002D14D06B469B88A342F2D0731CDBB2E8
:102050009A460A212800FEF7DDF8303103AB995586
:102060000A212800FEF750F885B25646E6E74B46AF
:10207000032B0DD0022B1CD0012B18D1731CDBB20B
:1020800003AA2E2191550236F6B20231D1540EE048
:10209000721CD2B203AB30219955B01CC0B2995416
:1020A000F21CD2B22E241C540436F6B299543300DA
:1020B00012E0711CC9B203AA30209055B31CDBB2E8
:1020C0002E2454540336F6B2D054F0E7013BDBB271
:1020D00003AAD25C3A700137002BF7D1300007B069
:1020E0000CBC91469A46F0BD00007A448303000080
:1020F0004C3B00080050C34700401C460000C8424B
:1021000000002041F0B585B00F000192134B1A6812
:1021100002929B8802AA9380046800250EE00A219F
:102120002000FEF777F86E1CF6B2303102AB59553D
:102130000A212000FDF7E8FF04003500002CEED155
:10214000019B05E0013BDBB202AAD25C3A70013789
:10215000002BF7D1019805B0F0BDC046C43C000883
:10216000F0B585B004000E0001920322002103A8FF
:1021700001F021FC257800240EE0671CFFB20A2143
:102180002800FEF747F8303103AB19550A21280023
:10219000FDF7BAFFC5B23C00002DEED1019B04E073
:1021A00030223270013BDBB20136A342F8D805E0A1
:1021B000013CE4B203AB1B5D33700136002CF7D158
:1021C000019805B0F0BD000010B500230B60052A92
:1021D00032D89300194CE3589F460478303C184B92
:1021E00063430B6001300478303C63011B1B9B0090
:1021F0001B19DC000B689C4664440C600130431CD6
:102200000478303C642060430C68A4466044086055
:10221000581C1C78303CA3001B195C000B689C46C2
:1022200064440C600378303B0868844663440B6068
:10223000100010BD0300EBE70020FAE7643B000844
:102240001027000010B500230B60062A3DD893002C
:102250001F4CE3589F460478303C1E4B63430B6091
:1022600001300478303C1C4B63430C68A446634443
:102270000B600130441C0078303843011B1A9B006E
:102280001B18D8000B689C4660440860601C2478CA
:10229000303C642363430C68A44663440B60441CD5
:1022A0000078303883001B1858000B689C46604447
:1022B00008602378303B0868844663440B60100054
:1022C00010BD0400E2E70400F3E70020F8E7C04691
:1022D0007C3B0008A08601001027000010B5030019
:1022E0000B4A1268002A08D0094A1068C3186A46C7
:1022F000934206D8064A136010BD054A054911608D
:10230000F2E701F01BFB0C23036001204042F3E7DE
:10231000CC160020E019002070470000064B1B6817
:10232000002B07D0012000E001301B69002BFBD1FE
:10233000013070470120FCE7D0190020F8B50700F4
:102340000F4B1C68142001F023FB051E15D000263E
:102350004672FFF7E3FF286038602E61084B1B6868
:10236000002B04D1064B1D60012007E01C002369EF
:10237000002BFBD12561012000E00020F8BDC04604
:10238000D019002070B504000E0015000368002B62
:102390000CD00E4B1B68002B16D01A6821688A429D
:1023A00009D01B69002BF8D100200CE0FFF7C6FF15
:1023B0000028EED107E001225A720022DA609A72F8
:1023C0005E601D72012070BD0020FCE7D019002066
:1023D000084B1B68002B0BD01A68824204D01B6983
:1023E000002BF9D1002002E000225A720120704730
:1023F0000020FCE7D01900200B4B1B68002B10D0ED
:102400001A68824204D01B69002BF9D10020704762
:102410009A7A012A01D00020F9E700229A7201205D
:10242000F5E70020F3E7C046D019002010B5010001
:1024300000220548FFF7A6FF034B1868FFF7DCFFF3
:102440000028F9D010BDC046D41600200D4B1B68E3
:10245000002B07D17047DA680132DA6005E01B69AA
:10246000002BF7D05A7A012AF5D0DA6859688A42E7
:10247000F5D301229A720022DA601A7A002AEED18C
:102480005A72ECE7D019002010B504000F4B1978F0
:10249000FA208000FDF738FE01000D4B1868FDF7AB
:1024A00033FE00F077F800280DD1032C01D901206C
:1024B0000AE0013000222100404200F02DF8034BD9
:1024C0005C60002000E0012010BDC04638160020EE
:1024D0003416002010B5064A136810210B43136010
:1024E0000020FFF7D1FFFFF76FFB002010BDC046B3
:1024F00000200240034A1168034B1B785B181360ED
:102500007047C046D419002038160020014B1868C7
:102510007047C046D419002070B5002811DB83082D
:10252000144DC0339B005C5903221040C000FC32A4
:1025300016008640B44389010A40824022435A5122
:1025400070BDC0B20F230340083B9B0806339B00BD
:10255000094A944663445D6803242040C000FF227A
:1025600014008440A54389011140814029435960EA
:10257000E6E7C04600E100E000ED00E0002805DBF2
:102580001F2318401E3B8340014A13607047C0461A
:1025900000E100E001380A4B98420FD8094A506028
:1025A0000948036A1B021B0AC02109060B43036288
:1025B0000023936007331360002070470120FCE77D
:1025C000FFFFFF0010E000E000ED00E010B5FFF7B6
:1025D0003DFF10BD10B52123C35C022B06D00423A0
:1025E00083631C330022C254012010BD02681368AB
:1025F0000E218B43136001680A6801239A430A6025
:10260000C26B1900046CA1405160212283541F3316
:102610000022C2540020E8E710B52123C35C022B3E
:1026200003D004238363012010BD026813680E21C8
:102630008B43136001680A6801239A430A60C26BE6
:102640001900046CA1405160212283541F330022E1
:10265000C254436B002B02D098470020E4E70020CF
:10266000E2E70000F0B5CE46474680B583B00023D0
:1026700033E0032600E00026AE4035003D4302343F
:10268000A400554EA551554C2568D4432E00264034
:102690004F68FF0301D515432E00504D2E606D6825
:1026A0002E0026404F68BF0301D515432E004B4D29
:1026B0006E60AD682E0026404F68FF0201D51543BD
:1026C0002E00464DAE60ED682C404E68B60201D536
:1026D0002A431400414AD46001330A681400DC40E4
:1026E00074D001249C402240F6D04D686E1E012E0D
:1026F00003D9112D01D0122D12D185685F00032658
:10270000BE40B5432E00CD68BD4035438560456869
:10271000A5434C682609012434409C402C43446066
:10272000C7685E000324B440E443A44627408D6894
:10273000B5403D43C5604C68022C01D0122C10D12D
:10274000DC080834A400A146275807251D40AD0029
:102750000F24AC40A7430C69AC4025003D434C46D8
:10276000255005686446254003244F683C40B4402A
:102770002C4304604C68E400AED5194DAE690124C9
:102780002643AE61AD692C400194019C9C08A51CB8
:10279000AD00114EAF5903251D40AD000F26AE40D0
:1027A000B7439026F605B04200D164E70D4EB04223
:1027B00008D00D4EB04207D00C4EB04200D158E7C1
:1027C000052659E7012657E7022655E703B00CBC5A
:1027D00090469946F0BDC04600000140000401400B
:1027E000001002400004004800080048000C0048A7
:1027F000002A01D1816270478161FCE770B582B027
:10280000041E00D132E20368DB0726D5AE4B5A68BE
:102810000C231340042B18D0AB4B5A680C231340E5
:10282000082B0ED06368012B3CD0002B51D1A64B56
:102830001A68A6490A401A601A68A5490A401A602F
:1028400036E0A14B5B68DB03ECD59F4B1B689B0319
:1028500003D56368002B00D10BE223689B0773D577
:10286000994B5B680C221A425DD0974B5A680C2337
:102870001340082B53D0E368002B00D186E0924A26
:10288000136801210B431360FFF740FE05008E4BD8
:102890001B689B0771D4FFF739FE401B0228F6D94D
:1028A0000320E4E1884A116880235B020B43136034
:1028B0006368002B25D0FFF729FE0500824B1B68BB
:1028C0009B03CAD4FFF722FE401B6428F6D90320DD
:1028D000CDE1052B09D07C4B1A687C490A401A606F
:1028E0001A687B490A401A60E2E7774B1968802230
:1028F000D2020A431A601968802252020A431A60FF
:10290000D6E7FFF703FE05006F4B1B689B03A4D5BA
:10291000FFF7FCFD401B6428F6D90320A7E16A4BB2
:102920005B68DB03A7D4684B1B689B0704D5E3688F
:10293000012B01D001209AE163490B68F8229343EF
:102940002269D20013430B6023681B0744D5E36957
:10295000002B2ED05C4A536A01210B435362FFF7D0
:10296000D5FD0500584B5B6A9B0735D4FFF7CEFDBC
:10297000401B0228F6D9032079E153490B68F8225D
:1029800093432269D20013430B60DDE74E4A13687C
:1029900001218B431360FFF7B9FD05004A4B1B680B
:1029A0009B07D1D5FFF7B2FD401B0228F6D90320C3
:1029B0005DE1454A536A01218B435362FFF7A6FD4F
:1029C0000500414B5B6A9B0706D5FFF79FFD401B47
:1029D0000228F6D903204AE123685B0700D47FE090
:1029E000394BDB69DB001DD4374AD16980204005B3
:1029F0000143D161D36903400193019B0125354B0C
:102A00001B68DB0510D5A368012B21D0002B36D124
:102A10002D4B1A6A01218A431A621A6A03318A43CA
:102A20001A621AE00025EAE72A4A116880235B004F
:102A30000B431360FFF76AFD0600264B1B68DB059E
:102A4000E1D4FFF763FD801B6428F6D903200EE173
:102A50001D4A136A01210B431362A368002B24D083
:102A6000FFF754FD0600184B1B6A9B0736D4FFF78F
:102A70004DFD801B184B9842F5D90320F7E0052B3C
:102A800009D0114B1A6A01218A431A621A6A03316A
:102A90008A431A62E1E70C4B1A6A04210A431A625C
:102AA0001A6A03390A431A62D7E7FFF72FFD0600B7
:102AB000054B1B6A9B0711D5FFF728FD801B064BB2
:102AC0009842F5D90320D2E000100240FFFFFEFF3C
:102AD000FFFFFBFF0070004088130000012D33D082
:102AE0002368DB0610D56369012B33D0053351D140
:102AF000644A536B04218B435363536BF4318B4310
:102B0000A169C9000B435363236A002B00D1B2E0D3
:102B10005C4A51680C220A40082A00D18AE0022B44
:102B20004FD0584A136858490B401360FFF7EEFC2A
:102B30000400544B1B689B017AD5FFF7E7FC001B90
:102B40000228F6D9032092E04E4AD3694F490B4040
:102B5000D361C5E74B4B5A6B04210A435A635A6B46
:102B600003390A435A63FFF7D1FC0500454B5B6B01
:102B70009B0706D4FFF7CAFC401B0228F6D90320A6
:102B800075E040494B6BF8229343A269D20013438E
:102B90004B63B9E73B4B5A6B04210A435A635A6BA8
:102BA00003398A435A63FFF7B1FC0500354B5B6B71
:102BB0009B07A9D5FFF7AAFC401B0228F6D90320E2
:102BC00055E0304A136830490B401360FFF79EFC14
:102BD00005002C4B1B689B0106D5FFF797FC401B9B
:102BE0000228F6D9032042E0264BDA6A0F218A43F5
:102BF000E16A0A43DA625A6825490A40A16A606AB2
:102C000001430A435A601968802252040A431A6039
:102C1000FFF77CFC04001B4B1B689B0106D4FFF7ED
:102C200075FC001B0228F6D9032020E000201EE0DE
:102C300000201CE0012B20D0124B5A68D96A802357
:102C40005B021340606A834201D001200FE00F2332
:102C50000B40E16A8B4201D0012008E0F0239B0386
:102C60001A40A36A9A420AD0012000E0012002B073
:102C700070BD0120FBE70020F9E70120F7E7002005
:102C8000F5E7C04600100240FFFFFFFEFFFFFFEF29
:102C9000FFFFC2FF30B589B004AA174B180032C835
:102CA00032C2110002680A606A46103313CB13C2A5
:102CB0001B681360114B5A680C231340082B19D161
:102CC000910C0733194004A8445C0C49C96A0B40B5
:102CD0006946C95CD30308D463011B1B9801C01A61
:102CE000C0000419200209B030BD0548FDF70CFAF8
:102CF0006043F8E70248F6E7B03B000800100240E6
:102D000000127A0070B504000D00002800D181E0A7
:102D1000424B1A68012313408B420BD23F490B6888
:102D2000012293432B430B600B681A40AA4201D047
:102D3000012070E023689A070ED55B0705D5384A55
:102D40005168E023DB000B435360354A5368F021A0
:102D50008B43A1680B4353602368DB072DD5636861
:102D6000012B1ED0022B22D02D4A1268920753D578
:102D70002B494A680320824313434B60FFF7C6FB8D
:102D80000600274B5B680C221A4063689B009A423E
:102D900013D0FFF7BBFB801B224B9842F1D90320D5
:102DA00039E01F4A12689203E2D4012033E01C4A42
:102DB00012689201DCD401202DE0184B1A6801231F
:102DC0001340AB420BD915490B68012293432B43A7
:102DD0000B600B681A40AA4201D001201BE0236857
:102DE0005B0706D50E4A53680F490B40E1680B4359
:102DF0005360FFF74FFF0A4B5A6812090F23134025
:102E00000A4AD35CD8400A4B18600020FFF73CFB0D
:102E1000002000E0012070BD0120FCE700200240FE
:102E20000010024088130000FFF8FFFF983B0008E5
:102E300034160020014B18687047C0463416002035
:102E400010B5FFF7F7FF044B5A68120A0723134027
:102E5000024AD35CD84010BD00100240A83B0008D5
:102E600070B582B004000368DB0335D53C4BDB69E9
:102E7000DB0048D43A4AD169802040050143D16142
:102E8000D36903400193019B0125364B1B68DB0589
:102E90003BD5334B1B6AC0229200134013D06168AC
:102EA0000A409A420FD02E4B186A2F4A02401E6ADF
:102EB0008021490231431962196A2C4E314019624E
:102EC0001A62C30735D4264A136A27490B40616842
:102ED0000B431362012D3BD02368DB0706D5204A44
:102EE000136B03218B43A1680B43136323689B0679
:102EF00033D51B4A136B10218B43E1680B431363DB
:102F0000002002B070BD0025BFE7164A116880237B
:102F10005B000B431360FFF7F9FA0600114B1B68C7
:102F2000DB05B6D4FFF7F2FA801B6428F6D903203C
:102F3000E7E7FFF7EBFA0600094B1B6A9B07C2D4D1
:102F4000FFF7E4FA801B0A4B9842F5D90320D8E733
:102F5000D36908490B40D361BEE70020D1E7C046E2
:102F60000010024000700040FFFCFFFFFFFFFEFF6B
:102F700088130000FFFFFFEF026813680B490B4046
:102F80001360026893682331FF318B439360036EB3
:102F9000012B05D02023C3670023036643667047D7
:102FA000026813680F318B431360F3E7DFFEFFFF06
:102FB000704710B50268136840218B4313602023CB
:102FC000836700238366FFF7F3FF10BD704710B5DA
:102FD000406A00235A228352083A8352FFF7F6FFD1
:102FE00010BD704770B504000168CB6908688D6832
:102FF000854A1A400AD19E0608D5860606D5636E14
:10300000002B00D1FAE020009847F7E0002A00D119
:1030100081E001222A4002D17C4D28427BD0DD078D
:1030200007D5C50505D501260E62802561593143B6
:103030006151990709D5002A07D0216802250D6240
:103040007E356159042631436151590709D5002A5B
:1030500007D0216804250D627C3561590226314371
:10306000615119070AD5810601D4002A06D02268C9
:1030700008251562802162582A4362501A050AD534
:10308000420108D52268802109011162802162581D
:1030900020252A4362508022A258002A00D1ADE0A8
:1030A0009B0606D5830604D5636E002B01D0200055
:1030B00098478023E25823689B685B0602D4282344
:1030C000134221D02000FFF757FF23689A68520669
:1030D00016D59A6840218A439A60236F002B0BD043
:1030E0004B4A5A63206FFFF797FA002800D185E01A
:1030F000206F436B984781E02000FFF767FF7DE07A
:103100002000FFF763FF79E02000FFF75FFF8023D7
:103110000022E25072E0226E012A09D01A0669D517
:10312000020667D5A36E002B68D02000984765E0A3
:10313000DA06F3D5C206F1D510230B622268936834
:103140005B0633D5216F0B685B689BB2002B55D0B3
:103150005820205A984251D95A2023528B69202B4B
:103160001AD013682B490B4013602268936803310F
:10317000FF318B439360226893683F318B439360A8
:103180002023E367002323662268136830398B43CA
:103190001360206FFFF71EFA5823E15A0233E35AF7
:1031A000C91A89B22000FFF71CFF27E05823E15A13
:1031B0000233E05A091A89B2E35A9BB2002B1DD0A0
:1031C00000291BD0136814480340136022689368D9
:1031D0002330FF30834393602023E367002323667B
:1031E0006366226813680F30834313602000FFF783
:1031F000F8FE03E05B0601D5430600D470BD200055
:10320000FFF7D7FEFAE7C0460F08000020010004D0
:10321000CF2F0008FFFEFFFFDFFEFFFF10B5040009
:103220005C23C35AC26F222A05D002689369082121
:103230000B43936110BD0268928CDBB21340426D68
:103240001370436D013343655A22835A013B9BB28D
:103250008352835A9BB2002BECD1026813680F494A
:103260000B401360026893682331FF318B439360F6
:103270002023C36700234366036E012B04D0FEF7AF
:10328000C1FB00232366D5E7026813680F318B4327
:1032900013605823C15AFFF7A4FEF2E7DFFEFFFFD9
:1032A00010B504005C23C25AC36F222B05D00268FC
:1032B000936908210B43936110BD03689B8C1340F5
:1032C000426D1380436D023343655A22835A013B9A
:1032D0009BB28352835A9BB2002BEDD102681368D4
:1032E0000F490B401360026893682331FF318B4311
:1032F00093602023C36700234366036E012B04D031
:10330000FEF780FB00232366D6E7026813680F31BF
:103310008B4313605823C15AFFF763FEF2E7C046A0
:10332000DFFEFFFF10B504008368026913434269A2
:103330001343C269134301680A684F4802401343AC
:103340000B60226853684D490B40E1680B435360A2
:10335000226AA3691A4321688B68494803401343D2
:103360008B602368474A934214D0474A934225D042
:10337000102380221202E169914223D0022B00D156
:1033800069E04ED9042B68D0082B00D06EE0802075
:1033900000024CE03D4B1A6B03231340012B09D074
:1033A000002B05D0022B07D0032B09D01023E0E718
:1033B0000023DEE70423DCE70823DAE70023D8E76D
:1033C0000223D6E7022B2AD006D9042B24D0082BBF
:1033D00046D18020000205E0002B41D1FFF730FDEF
:1033E00000283FD0400063685B08C0186168FCF7A4
:1033F0008BFE83B20004000C01001039244A914274
:1034000032D80F2293431A00400807231840104374
:103410002368D86000201AE0FFF73CFCE0E71D4875
:10342000E0E7002B22D1FFF70BFD002820D06368D6
:103430005B0818186168FCF767FE0004000C0200C6
:10344000103A134B9A4215D82368D8600020002305
:103450006366A36610BD0F48E9E7FFF71BFCE4E7CE
:103460000120F4E70020F2E70120F0E70120EEE779
:103470000020ECE70120EAE7F369FFFFFFCFFFFF41
:10348000FFF4FFFF003801400044004000100240FC
:10349000EFFF000000127A00436ADB0706D50268DE
:1034A00053682C490B40816A0B435360436A9B0766
:1034B00006D50268536828490B40C16A0B43536024
:1034C000436A5B0706D50268536824490B40016BC9
:1034D0000B435360436A1B0706D5026853682049B3
:1034E0000B40416B0B435360436ADB0606D5026811
:1034F00093681C490B40816B0B439360436A9B06A6
:1035000006D50268936818490B40C16B0B43936062
:10351000436A5B060BD50268536814490B40016C83
:103520000B43536080235B03026C9A420AD0436AC8
:103530001B0606D5026853680D490B40816C0B438E
:1035400053607047026853680A490B40416C0B4353
:103550005360ECE7FFFFFDFFFFFFFEFFFFFFFBFFF8
:10356000FF7FFFFFFFEFFFFFFFDFFFFFFFFFEFFF2B
:10357000FFFFF7FFFFFF9FFFF0B5C64600B5050050
:103580000C0017009846069E2B68DB6923401B1B26
:103590005A425341BB423BD1731CF5D0FEF7B6FFF4
:1035A0004346C01AB04220D8002E1ED02B681A689D
:1035B0005207E9D5DA691205E6D5802212011A62AE
:1035C0002A68136814490B4013602A689368A33172
:1035D000FF318B4393602023AB67EB678022AB50B6
:1035E00054330022EA54032013E02A6813680A497E
:1035F0000B4013602A689368A331FF318B439360BB
:103600002023AB67EB6754330022EA54032000E029
:10361000002004BC9046F0BD5FFEFFFFF0B585B012
:1036200004000E0017001D00836F202B60D10029BD
:1036300061D0002A61D080235B0182689A421CD04D
:103640007423E35C012B5AD074230122E2540C331F
:103650000022E2505F3BA367FEF758FF0390502320
:10366000E7520233E75280235B01A2689A420BD0F3
:10367000002774230022E25419E00369002BDFD1F4
:10368000CB07DDD5012034E02369002B01D00027D2
:10369000EFE737000026ECE73B88DB05DB0D22680F
:1036A000138502375222A35A013B9BB2A3525223E5
:1036B000E35A9BB2002B0FD00095039B0022802180
:1036C0002000FFF759FF00281BD1002EE4D03378EB
:1036D000226813850136E5E70095039B002240210F
:1036E0002000FFF749FF00280DD12023A36700E049
:1036F000022005B0F0BD0120FBE70120F9E7022020
:10370000F7E70320F5E70320F3E7000030B583B0C7
:10371000040080230022C250FEF7F8FE0500236853
:103720001B681B070DD423681B685B0716D4202376
:10373000A367E367002323667422A354002003B029
:1037400030BD80210C4B0093030000228903200030
:10375000FFF712FF0028E6D00320F0E78021064B98
:1037600000932B000022C9032000FFF705FF00286B
:10377000DDD00320E3E7C046FFFFFF0110B5041EC4
:103780002ED0836F002B21D02423A36722681368D7
:1037900001218B4313602000FFF7C4FD012814D0E2
:1037A000636A002B18D1226853680E490B4053609E
:1037B0002268936808218B43936022681368073955
:1037C0000B4313602000FFF7A1FF10BD74330022EC
:1037D000C254FEF711FAD7E72000FFF75DFEE2E7DB
:1037E0000120F2E7FFF7FFFF41655823C252023381
:1037F000C25200234366836880225201934208D05C
:10380000002B15D10369002B0ED15C33FF22C2526D
:1038100011E00369002B03D15C33174AC2520AE05E
:103820005C23FF22C25206E05C237F22C25202E0E8
:103830005C230022C25280230022C2505E3BC36739
:103840000268936801210B43936080235B018268C7
:103850009A420BD0094B436674230022C25402687B
:103860001168AC330B431360002070470369002BD1
:10387000F0D1034B4366EFE7FF0100001D32000863
:10388000A132000870B5C36F202B24D1002924D0A9
:10389000002A24D080235B0184689C4214D07423C6
:1038A000C35C012B1DD074230124C4540023036680
:1038B00003685C68240204D51D688024E4042C435A
:1038C0001C60FFF791FF07E00369002BE7D1CB07EE
:1038D000E5D5012000E0022070BD0120FCE70120B9
:1038E000FAE70220F8E700000D4885460D480E492A
:1038F0000E4A002302E0D458C4500433C4188C424A
:10390000F9D30B4A0B4C002301E013600432A242AE
:10391000FBD3FEF701FD00F017F8FEF7C8F8FEE74D
:103920000020002000000020A4160020E03C000839
:10393000A4160020DC190020FEE70000014B1868E7
:103940007047C0464016002070B500260C4D0D4C47
:10395000641BA410A64209D1002600F0A7F80A4D66
:103960000A4C641BA410A64205D170BDB300EB58ED
:1039700098470136EEE7B300EB5898470136F2E777
:10398000D83C0008D83C0008D83C0008DC3C0008C3
:1039900010B5034B0100186800F016F810BDC046C2
:1039A00040160020002310B59A4200D110BDCC5C17
:1039B000C4540133F8E703001218934200D1704752
:1039C00019700133F9E70000032370B5CD1C9D4346
:1039D000083506000C2D1ED20C25A9421DD830003A
:1039E00000F062F8254A14682100002919D1244CFE
:1039F0002368002B03D1300000F044F82060290038
:103A0000300000F03FF8431C2BD10C233000336012
:103A100000F04BF803E0002DDFDA0C2333600020C8
:103A200070BD0B685B1B19D40B2B03D90B60CC1832
:103A3000256003E04B688C420DD11360300000F02C
:103A400034F8200007220B30231D9043C31AE7D01F
:103A50005A42E250E4E763600C00EFE70C0049686B
:103A6000C3E70323C41C9C43A042E1D0211A3000C9
:103A700000F008F8431CDBD1C7E7C046D816002089
:103A8000DC160020002370B5064C050008002360FA
:103A9000FEF724FC431C03D12368002B00D02B60CD
:103AA00070BDC046D819002070477047F8B5C046B1
:103AB000F8BC08BC9E467047F8B5C046F8BC08BCC8
:043AC0009E46704767
:103AC4004E140008AC140008E4140008D8160008CA
:103AD400E61600088618000862190008861900080E
:103AE400001500083E150008A61500080616000873
:103AF4006E1600086C1D0008681D0008401D0008B3
:103B0400641D0008161D0008041D0008F21C0008AE
:103B1400861E0008821E00085A1E00087E1E000829
:103B2400301E00081C1E00080E1E0008361F000868
:103B3400321F00080A1F00082E1F0008E01E00089C
:103B4400CC1E0008BE1E000824200008182000080F
:103B54000C20000808200008FC1F0008D61F0008DD
:103B6400382200082422000834220008FE2100081C
:103B7400E6210008DA210008CA220008C62200084B
:103B84009E220008C2220008742200086222000853
:103B94005622000800000000000000000102030497
:103BA40006070809000000000102030402030405DB
:103BB400060708090A0B0C0D0E0F1010010203046E
:103BC40005060708090A0B0C0D0E0F101C07000848
:103BD400C6060008C6060008F4070008C206000866
:103BE400C2060008EA070008F4070008C206000835
:103BF400EA070008C2060008F4070008F8070008EE
:103C0400F8070008F807000800080008494E545255
:103C1400554445522044455445435445440000000E
:103C24005354580045545800383631313233303506
:103C340032353737323138000D0A52454356204663
:103C4400524F4D3A31332E3132362E3136352E34F1
:103C54003A343030300D0A2B4950443731350D0A8F
:103C64005354582C30303637432C383631313233B4
:103C74003035323537373231382C352C2231393220
:103C84002E3136382E3133312E343937222C383018
:103C940038302C3839383945545800000D0A52450B
:103CA40043562046524F4D3A31332E3132362E315F
:103CB40036352E343A343030300D0A2B4950440016
:103CC4003030303030000000303030303030303080
:043CD400303000008C
:043CD800E9000008F7
:043CDC00C10000081B
:103CE000445347524F5550313133353500000000B1
:103CF000312E3030000000003438393435000000F7
:103D000000000000383030300000000067736D2E76
:103D1000647367726F75702E696E000034303038CE
:103D200039000000310000000000C000C1000100A7
:103D3000C30003000200C200C60006000700C7005F
:103D40000500C500C4000400CC000C000D00CD002F
:103D50000F00CF00CE000E000A00CA00CB000B00FF
:103D6000C90009000800C800D80018001900D900CF
:103D70001B00DB00DA001A001E00DE00DF001F005F
:103D8000DD001D001C00DC001400D400D50015006F
:103D9000D70017001600D600D20012001300D3007F
:103DA0001100D100D0001000F00030003100F1000F
:103DB0003300F300F20032003600F600F70037005F
:103DC000F50035003400F4003C00FC00FD003D002F
:103DD000FF003F003E00FE00FA003A003B00FB00FF
:103DE0003900F900F80038002800E800E90029004F
:103DF000EB002B002A00EA00EE002E002F00EF005F
:103E00002D00ED00EC002C00E40024002500E5006E
:103E10002700E700E60026002200E200E30023007E
:103E2000E10021002000E000A00060006100A1008E
:103E30006300A300A20062006600A600A70067005E
:103E4000A50065006400A4006C00AC00AD006D002E
:103E5000AF006F006E00AE00AA006A006B00AB00FE
:103E60006900A900A80068007800B800B9007900CE
:103E7000BB007B007A00BA00BE007E007F00BF005E
:103E80007D00BD00BC007C00B40074007500B5006E
:103E90007700B700B60076007200B200B30073007E
:103EA000B10071007000B00050009000910051000E
:103EB000930053005200920096005600570097005E
:103EC00055009500940054009C005C005D009D002E
:103ED0005F009F009E005E005A009A009B005B00FE
:103EE000990059005800980088004800490089004E
:103EF0004B008B008A004A004E008E008F004F005E
:103F00008D004D004C008C0044008400850045006D
:103F1000870047004600860082004200430083007D
:103F200041008100800040000000C100810040008D
:103F30000100C000800041000100C000800041007D
:103F40000000C100810040000100C000800041006D
:103F50000000C100810040000000C100810040005D
:103F60000100C000800041000100C000800041004D
:103F70000000C100810040000000C100810040003D
:103F80000100C000800041000000C100810040002D
:103F90000100C000800041000100C000800041001D
:103FA0000000C100810040000100C000800041000D
:103FB0000000C100810040000000C10081004000FD
:103FC0000100C000800041000000C10081004000ED
:103FD0000100C000800041000100C00080004100DD
:103FE0000000C100810040000000C10081004000CD
:103FF0000100C000800041000100C00080004100BD
:104000000000C100810040000100C00080004100AC
:104010000000C100810040000000C100810040009C
:104020000100C000800041000100C000800041008C
:104030000000C100810040000000C100810040007C
:104040000100C000800041000000C100810040006C
:104050000100C000800041000100C000800041005C
:104060000000C100810040000000C100810040004C
:104070000100C000800041000100C000800041003C
:104080000000C100810040000100C000800041002C
:104090000000C100810040000000C100810040001C
:1040A0000100C000800041000000C100810040000C
:1040B0000100C000800041000100C00080004100FC
:1040C0000000C100810040000100C00080004100EC
:1040D0000000C100810040000000C10081004000DC
:1040E0000100C000800041000100C00080004100CC
:1040F0000000C100810040000000C10081004000BC
:104100000100C000800041000000C10081004000AB
:104110000100C000800041000100C000800041009B
:104120000000C10081004000000005000F000A00EF
:104130001B001E0014001100330036003C00390043
:1041400028002D0027002200630066006C00690033
:1041500078007D0077007200500055005F005A0023
:104160004B004E0044004100C300C600CC00C90013
:10417000D800DD00D700D200F000F500FF00FA0003
:10418000EB00EE00E400E100A000A500AF00AA00F3
:10419000BB00BE00B400B100930096009C009900E3
:1041A00088008D0087008200830086008C008900D3
:1041B00098009D0097009200B000B500BF00BA00C3
:1041C000AB00AE00A400A100E000E500EF00EA00B3
:1041D000FB00FE00F400F100D300D600DC00D900A3
:1041E000C800CD00C700C200400045004F004A0093
:1041F0005B005E0054005100730076007C00790083
:1042000068006D0067006200230026002C00290072
:1042100038003D0037003200100015001F001A0062
:104220000B000E0004000100030006000C00090052
:1042300018001D0017001200300035003F003A0042
:104240002B002E0024002100600065006F006A0032
:104250007B007E0074007100530056005C00590022
:1042600048004D0047004200C000C500CF00CA0012
:10427000DB00DE00D400D100F300F600FC00F90002
:10428000E800ED00E700E200A300A600AC00A900F2
:10429000B800BD00B700B200900095009F009A00E2
:1042A0008B008E0084008100800085008F008A00D2
:1042B0009B009E0094009100B300B600BC00B900C2
:1042C000A800AD00A700A200E300E600EC00E900B2
:1042D000F800FD00F700F200D000D500DF00DA00A2
:1042E000CB00CE00C400C100430046004C00490092
:1042F00058005D0057005200700075007F007A0082
:104300006B006E0064006100200025002F002A0071
:104310003B003E0034003100130016001C00190061
:1043200008000D0007000000000080008000000071
:10433000800000000000800080000000000080007D
:10434000000080008000000080000000000080006D
:10435000000080008000000000008000800000005D
:10436000800000000000800080000000000080004D
:10437000000080008000000000008000800000003D
:10438000800000000000800000008000800000002D
:10439000800000000000800080000000000080001D
:1043A0000000800080000000810001000100810009
:1043B00001008100810001000100810081000100F5
:1043C00081000100010081000100810081000100E5
:1043D00081000100010081008100010001008100D5
:1043E00001008100810001000100810081000100C5
:1043F00081000100010081008100010001008100B5
:1044000001008100810001008100010001008100A4
:104410000100810081000100010081008100010094
:10442000810001000100810083000300030083007C
:104430000300830083000300030083008300030064
:104440008300030003008300030083008300030054
:104450008300030003008300830003000300830044
:104460000300830083000300030083008300030034
:104470008300030003008300830003000300830024
:104480000300830083000300830003000300830014
:104490000300830083000300030083008300030004
:1044A00083000300030083000200820082000200F8
:1044B00082000200020082008200020002008200EC
:1044C00002008200820002008200020002008200DC
:1044D00002008200820002000200820082000200CC
:1044E00082000200020082008200020002008200BC
:1044F00002008200820002000200820082000200AC
:10450000820002000200820002008200820002009B
:10451000820002000200820082000200020082008B
:10452000020082008200000041542B4349504F504A
:10453000454E3D302C22544350222C0000000000F8
:10454000000000000000000000000000000000006B
:104550000D0A4F4B0D0A0D0A2B4349504F50454E43
:104560003A20302C00000000000000000000000095
:1045700000000000000000000D0A2B434D452045BF
:1045800052524F5200000000000000000000000DD9
:104590000A00E80341542B43495053454E443D30F3
:1045A0002C000000000000000000000000000000DF
:1045B0000000000000000000000000000D0A3E0D99
:1045C0000A4F4B0D0A0D0A2B43495053454E443AAE
:1045D00000000000000000000000000000000000DB
:1045E000000000000D0A2B434D45204552524F520A
:1045F00000000000000000000000000D0A00881309
:1046000041542B434950434C4F53453D300000002B
:10461000000000000000000000000000000000009A
:1046200000000000000000000D0A4F4B0D0A0D0AAB
:104630002B434950434C4F53453A20300000000073
:10464000000000000000000000000000000000006A
:104650000D0A2B434D45204552524F520000000099
:10466000000000000000000D0A00640041542B43CC
:1046700050494E3F00000000000000000000000014
:10468000000000000000000000000000000000002A
:1046900000000000524541445900000000000000A5
:1046A000000000000000000000000000000000000A
:1046B0000000000000000000000000000D0A2B4375
:1046C0004D45204552524F520000000000000000AE
:1046D0000000000D0A00C80041542B435245473FDB
:1046E00000000000000000000000000000000000CA
:1046F00000000000000000000000000000000000BA
:104700000D0A2B435245473A20312C31000000005E
:104710000000000000000000000000000000000099
:1047200000000000000000000D0A2B434D4520450D
:1047300052524F5200000000000000000000000D27
:104740000A00C80041542B435351000000000000F0
:104750000000000000000000000000000000000059
:104760000000000000000000000000000D0A2B43C4
:1047700053513A200000000000000000000000003B
:104780000000000000000000000000000000000029
:10479000000000000D0A2B434D45204552524F5258
:1047A00000000000000000000000000D0A00C8002A
:1047B00041542B43434C4B3F0000000000000000DD
:1047C00000000000000000000000000000000000E9
:1047D00000000000000000000D0A2B43434C4B3A40
:1047E00020000000000000000000000000000000A9
:1047F00000000000000000000000000000000000B9
:104800000D0A2B434D45204552524F5200000000E7
:10481000000000000000000D0A00F40141542B4389
:10482000545A553D31000000000000000000000017
:104830000000000000000000000000000000000078
:10484000000000000D0A4F4B0D0A000000000000A0
:104850000000000000000000000000000000000058
:104860000000000000000000000000000D0A2B43C3
:104870004D45204552524F520000000000000000FC
:104880000000000D0A00F4014154265730000000DA
:104890000000000000000000000000000000000018
:1048A0000000000000000000000000000000000008
:1048B0000D0A4F4B0D0A0000000000000000000030
:1048C00000000000000000000000000000000000E8
:1048D00000000000000000000D0A2B434D4520455C
:1048E00052524F5200000000000000000000000D76
:1048F0000A00F40141542B435245473D310000006A
:1049000000000000000000000000000000000000A7
:104910000000000000000000000000000D0A4F4BE6
:104920000D0A000000000000000000000000000070
:104930000000000000000000000000000000000077
:10494000000000000D0A2B434D45204552524F52A6
:1049500000000000000000000000000D0A00C80078
:1049600041542B43475245473D31000000000000B1
:104970000000000000000000000000000000000037
:1049800000000000000000000D0A4F4B0D0A00005F
:104990000000000000000000000000000000000017
:1049A0000000000000000000000000000000000007
:1049B0000D0A2B434D45204552524F520000000036
:1049C000000000000000000D0A00C80041542B4305
:1049D000475245473F000000000000000000000073
:1049E00000000000000000000000000000000000C7
:1049F000000000000D0A2B43475245473A20312C56
:104A00003100000000000000000000000000000075
:104A10000000000000000000000000000D0A2B4311
:104A20004D45204552524F5200000000000000004A
:104A30000000000D0A00C80041542B434741545464
:104A40003D310000000000000000000000000000F8
:104A50000000000000000000000000000000000056
:104A60000D0A4F4B0D0A000000000000000000007E
:104A70000000000000000000000000000000000036
:104A800000000000000000000D0A2B434D452045AA
:104A900052524F5200000000000000000000000DC4
:104AA0000A00C80041542B43474154543F000000C2
:104AB00000000000000000000000000000000000F6
:104AC0000000000000000000000000000D0A2B4361
:104AD000474154543A00000000000000000000006C
:104AE00000000000000000000000000000000000C6
:104AF000000000000D0A2B434D45204552524F52F5
:104B000000000000000000000000000D0A00C800C6
:104B100041542B43474154543D30000000000000F5
:104B20000000000000000000000000000000000085
:104B300000000000000000000D0A4F4B0D0A0000AD
:104B40000000000000000000000000000000000065
:104B50000000000000000000000000000000000055
:104B60000D0A2B434D45204552524F520000000084
:104B7000000000000000000D0A00C80041542B4353
:104B80004744434F4E543D312C224950222C226140
:104B9000697274656C677072732E636F6D220000AA
:104BA000000000000D0A4F4B0D0A0000000000003D
:104BB00000000000000000000000000000000000F5
:104BC0000000000000000000000000000D0A2B4360
:104BD0004D45204552524F52000000000000000099
:104BE0000000000D0A00C80041542B434744434FC6
:104BF0004E543F00000000000000000000000000D4
:104C000000000000000000000000000000000000A4
:104C10000D0A2B434744434F4E543A20312C22492E
:104C20005022000000000000000000000000000012
:104C300000000000000000000D0A2B434D452045F8
:104C400052524F5200000000000000000000000D12
:104C50000A00F40141542B43474143543D312C3168
:104C60000000000000000000000000000000000044
:104C70000000000000000000000000000D0A4F4B83
:104C80000D0A00000000000000000000000000000D
:104C90000000000000000000000000000000000014
:104CA000000000000D0A2B434D45204552524F5243
:104CB00000000000000000000000000D0A00C80015
:104CC00041542B43474143543F0000000000000083
:104CD00000000000000000000000000000000000D4
:104CE00000000000000000000D0A2B434741435420
:104CF0003A20312C310000000000000000000000CC
:104D000000000000000000000000000000000000A3
:104D10000D0A2B434D45204552524F5200000000D2
:104D2000000000000000000D0A00C80041542B43A1
:104D3000474143543D302C3100000000000000008A
:104D40000000000000000000000000000000000063
:104D5000000000000D0A4F4B0D0A0000000000008B
:104D60000000000000000000000000000000000043
:104D70000000000000000000000000000D0A2B43AE
:104D80004D45204552524F520000000000000000E7
:104D90000000000D0A00C80041542B4349504D4FFC
:104DA00044453D300000000000000000000000000D
:104DB00000000000000000000000000000000000F3
:104DC0000D0A4F4B0D0A000000000000000000001B
:104DD00000000000000000000000000000000000D3
:104DE00000000000000000000D0A2B434D45204547
:104DF00052524F5200000000000000000000000D61
:104E00000A00C80041542B4349504D4F44453F00D0
:104E10000000000000000000000000000000000092
:104E20000000000000000000000000000D0A2B43FD
:104E300049504D4F44453A2030000000000000002A
:104E40000000000000000000000000000000000062
:104E5000000000000D0A2B434D45204552524F5291
:104E600000000000000000000000000D0A00C80063
:104E700041542B4E45544F50454E00000000000059
:104E80000000000000000000000000000000000022
:104E900000000000000000000D0A4F4B0D0A00004A
:104EA0000000000000000000000000000000000002
:104EB00000000000000000000000000000000000F2
:104EC0000D0A2B434D45204552524F520000000021
:104ED000000000000000000D0A00E80341542B43CD
:104EE000495052584745543D300000000000000032
:104EF00000000000000000000000000000000000B2
:104F0000000000000D0A4F4B0D0A000000000000D9
:104F10000000000000000000000000000000000091
:104F20000000000000000000000000000D0A2B43FC
:104F30004D45204552524F52000000000000000035
:104F40000000000D0A00C80041542B4349504F5047
:104F5000454E3D302C22544350222C2231332E31E9
:104F600032362E3136352E34222C3430303000009B
:104F70000D0A4F4B0D0A0D0A2B4349504F50454E19
:104F80003A20302C0000000000000000000000006B
:104F900000000000000000000D0A2B434D45204595
:104FA00052524F5200000000000000000000000DAF
:104FB0000A00E80341542B43495053454E443D30C9
:104FC0002C000000000000000000000000000000B5
:104FD0000000000000000000000000000D0A3E0D6F
:104FE0000A4F4B0D0A0D0A2B43495053454E443A84
:104FF00000000000000000000000000000000000B1
:10500000000000000D0A2B434D45204552524F52DF
:1050100000000000000000000000000D0A008813DE
:1050200041542B434950434C4F53453D3000000001
:105030000000000000000000000000000000000070
:1050400000000000000000000D0A4F4B0D0A0D0A81
:105050002B434950434C4F53453A20300000000049
:105060000000000000000000000000000000000040
:105070000D0A2B434D45204552524F52000000006F
:10508000000000000000000D0A00640041542B4E97
:105090004554434C4F534500000000000000000001
:1050A0000000000000000000000000000000000000
:1050B000000000000D0A4F4B0D0A0D0A2B4E4554FF
:1050C000434C4F53453A20300000000000000000E0
:1050D0000000000000000000000000000D0A2B434B
:1050E0004D45204552524F52000000000000000084
:1050F0000000000D0A00640041542B435245534503
:10510000540000000000000000000000000000004B
:10511000000000000000000000000000000000008F
:105120000D0A4F4B0D0A00000000000000000000B7
:10513000000000000000000000000000000000006F
:1051400000000000000000000D0A2B434D452045E3
:1051500052524F5200000000000000000000000DFD
:105160000A00F40141542B434F50533F000000000C
:10517000000000000000000000000000000000002F
:105180000000000000000000000000000D0A2B439A
:105190004F50533A000000000000000000000000E3
:1051A00000000000000000000000000000000000FF
:1051B000000000000D0A2B434D45204552524F522E
:1051C00000000000000000000000000D0A00C80000
:1051D00041544530000000000000000000000000C5
:1051E00000000000000000000000000000000000BF
:1051F00000000000000000000D0A4F4B0D0A0000E7
:10520000000000000000000000000000000000009E
:10521000000000000000000000000000000000008E
:105220000D0A2B434D45204552524F5200000000BD
:10523000000000000000000D0A00640041545631D7
:10524000000000000000000000000000000000005E
:10525000000000000000000000000000000000004E
:10526000000000000D0A4F4B0D0A00000000000076
:10527000000000000000000000000000000000002E
:105280000000000000000000000000000D0A2B4399
:105290004D45204552524F520000000000000000D2
:1052A0000000000D0A00F4014154453000000000E8
:1052B00000000000000000000000000000000000EE
:1052C00000000000000000000000000000000000DE
:1052D0000D0A4F4B0D0A0000000000000000000006
:1052E00000000000000000000000000000000000BE
:1052F00000000000000000000D0A2B434D45204532
:1053000052524F5200000000000000000000000D4B
:105310000A00F40100127A000100000004000000FD
:105320004416002000000000000000000000000003
:10533000000000000000000000000000000000006D
:10534000000000000000000000000000000000005D
:10535000000000000000000000000000000000004D
:10536000000000000000000000000000000000003D
:10537000000000000000000000000000000000002D
:045380000000000029
:04000005080038E9CE
:00000001FF
